{"contracts/NasaafundPlatform.sol":{"NasaaPlatform":{"abi":[{"inputs":[],"stateMutability":"nonpayable","type":"constructor"},{"inputs":[{"internalType":"address","name":"sender","type":"address"},{"internalType":"uint256","name":"tokenId","type":"uint256"},{"internalType":"address","name":"owner","type":"address"}],"name":"ERC721IncorrectOwner","type":"error"},{"inputs":[{"internalType":"address","name":"operator","type":"address"},{"internalType":"uint256","name":"tokenId","type":"uint256"}],"name":"ERC721InsufficientApproval","type":"error"},{"inputs":[{"internalType":"address","name":"approver","type":"address"}],"name":"ERC721InvalidApprover","type":"error"},{"inputs":[{"internalType":"address","name":"operator","type":"address"}],"name":"ERC721InvalidOperator","type":"error"},{"inputs":[{"internalType":"address","name":"owner","type":"address"}],"name":"ERC721InvalidOwner","type":"error"},{"inputs":[{"internalType":"address","name":"receiver","type":"address"}],"name":"ERC721InvalidReceiver","type":"error"},{"inputs":[{"internalType":"address","name":"sender","type":"address"}],"name":"ERC721InvalidSender","type":"error"},{"inputs":[{"internalType":"uint256","name":"tokenId","type":"uint256"}],"name":"ERC721NonexistentToken","type":"error"},{"inputs":[{"internalType":"address","name":"owner","type":"address"}],"name":"OwnableInvalidOwner","type":"error"},{"inputs":[{"internalType":"address","name":"account","type":"address"}],"name":"OwnableUnauthorizedAccount","type":"error"},{"anonymous":false,"inputs":[{"indexed":true,"internalType":"address","name":"owner","type":"address"},{"indexed":true,"internalType":"address","name":"approved","type":"address"},{"indexed":true,"internalType":"uint256","name":"tokenId","type":"uint256"}],"name":"Approval","type":"event"},{"anonymous":false,"inputs":[{"indexed":true,"internalType":"address","name":"owner","type":"address"},{"indexed":true,"internalType":"address","name":"operator","type":"address"},{"indexed":false,"internalType":"bool","name":"approved","type":"bool"}],"name":"ApprovalForAll","type":"event"},{"anonymous":false,"inputs":[{"indexed":true,"internalType":"uint256","name":"proposalId","type":"uint256"},{"indexed":false,"internalType":"address","name":"contributor","type":"address"},{"indexed":false,"internalType":"uint256","name":"amount","type":"uint256"}],"name":"ContributionMade","type":"event"},{"anonymous":false,"inputs":[{"indexed":true,"internalType":"uint256","name":"proposalId","type":"uint256"},{"indexed":false,"internalType":"uint256","name":"amount","type":"uint256"}],"name":"FundsWithdrawn","type":"event"},{"anonymous":false,"inputs":[{"indexed":true,"internalType":"uint256","name":"tokenId","type":"uint256"},{"indexed":false,"internalType":"string","name":"tokenURI","type":"string"}],"name":"NFTCreated","type":"event"},{"anonymous":false,"inputs":[{"indexed":true,"internalType":"address","name":"previousOwner","type":"address"},{"indexed":true,"internalType":"address","name":"newOwner","type":"address"}],"name":"OwnershipTransferred","type":"event"},{"anonymous":false,"inputs":[{"indexed":true,"internalType":"uint256","name":"proposalId","type":"uint256"}],"name":"ProposalApproved","type":"event"},{"anonymous":false,"inputs":[{"indexed":true,"internalType":"uint256","name":"proposalId","type":"uint256"},{"indexed":false,"internalType":"address","name":"creator","type":"address"},{"indexed":false,"internalType":"uint256","name":"targetAmount","type":"uint256"},{"indexed":false,"internalType":"uint256","name":"deadline","type":"uint256"}],"name":"ProposalCreated","type":"event"},{"anonymous":false,"inputs":[{"indexed":true,"internalType":"address","name":"from","type":"address"},{"indexed":true,"internalType":"address","name":"to","type":"address"},{"indexed":true,"internalType":"uint256","name":"tokenId","type":"uint256"}],"name":"Transfer","type":"event"},{"inputs":[],"name":"admin","outputs":[{"internalType":"address","name":"","type":"address"}],"stateMutability":"view","type":"function"},{"inputs":[{"internalType":"address","name":"to","type":"address"},{"internalType":"uint256","name":"tokenId","type":"uint256"}],"name":"approve","outputs":[],"stateMutability":"nonpayable","type":"function"},{"inputs":[{"internalType":"uint256","name":"proposalId","type":"uint256"}],"name":"approveProposal","outputs":[],"stateMutability":"nonpayable","type":"function"},{"inputs":[{"internalType":"address","name":"owner","type":"address"}],"name":"balanceOf","outputs":[{"internalType":"uint256","name":"","type":"uint256"}],"stateMutability":"view","type":"function"},{"inputs":[{"internalType":"uint256","name":"proposalId","type":"uint256"}],"name":"contribute","outputs":[],"stateMutability":"payable","type":"function"},{"inputs":[{"internalType":"uint256","name":"","type":"uint256"},{"internalType":"address","name":"","type":"address"}],"name":"contributions","outputs":[{"internalType":"uint256","name":"","type":"uint256"}],"stateMutability":"view","type":"function"},{"inputs":[{"internalType":"string","name":"tokenURI","type":"string"}],"name":"createNFT","outputs":[{"internalType":"uint256","name":"","type":"uint256"}],"stateMutability":"nonpayable","type":"function"},{"inputs":[{"internalType":"uint256","name":"targetAmount","type":"uint256"},{"internalType":"uint256","name":"duration","type":"uint256"}],"name":"createProposal","outputs":[{"internalType":"uint256","name":"","type":"uint256"}],"stateMutability":"nonpayable","type":"function"},{"inputs":[{"internalType":"uint256","name":"targetAmount","type":"uint256"},{"internalType":"uint256","name":"duration","type":"uint256"},{"internalType":"string","name":"tokenURI","type":"string"}],"name":"createProposalwithNFT","outputs":[{"internalType":"uint256","name":"","type":"uint256"}],"stateMutability":"nonpayable","type":"function"},{"inputs":[{"internalType":"uint256","name":"tokenId","type":"uint256"}],"name":"getApproved","outputs":[{"internalType":"address","name":"","type":"address"}],"stateMutability":"view","type":"function"},{"inputs":[{"internalType":"address","name":"owner","type":"address"},{"internalType":"address","name":"operator","type":"address"}],"name":"isApprovedForAll","outputs":[{"internalType":"bool","name":"","type":"bool"}],"stateMutability":"view","type":"function"},{"inputs":[{"internalType":"uint256","name":"proposalId","type":"uint256"}],"name":"mintNFTForContributor","outputs":[],"stateMutability":"nonpayable","type":"function"},{"inputs":[],"name":"name","outputs":[{"internalType":"string","name":"","type":"string"}],"stateMutability":"view","type":"function"},{"inputs":[],"name":"owner","outputs":[{"internalType":"address","name":"","type":"address"}],"stateMutability":"view","type":"function"},{"inputs":[{"internalType":"uint256","name":"tokenId","type":"uint256"}],"name":"ownerOf","outputs":[{"internalType":"address","name":"","type":"address"}],"stateMutability":"view","type":"function"},{"inputs":[],"name":"proposalCounter","outputs":[{"internalType":"uint256","name":"","type":"uint256"}],"stateMutability":"view","type":"function"},{"inputs":[{"internalType":"uint256","name":"","type":"uint256"}],"name":"proposals","outputs":[{"internalType":"uint256","name":"id","type":"uint256"},{"internalType":"address payable","name":"creator","type":"address"},{"internalType":"uint256","name":"targetAmount","type":"uint256"},{"internalType":"uint256","name":"currentAmount","type":"uint256"},{"internalType":"uint256","name":"deadline","type":"uint256"},{"internalType":"bool","name":"approved","type":"bool"},{"internalType":"bool","name":"fundingSuccessful","type":"bool"},{"internalType":"bool","name":"fundsWithdrawn","type":"bool"}],"stateMutability":"view","type":"function"},{"inputs":[{"internalType":"uint256","name":"proposalId","type":"uint256"}],"name":"refund","outputs":[],"stateMutability":"nonpayable","type":"function"},{"inputs":[],"name":"renounceOwnership","outputs":[],"stateMutability":"nonpayable","type":"function"},{"inputs":[{"internalType":"address","name":"from","type":"address"},{"internalType":"address","name":"to","type":"address"},{"internalType":"uint256","name":"tokenId","type":"uint256"}],"name":"safeTransferFrom","outputs":[],"stateMutability":"nonpayable","type":"function"},{"inputs":[{"internalType":"address","name":"from","type":"address"},{"internalType":"address","name":"to","type":"address"},{"internalType":"uint256","name":"tokenId","type":"uint256"},{"internalType":"bytes","name":"data","type":"bytes"}],"name":"safeTransferFrom","outputs":[],"stateMutability":"nonpayable","type":"function"},{"inputs":[{"internalType":"address","name":"operator","type":"address"},{"internalType":"bool","name":"approved","type":"bool"}],"name":"setApprovalForAll","outputs":[],"stateMutability":"nonpayable","type":"function"},{"inputs":[{"internalType":"bytes4","name":"interfaceId","type":"bytes4"}],"name":"supportsInterface","outputs":[{"internalType":"bool","name":"","type":"bool"}],"stateMutability":"view","type":"function"},{"inputs":[],"name":"symbol","outputs":[{"internalType":"string","name":"","type":"string"}],"stateMutability":"view","type":"function"},{"inputs":[],"name":"tokenCounter","outputs":[{"internalType":"uint256","name":"","type":"uint256"}],"stateMutability":"view","type":"function"},{"inputs":[{"internalType":"uint256","name":"tokenId","type":"uint256"}],"name":"tokenURI","outputs":[{"internalType":"string","name":"","type":"string"}],"stateMutability":"view","type":"function"},{"inputs":[{"internalType":"address","name":"from","type":"address"},{"internalType":"address","name":"to","type":"address"},{"internalType":"uint256","name":"tokenId","type":"uint256"}],"name":"transferFrom","outputs":[],"stateMutability":"nonpayable","type":"function"},{"inputs":[{"internalType":"address","name":"newOwner","type":"address"}],"name":"transferOwnership","outputs":[],"stateMutability":"nonpayable","type":"function"},{"inputs":[{"internalType":"uint256","name":"proposalId","type":"uint256"}],"name":"withdrawFunds","outputs":[],"stateMutability":"nonpayable","type":"function"}],"evm":{"bytecode":{"linkReferences":{},"object":"60806040523480156200001157600080fd5b50336040518060400160405280600c81526020017f4e6173616166756e644e465400000000000000000000000000000000000000008152506040518060400160405280600581526020017f4e464e46540000000000000000000000000000000000000000000000000000008152508160009081620000909190620004bb565b508060019081620000a29190620004bb565b505050600073ffffffffffffffffffffffffffffffffffffffff168173ffffffffffffffffffffffffffffffffffffffff16036200011a5760006040517f1e4fbdf7000000000000000000000000000000000000000000000000000000008152600401620001119190620005e7565b60405180910390fd5b6200012b816200017b60201b60201c565b50600060078190555033600c60006101000a81548173ffffffffffffffffffffffffffffffffffffffff021916908373ffffffffffffffffffffffffffffffffffffffff16021790555062000604565b6000600660009054906101000a900473ffffffffffffffffffffffffffffffffffffffff16905081600660006101000a81548173ffffffffffffffffffffffffffffffffffffffff021916908373ffffffffffffffffffffffffffffffffffffffff1602179055508173ffffffffffffffffffffffffffffffffffffffff168173ffffffffffffffffffffffffffffffffffffffff167f8be0079c531659141344cd1fd0a4f28419497f9722a3daafe3b4186f6b6457e060405160405180910390a35050565b600081519050919050565b7f4e487b7100000000000000000000000000000000000000000000000000000000600052604160045260246000fd5b7f4e487b7100000000000000000000000000000000000000000000000000000000600052602260045260246000fd5b60006002820490506001821680620002c357607f821691505b602082108103620002d957620002d86200027b565b5b50919050565b60008190508160005260206000209050919050565b60006020601f8301049050919050565b600082821b905092915050565b600060088302620003437fffffffffffffffffffffffffffffffffffffffffffffffffffffffffffffffff8262000304565b6200034f868362000304565b95508019841693508086168417925050509392505050565b6000819050919050565b6000819050919050565b60006200039c62000396620003908462000367565b62000371565b62000367565b9050919050565b6000819050919050565b620003b8836200037b565b620003d0620003c782620003a3565b84845462000311565b825550505050565b600090565b620003e7620003d8565b620003f4818484620003ad565b505050565b5b818110156200041c5762000410600082620003dd565b600181019050620003fa565b5050565b601f8211156200046b576200043581620002df565b6200044084620002f4565b8101602085101562000450578190505b620004686200045f85620002f4565b830182620003f9565b50505b505050565b600082821c905092915050565b6000620004906000198460080262000470565b1980831691505092915050565b6000620004ab83836200047d565b9150826002028217905092915050565b620004c68262000241565b67ffffffffffffffff811115620004e257620004e16200024c565b5b620004ee8254620002aa565b620004fb82828562000420565b600060209050601f8311600181146200053357600084156200051e578287015190505b6200052a85826200049d565b8655506200059a565b601f1984166200054386620002df565b60005b828110156200056d5784890151825560018201915060208501945060208101905062000546565b868310156200058d578489015162000589601f8916826200047d565b8355505b6001600288020188555050505b505050505050565b600073ffffffffffffffffffffffffffffffffffffffff82169050919050565b6000620005cf82620005a2565b9050919050565b620005e181620005c2565b82525050565b6000602082019050620005fe6000830184620005d6565b92915050565b6139ba80620006146000396000f3fe6080604052600436106101c25760003560e01c806370a08231116100f7578063b9655c4511610095578063da2ed03e11610064578063da2ed03e1461066e578063e985e9c5146106ab578063f2fde38b146106e8578063f851a44014610711576101c2565b8063b9655c45146105c1578063c1cbbca7146105ea578063c87b56dd14610606578063d082e38114610643576101c2565b806395d89b41116100d157806395d89b411461051b57806398951b5614610546578063a22cb4651461056f578063b88d4fde14610598576101c2565b806370a082311461049c578063715018a6146104d95780638da5cb5b146104f0576101c2565b806323b872dd1161016457806342842e0e1161013e57806342842e0e146103bc57806346d7c9bf146103e55780636352211e146104225780636935bda61461045f576101c2565b806323b872dd1461032d578063278ecde1146103565780633d891f591461037f576101c2565b8063081812fc116101a0578063081812fc14610273578063095ea7b3146102b05780630c0512e9146102d9578063155dd5ee14610304576101c2565b8063013cf08b146101c757806301ffc9a71461020b57806306fdde0314610248575b600080fd5b3480156101d357600080fd5b506101ee60048036038101906101e99190612783565b61073c565b60405161020298979695949392919061281b565b60405180910390f35b34801561021757600080fd5b50610232600480360381019061022d91906128f1565b6107cb565b60405161023f919061291e565b60405180910390f35b34801561025457600080fd5b5061025d6108ad565b60405161026a91906129c9565b60405180910390f35b34801561027f57600080fd5b5061029a60048036038101906102959190612783565b61093f565b6040516102a79190612a0c565b60405180910390f35b3480156102bc57600080fd5b506102d760048036038101906102d29190612a53565b61095b565b005b3480156102e557600080fd5b506102ee610971565b6040516102fb9190612a93565b60405180910390f35b34801561031057600080fd5b5061032b60048036038101906103269190612783565b610977565b005b34801561033957600080fd5b50610354600480360381019061034f9190612aae565b610bc1565b005b34801561036257600080fd5b5061037d60048036038101906103789190612783565b610cc3565b005b34801561038b57600080fd5b506103a660048036038101906103a19190612b01565b610f08565b6040516103b39190612a93565b60405180910390f35b3480156103c857600080fd5b506103e360048036038101906103de9190612aae565b610f2d565b005b3480156103f157600080fd5b5061040c60048036038101906104079190612c76565b610f4d565b6040516104199190612a93565b60405180910390f35b34801561042e57600080fd5b5061044960048036038101906104449190612783565b610f71565b6040516104569190612a0c565b60405180910390f35b34801561046b57600080fd5b5061048660048036038101906104819190612ce5565b610f83565b6040516104939190612a93565b60405180910390f35b3480156104a857600080fd5b506104c360048036038101906104be9190612d25565b61113f565b6040516104d09190612a93565b60405180910390f35b3480156104e557600080fd5b506104ee6111f9565b005b3480156104fc57600080fd5b5061050561120d565b6040516105129190612a0c565b60405180910390f35b34801561052757600080fd5b50610530611237565b60405161053d91906129c9565b60405180910390f35b34801561055257600080fd5b5061056d60048036038101906105689190612783565b6112c9565b005b34801561057b57600080fd5b5061059660048036038101906105919190612d7e565b6113b8565b005b3480156105a457600080fd5b506105bf60048036038101906105ba9190612e5f565b6113ce565b005b3480156105cd57600080fd5b506105e860048036038101906105e39190612783565b6113eb565b005b61060460048036038101906105ff9190612783565b611523565b005b34801561061257600080fd5b5061062d60048036038101906106289190612783565b611780565b60405161063a91906129c9565b60405180910390f35b34801561064f57600080fd5b50610658611837565b6040516106659190612a93565b60405180910390f35b34801561067a57600080fd5b5061069560048036038101906106909190612ee2565b61183d565b6040516106a29190612a93565b60405180910390f35b3480156106b757600080fd5b506106d260048036038101906106cd9190612f2b565b6118bb565b6040516106df919061291e565b60405180910390f35b3480156106f457600080fd5b5061070f600480360381019061070a9190612d25565b61194f565b005b34801561071d57600080fd5b506107266119d5565b6040516107339190612a0c565b60405180910390f35b600a6020528060005260406000206000915090508060000154908060010160009054906101000a900473ffffffffffffffffffffffffffffffffffffffff16908060020154908060030154908060040154908060050160009054906101000a900460ff16908060050160019054906101000a900460ff16908060050160029054906101000a900460ff16905088565b60007f80ac58cd000000000000000000000000000000000000000000000000000000007bffffffffffffffffffffffffffffffffffffffffffffffffffffffff1916827bffffffffffffffffffffffffffffffffffffffffffffffffffffffff1916148061089657507f5b5e139f000000000000000000000000000000000000000000000000000000007bffffffffffffffffffffffffffffffffffffffffffffffffffffffff1916827bffffffffffffffffffffffffffffffffffffffffffffffffffffffff1916145b806108a657506108a5826119fb565b5b9050919050565b6060600080546108bc90612f9a565b80601f01602080910402602001604051908101604052809291908181526020018280546108e890612f9a565b80156109355780601f1061090a57610100808354040283529160200191610935565b820191906000526020600020905b81548152906001019060200180831161091857829003601f168201915b5050505050905090565b600061094a82611a65565b5061095482611aed565b9050919050565b61096d8282610968611b2a565b611b32565b5050565b60095481565b80600a600082815260200190815260200160002060010160009054906101000a900473ffffffffffffffffffffffffffffffffffffffff1673ffffffffffffffffffffffffffffffffffffffff163373ffffffffffffffffffffffffffffffffffffffff16146109e657600080fd5b600a600083815260200190815260200160002060050160019054906101000a900460ff16610a49576040517f08c379a0000000000000000000000000000000000000000000000000000000008152600401610a4090613017565b60405180910390fd5b600a600083815260200190815260200160002060050160029054906101000a900460ff1615610aad576040517f08c379a0000000000000000000000000000000000000000000000000000000008152600401610aa490613083565b60405180910390fd5b6001600a600084815260200190815260200160002060050160026101000a81548160ff021916908315150217905550600a600083815260200190815260200160002060010160009054906101000a900473ffffffffffffffffffffffffffffffffffffffff1673ffffffffffffffffffffffffffffffffffffffff166108fc600a6000858152602001908152602001600020600301549081150290604051600060405180830381858888f19350505050158015610b6e573d6000803e3d6000fd5b50817fd66662c0ded9e58fd31d5e44944bcfd07ffc15e6927ecc1382e7941cb7bd24c4600a600085815260200190815260200160002060030154604051610bb59190612a93565b60405180910390a25050565b600073ffffffffffffffffffffffffffffffffffffffff168273ffffffffffffffffffffffffffffffffffffffff1603610c335760006040517f64a0ae92000000000000000000000000000000000000000000000000000000008152600401610c2a9190612a0c565b60405180910390fd5b6000610c478383610c42611b2a565b611b44565b90508373ffffffffffffffffffffffffffffffffffffffff168173ffffffffffffffffffffffffffffffffffffffff1614610cbd578382826040517f64283d7b000000000000000000000000000000000000000000000000000000008152600401610cb4939291906130a3565b60405180910390fd5b50505050565b600a6000828152602001908152602001600020600401544211610d1b576040517f08c379a0000000000000000000000000000000000000000000000000000000008152600401610d1290613126565b60405180910390fd5b600a600082815260200190815260200160002060050160019054906101000a900460ff1615610d7f576040517f08c379a0000000000000000000000000000000000000000000000000000000008152600401610d7690613192565b60405180910390fd5b6000600b600083815260200190815260200160002060003373ffffffffffffffffffffffffffffffffffffffff1673ffffffffffffffffffffffffffffffffffffffff1681526020019081526020016000205411610e12576040517f08c379a0000000000000000000000000000000000000000000000000000000008152600401610e0990613224565b60405180910390fd5b6000600b600083815260200190815260200160002060003373ffffffffffffffffffffffffffffffffffffffff1673ffffffffffffffffffffffffffffffffffffffff1681526020019081526020016000205490506000600b600084815260200190815260200160002060003373ffffffffffffffffffffffffffffffffffffffff1673ffffffffffffffffffffffffffffffffffffffff168152602001908152602001600020819055503373ffffffffffffffffffffffffffffffffffffffff166108fc829081150290604051600060405180830381858888f19350505050158015610f03573d6000803e3d6000fd5b505050565b600b602052816000526040600020602052806000526040600020600091509150505481565b610f48838383604051806020016040528060008152506113ce565b505050565b600080610f5a8585610f83565b9050610f658361183d565b50809150509392505050565b6000610f7c82611a65565b9050919050565b600060096000815480929190610f9890613273565b919050555060405180610100016040528060095481526020013373ffffffffffffffffffffffffffffffffffffffff168152602001848152602001600081526020018342610fe691906132bb565b815260200160001515815260200160001515815260200160001515815250600a600060095481526020019081526020016000206000820151816000015560208201518160010160006101000a81548173ffffffffffffffffffffffffffffffffffffffff021916908373ffffffffffffffffffffffffffffffffffffffff16021790555060408201518160020155606082015181600301556080820151816004015560a08201518160050160006101000a81548160ff02191690831515021790555060c08201518160050160016101000a81548160ff02191690831515021790555060e08201518160050160026101000a81548160ff0219169083151502179055509050506009547fd38d9a9a102af286aea1cbcadb8aab8446a90859626389db3710ed4fea4c2c393385854261111d91906132bb565b60405161112c939291906132ef565b60405180910390a2600954905092915050565b60008073ffffffffffffffffffffffffffffffffffffffff168273ffffffffffffffffffffffffffffffffffffffff16036111b25760006040517f89c62b640000000000000000000000000000000000000000000000000000000081526004016111a99190612a0c565b60405180910390fd5b600360008373ffffffffffffffffffffffffffffffffffffffff1673ffffffffffffffffffffffffffffffffffffffff168152602001908152602001600020549050919050565b611201611d5e565b61120b6000611de5565b565b6000600660009054906101000a900473ffffffffffffffffffffffffffffffffffffffff16905090565b60606001805461124690612f9a565b80601f016020809104026020016040519081016040528092919081815260200182805461127290612f9a565b80156112bf5780601f10611294576101008083540402835291602001916112bf565b820191906000526020600020905b8154815290600101906020018083116112a257829003601f168201915b5050505050905090565b600c60009054906101000a900473ffffffffffffffffffffffffffffffffffffffff1673ffffffffffffffffffffffffffffffffffffffff163373ffffffffffffffffffffffffffffffffffffffff1614611359576040517f08c379a000000000000000000000000000000000000000000000000000000000815260040161135090613398565b60405180910390fd5b6001600a600083815260200190815260200160002060050160006101000a81548160ff021916908315150217905550807f28ec9e38ba73636ceb2f6c1574136f83bd46284a3c74734b711bf45e12f8d92960405160405180910390a250565b6113ca6113c3611b2a565b8383611eab565b5050565b6113d9848484610bc1565b6113e58484848461201a565b50505050565b600a600082815260200190815260200160002060050160019054906101000a900460ff1661144e576040517f08c379a000000000000000000000000000000000000000000000000000000000815260040161144590613017565b60405180910390fd5b6000600b600083815260200190815260200160002060003373ffffffffffffffffffffffffffffffffffffffff1673ffffffffffffffffffffffffffffffffffffffff16815260200190815260200160002054116114e1576040517f08c379a00000000000000000000000000000000000000000000000000000000081526004016114d890613404565b60405180910390fd5b61151f6040518060400160405280600a81526020017f697066733a2f2f4349440000000000000000000000000000000000000000000081525061183d565b5050565b600a600082815260200190815260200160002060050160009054906101000a900460ff16611586576040517f08c379a000000000000000000000000000000000000000000000000000000000815260040161157d90613470565b60405180910390fd5b600a60008281526020019081526020016000206004015442106115de576040517f08c379a00000000000000000000000000000000000000000000000000000000081526004016115d5906134dc565b60405180910390fd5b600a600082815260200190815260200160002060020154600a6000838152602001908152602001600020600301541061164c576040517f08c379a000000000000000000000000000000000000000000000000000000000815260040161164390613548565b60405180910390fd5b34600b600083815260200190815260200160002060003373ffffffffffffffffffffffffffffffffffffffff1673ffffffffffffffffffffffffffffffffffffffff16815260200190815260200160002060008282546116ac91906132bb565b9250508190555034600a600083815260200190815260200160002060030160008282546116d991906132bb565b92505081905550807f0a4a91237423e0a1766a761c7cb029311d8b95d6b1b81db1b949a70c98b4e08e3334604051611712929190613568565b60405180910390a2600a600082815260200190815260200160002060020154600a6000838152602001908152602001600020600301541061177d576001600a600083815260200190815260200160002060050160016101000a81548160ff0219169083151502179055505b50565b606061178b826121d1565b61179457600080fd5b6008600083815260200190815260200160002080546117b290612f9a565b80601f01602080910402602001604051908101604052809291908181526020018280546117de90612f9a565b801561182b5780601f106118005761010080835404028352916020019161182b565b820191906000526020600020905b81548152906001019060200180831161180e57829003601f168201915b50505050509050919050565b60075481565b6000611847611d5e565b600060075490506118583382612212565b6118628184612230565b6007600081548092919061187590613273565b9190505550807fe883eeefa7f620d513eac93479fc9f54ce03f9f4a72c0d818311a9d19556e879846040516118aa91906129c9565b60405180910390a280915050919050565b6000600560008473ffffffffffffffffffffffffffffffffffffffff1673ffffffffffffffffffffffffffffffffffffffff16815260200190815260200160002060008373ffffffffffffffffffffffffffffffffffffffff1673ffffffffffffffffffffffffffffffffffffffff16815260200190815260200160002060009054906101000a900460ff16905092915050565b611957611d5e565b600073ffffffffffffffffffffffffffffffffffffffff168173ffffffffffffffffffffffffffffffffffffffff16036119c95760006040517f1e4fbdf70000000000000000000000000000000000000000000000000000000081526004016119c09190612a0c565b60405180910390fd5b6119d281611de5565b50565b600c60009054906101000a900473ffffffffffffffffffffffffffffffffffffffff1681565b60007f01ffc9a7000000000000000000000000000000000000000000000000000000007bffffffffffffffffffffffffffffffffffffffffffffffffffffffff1916827bffffffffffffffffffffffffffffffffffffffffffffffffffffffff1916149050919050565b600080611a718361229d565b9050600073ffffffffffffffffffffffffffffffffffffffff168173ffffffffffffffffffffffffffffffffffffffff1603611ae457826040517f7e273289000000000000000000000000000000000000000000000000000000008152600401611adb9190612a93565b60405180910390fd5b80915050919050565b60006004600083815260200190815260200160002060009054906101000a900473ffffffffffffffffffffffffffffffffffffffff169050919050565b600033905090565b611b3f83838360016122da565b505050565b600080611b508461229d565b9050600073ffffffffffffffffffffffffffffffffffffffff168373ffffffffffffffffffffffffffffffffffffffff1614611b9257611b9181848661249f565b5b600073ffffffffffffffffffffffffffffffffffffffff168173ffffffffffffffffffffffffffffffffffffffff1614611c2357611bd46000856000806122da565b6001600360008373ffffffffffffffffffffffffffffffffffffffff1673ffffffffffffffffffffffffffffffffffffffff168152602001908152602001600020600082825403925050819055505b600073ffffffffffffffffffffffffffffffffffffffff168573ffffffffffffffffffffffffffffffffffffffff1614611ca6576001600360008773ffffffffffffffffffffffffffffffffffffffff1673ffffffffffffffffffffffffffffffffffffffff168152602001908152602001600020600082825401925050819055505b846002600086815260200190815260200160002060006101000a81548173ffffffffffffffffffffffffffffffffffffffff021916908373ffffffffffffffffffffffffffffffffffffffff160217905550838573ffffffffffffffffffffffffffffffffffffffff168273ffffffffffffffffffffffffffffffffffffffff167fddf252ad1be2c89b69c2b068fc378daa952ba7f163c4a11628f55a4df523b3ef60405160405180910390a4809150509392505050565b611d66611b2a565b73ffffffffffffffffffffffffffffffffffffffff16611d8461120d565b73ffffffffffffffffffffffffffffffffffffffff1614611de357611da7611b2a565b6040517f118cdaa7000000000000000000000000000000000000000000000000000000008152600401611dda9190612a0c565b60405180910390fd5b565b6000600660009054906101000a900473ffffffffffffffffffffffffffffffffffffffff16905081600660006101000a81548173ffffffffffffffffffffffffffffffffffffffff021916908373ffffffffffffffffffffffffffffffffffffffff1602179055508173ffffffffffffffffffffffffffffffffffffffff168173ffffffffffffffffffffffffffffffffffffffff167f8be0079c531659141344cd1fd0a4f28419497f9722a3daafe3b4186f6b6457e060405160405180910390a35050565b600073ffffffffffffffffffffffffffffffffffffffff168273ffffffffffffffffffffffffffffffffffffffff1603611f1c57816040517f5b08ba18000000000000000000000000000000000000000000000000000000008152600401611f139190612a0c565b60405180910390fd5b80600560008573ffffffffffffffffffffffffffffffffffffffff1673ffffffffffffffffffffffffffffffffffffffff16815260200190815260200160002060008473ffffffffffffffffffffffffffffffffffffffff1673ffffffffffffffffffffffffffffffffffffffff16815260200190815260200160002060006101000a81548160ff0219169083151502179055508173ffffffffffffffffffffffffffffffffffffffff168373ffffffffffffffffffffffffffffffffffffffff167f17307eab39ab6107e8899845ad3d59bd9653f200f220920489ca2b5937696c318360405161200d919061291e565b60405180910390a3505050565b60008373ffffffffffffffffffffffffffffffffffffffff163b11156121cb578273ffffffffffffffffffffffffffffffffffffffff1663150b7a0261205e611b2a565b8685856040518563ffffffff1660e01b815260040161208094939291906135e6565b6020604051808303816000875af19250505080156120bc57506040513d601f19601f820116820180604052508101906120b99190613647565b60015b612140573d80600081146120ec576040519150601f19603f3d011682016040523d82523d6000602084013e6120f1565b606091505b50600081510361213857836040517f64a0ae9200000000000000000000000000000000000000000000000000000000815260040161212f9190612a0c565b60405180910390fd5b805181602001fd5b63150b7a0260e01b7bffffffffffffffffffffffffffffffffffffffffffffffffffffffff1916817bffffffffffffffffffffffffffffffffffffffffffffffffffffffff1916146121c957836040517f64a0ae920000000000000000000000000000000000000000000000000000000081526004016121c09190612a0c565b60405180910390fd5b505b50505050565b60008073ffffffffffffffffffffffffffffffffffffffff166121f38361229d565b73ffffffffffffffffffffffffffffffffffffffff1614159050919050565b61222c828260405180602001604052806000815250612563565b5050565b612239826121d1565b612278576040517f08c379a000000000000000000000000000000000000000000000000000000000815260040161226f906136e6565b60405180910390fd5b8060086000848152602001908152602001600020908161229891906138b2565b505050565b60006002600083815260200190815260200160002060009054906101000a900473ffffffffffffffffffffffffffffffffffffffff169050919050565b80806123135750600073ffffffffffffffffffffffffffffffffffffffff168273ffffffffffffffffffffffffffffffffffffffff1614155b1561244757600061232384611a65565b9050600073ffffffffffffffffffffffffffffffffffffffff168373ffffffffffffffffffffffffffffffffffffffff161415801561238e57508273ffffffffffffffffffffffffffffffffffffffff168173ffffffffffffffffffffffffffffffffffffffff1614155b80156123a1575061239f81846118bb565b155b156123e357826040517fa9fbf51f0000000000000000000000000000000000000000000000000000000081526004016123da9190612a0c565b60405180910390fd5b811561244557838573ffffffffffffffffffffffffffffffffffffffff168273ffffffffffffffffffffffffffffffffffffffff167f8c5be1e5ebec7d5bd14f71427d1e84f3dd0314c0f7b2291e5b200ac8c7c3b92560405160405180910390a45b505b836004600085815260200190815260200160002060006101000a81548173ffffffffffffffffffffffffffffffffffffffff021916908373ffffffffffffffffffffffffffffffffffffffff16021790555050505050565b6124aa83838361257f565b61255e57600073ffffffffffffffffffffffffffffffffffffffff168373ffffffffffffffffffffffffffffffffffffffff160361251f57806040517f7e2732890000000000000000000000000000000000000000000000000000000081526004016125169190612a93565b60405180910390fd5b81816040517f177e802f000000000000000000000000000000000000000000000000000000008152600401612555929190613568565b60405180910390fd5b505050565b61256d8383612640565b61257a600084848461201a565b505050565b60008073ffffffffffffffffffffffffffffffffffffffff168373ffffffffffffffffffffffffffffffffffffffff161415801561263757508273ffffffffffffffffffffffffffffffffffffffff168473ffffffffffffffffffffffffffffffffffffffff1614806125f857506125f784846118bb565b5b8061263657508273ffffffffffffffffffffffffffffffffffffffff1661261e83611aed565b73ffffffffffffffffffffffffffffffffffffffff16145b5b90509392505050565b600073ffffffffffffffffffffffffffffffffffffffff168273ffffffffffffffffffffffffffffffffffffffff16036126b25760006040517f64a0ae920000000000000000000000000000000000000000000000000000000081526004016126a99190612a0c565b60405180910390fd5b60006126c083836000611b44565b9050600073ffffffffffffffffffffffffffffffffffffffff168173ffffffffffffffffffffffffffffffffffffffff16146127345760006040517f73c6ac6e00000000000000000000000000000000000000000000000000000000815260040161272b9190612a0c565b60405180910390fd5b505050565b6000604051905090565b600080fd5b600080fd5b6000819050919050565b6127608161274d565b811461276b57600080fd5b50565b60008135905061277d81612757565b92915050565b60006020828403121561279957612798612743565b5b60006127a78482850161276e565b91505092915050565b6127b98161274d565b82525050565b600073ffffffffffffffffffffffffffffffffffffffff82169050919050565b60006127ea826127bf565b9050919050565b6127fa816127df565b82525050565b60008115159050919050565b61281581612800565b82525050565b600061010082019050612831600083018b6127b0565b61283e602083018a6127f1565b61284b60408301896127b0565b61285860608301886127b0565b61286560808301876127b0565b61287260a083018661280c565b61287f60c083018561280c565b61288c60e083018461280c565b9998505050505050505050565b60007fffffffff0000000000000000000000000000000000000000000000000000000082169050919050565b6128ce81612899565b81146128d957600080fd5b50565b6000813590506128eb816128c5565b92915050565b60006020828403121561290757612906612743565b5b6000612915848285016128dc565b91505092915050565b6000602082019050612933600083018461280c565b92915050565b600081519050919050565b600082825260208201905092915050565b60005b83811015612973578082015181840152602081019050612958565b60008484015250505050565b6000601f19601f8301169050919050565b600061299b82612939565b6129a58185612944565b93506129b5818560208601612955565b6129be8161297f565b840191505092915050565b600060208201905081810360008301526129e38184612990565b905092915050565b60006129f6826127bf565b9050919050565b612a06816129eb565b82525050565b6000602082019050612a2160008301846129fd565b92915050565b612a30816129eb565b8114612a3b57600080fd5b50565b600081359050612a4d81612a27565b92915050565b60008060408385031215612a6a57612a69612743565b5b6000612a7885828601612a3e565b9250506020612a898582860161276e565b9150509250929050565b6000602082019050612aa860008301846127b0565b92915050565b600080600060608486031215612ac757612ac6612743565b5b6000612ad586828701612a3e565b9350506020612ae686828701612a3e565b9250506040612af78682870161276e565b9150509250925092565b60008060408385031215612b1857612b17612743565b5b6000612b268582860161276e565b9250506020612b3785828601612a3e565b9150509250929050565b600080fd5b600080fd5b7f4e487b7100000000000000000000000000000000000000000000000000000000600052604160045260246000fd5b612b838261297f565b810181811067ffffffffffffffff82111715612ba257612ba1612b4b565b5b80604052505050565b6000612bb5612739565b9050612bc18282612b7a565b919050565b600067ffffffffffffffff821115612be157612be0612b4b565b5b612bea8261297f565b9050602081019050919050565b82818337600083830152505050565b6000612c19612c1484612bc6565b612bab565b905082815260208101848484011115612c3557612c34612b46565b5b612c40848285612bf7565b509392505050565b600082601f830112612c5d57612c5c612b41565b5b8135612c6d848260208601612c06565b91505092915050565b600080600060608486031215612c8f57612c8e612743565b5b6000612c9d8682870161276e565b9350506020612cae8682870161276e565b925050604084013567ffffffffffffffff811115612ccf57612cce612748565b5b612cdb86828701612c48565b9150509250925092565b60008060408385031215612cfc57612cfb612743565b5b6000612d0a8582860161276e565b9250506020612d1b8582860161276e565b9150509250929050565b600060208284031215612d3b57612d3a612743565b5b6000612d4984828501612a3e565b91505092915050565b612d5b81612800565b8114612d6657600080fd5b50565b600081359050612d7881612d52565b92915050565b60008060408385031215612d9557612d94612743565b5b6000612da385828601612a3e565b9250506020612db485828601612d69565b9150509250929050565b600067ffffffffffffffff821115612dd957612dd8612b4b565b5b612de28261297f565b9050602081019050919050565b6000612e02612dfd84612dbe565b612bab565b905082815260208101848484011115612e1e57612e1d612b46565b5b612e29848285612bf7565b509392505050565b600082601f830112612e4657612e45612b41565b5b8135612e56848260208601612def565b91505092915050565b60008060008060808587031215612e7957612e78612743565b5b6000612e8787828801612a3e565b9450506020612e9887828801612a3e565b9350506040612ea98782880161276e565b925050606085013567ffffffffffffffff811115612eca57612ec9612748565b5b612ed687828801612e31565b91505092959194509250565b600060208284031215612ef857612ef7612743565b5b600082013567ffffffffffffffff811115612f1657612f15612748565b5b612f2284828501612c48565b91505092915050565b60008060408385031215612f4257612f41612743565b5b6000612f5085828601612a3e565b9250506020612f6185828601612a3e565b9150509250929050565b7f4e487b7100000000000000000000000000000000000000000000000000000000600052602260045260246000fd5b60006002820490506001821680612fb257607f821691505b602082108103612fc557612fc4612f6b565b5b50919050565b7f46756e64696e67206e6f74207375636365737366756c00000000000000000000600082015250565b6000613001601683612944565b915061300c82612fcb565b602082019050919050565b6000602082019050818103600083015261303081612ff4565b9050919050565b7f46756e647320616c72656164792077697468647261776e000000000000000000600082015250565b600061306d601783612944565b915061307882613037565b602082019050919050565b6000602082019050818103600083015261309c81613060565b9050919050565b60006060820190506130b860008301866129fd565b6130c560208301856127b0565b6130d260408301846129fd565b949350505050565b7f46756e64696e6720706572696f64206973206f76657200000000000000000000600082015250565b6000613110601683612944565b915061311b826130da565b602082019050919050565b6000602082019050818103600083015261313f81613103565b9050919050565b7f46756e64696e6720776173207375636365737366756c6c000000000000000000600082015250565b600061317c601783612944565b915061318782613146565b602082019050919050565b600060208201905081810360008301526131ab8161316f565b9050919050565b7f4e6f20636f6e747269627574696f6e206d61646520627920207468697320616460008201527f6472657373000000000000000000000000000000000000000000000000000000602082015250565b600061320e602583612944565b9150613219826131b2565b604082019050919050565b6000602082019050818103600083015261323d81613201565b9050919050565b7f4e487b7100000000000000000000000000000000000000000000000000000000600052601160045260246000fd5b600061327e8261274d565b91507fffffffffffffffffffffffffffffffffffffffffffffffffffffffffffffffff82036132b0576132af613244565b5b600182019050919050565b60006132c68261274d565b91506132d18361274d565b92508282019050808211156132e9576132e8613244565b5b92915050565b600060608201905061330460008301866129fd565b61331160208301856127b0565b61331e60408301846127b0565b949350505050565b7f4f6e6c792061646d696e2063616e20706572666f726d2074686973206163746960008201527f6f6e000000000000000000000000000000000000000000000000000000000000602082015250565b6000613382602283612944565b915061338d82613326565b604082019050919050565b600060208201905081810360008301526133b181613375565b9050919050565b7f4e6f20636f6e747269627574696f6e206d616465000000000000000000000000600082015250565b60006133ee601483612944565b91506133f9826133b8565b602082019050919050565b6000602082019050818103600083015261341d816133e1565b9050919050565b7f50726f706f73616c206973206e6f7420617070726f7665640000000000000000600082015250565b600061345a601883612944565b915061346582613424565b602082019050919050565b600060208201905081810360008301526134898161344d565b9050919050565b7f50726f706f73616c20646561646c696e65206861732070617373656400000000600082015250565b60006134c6601c83612944565b91506134d182613490565b602082019050919050565b600060208201905081810360008301526134f5816134b9565b9050919050565b7f54617267657420616d6f756e7420726561636865640000000000000000000000600082015250565b6000613532601583612944565b915061353d826134fc565b602082019050919050565b6000602082019050818103600083015261356181613525565b9050919050565b600060408201905061357d60008301856129fd565b61358a60208301846127b0565b9392505050565b600081519050919050565b600082825260208201905092915050565b60006135b882613591565b6135c2818561359c565b93506135d2818560208601612955565b6135db8161297f565b840191505092915050565b60006080820190506135fb60008301876129fd565b61360860208301866129fd565b61361560408301856127b0565b818103606083015261362781846135ad565b905095945050505050565b600081519050613641816128c5565b92915050565b60006020828403121561365d5761365c612743565b5b600061366b84828501613632565b91505092915050565b7f4552433732314d657461646174613a2055524920736574206f66206e6f6e657860008201527f697374656e7420746f6b656e0000000000000000000000000000000000000000602082015250565b60006136d0602c83612944565b91506136db82613674565b604082019050919050565b600060208201905081810360008301526136ff816136c3565b9050919050565b60008190508160005260206000209050919050565b60006020601f8301049050919050565b600082821b905092915050565b6000600883026137687fffffffffffffffffffffffffffffffffffffffffffffffffffffffffffffffff8261372b565b613772868361372b565b95508019841693508086168417925050509392505050565b6000819050919050565b60006137af6137aa6137a58461274d565b61378a565b61274d565b9050919050565b6000819050919050565b6137c983613794565b6137dd6137d5826137b6565b848454613738565b825550505050565b600090565b6137f26137e5565b6137fd8184846137c0565b505050565b5b81811015613821576138166000826137ea565b600181019050613803565b5050565b601f8211156138665761383781613706565b6138408461371b565b8101602085101561384f578190505b61386361385b8561371b565b830182613802565b50505b505050565b600082821c905092915050565b60006138896000198460080261386b565b1980831691505092915050565b60006138a28383613878565b9150826002028217905092915050565b6138bb82612939565b67ffffffffffffffff8111156138d4576138d3612b4b565b5b6138de8254612f9a565b6138e9828285613825565b600060209050601f83116001811461391c576000841561390a578287015190505b6139148582613896565b86555061397c565b601f19841661392a86613706565b60005b828110156139525784890151825560018201915060208501945060208101905061392d565b8683101561396f578489015161396b601f891682613878565b8355505b6001600288020188555050505b50505050505056fea2646970667358221220ea9022eb16f70044c747b649a40eb69230f7518a8835a32f3e9169b4a406655664736f6c63430008170033","opcodes":"PUSH1 0x80 PUSH1 0x40 MSTORE CALLVALUE DUP1 ISZERO PUSH3 0x11 JUMPI PUSH1 0x0 DUP1 REVERT JUMPDEST POP CALLER PUSH1 0x40 MLOAD DUP1 PUSH1 0x40 ADD PUSH1 0x40 MSTORE DUP1 PUSH1 0xC DUP2 MSTORE PUSH1 0x20 ADD PUSH32 0x4E6173616166756E644E46540000000000000000000000000000000000000000 DUP2 MSTORE POP PUSH1 0x40 MLOAD DUP1 PUSH1 0x40 ADD PUSH1 0x40 MSTORE DUP1 PUSH1 0x5 DUP2 MSTORE PUSH1 0x20 ADD PUSH32 0x4E464E4654000000000000000000000000000000000000000000000000000000 DUP2 MSTORE POP DUP2 PUSH1 0x0 SWAP1 DUP2 PUSH3 0x90 SWAP2 SWAP1 PUSH3 0x4BB JUMP JUMPDEST POP DUP1 PUSH1 0x1 SWAP1 DUP2 PUSH3 0xA2 SWAP2 SWAP1 PUSH3 0x4BB JUMP JUMPDEST POP POP POP PUSH1 0x0 PUSH20 0xFFFFFFFFFFFFFFFFFFFFFFFFFFFFFFFFFFFFFFFF AND DUP2 PUSH20 0xFFFFFFFFFFFFFFFFFFFFFFFFFFFFFFFFFFFFFFFF AND SUB PUSH3 0x11A JUMPI PUSH1 0x0 PUSH1 0x40 MLOAD PUSH32 0x1E4FBDF700000000000000000000000000000000000000000000000000000000 DUP2 MSTORE PUSH1 0x4 ADD PUSH3 0x111 SWAP2 SWAP1 PUSH3 0x5E7 JUMP JUMPDEST PUSH1 0x40 MLOAD DUP1 SWAP2 SUB SWAP1 REVERT JUMPDEST PUSH3 0x12B DUP2 PUSH3 0x17B PUSH1 0x20 SHL PUSH1 0x20 SHR JUMP JUMPDEST POP PUSH1 0x0 PUSH1 0x7 DUP2 SWAP1 SSTORE POP CALLER PUSH1 0xC PUSH1 0x0 PUSH2 0x100 EXP DUP2 SLOAD DUP2 PUSH20 0xFFFFFFFFFFFFFFFFFFFFFFFFFFFFFFFFFFFFFFFF MUL NOT AND SWAP1 DUP4 PUSH20 0xFFFFFFFFFFFFFFFFFFFFFFFFFFFFFFFFFFFFFFFF AND MUL OR SWAP1 SSTORE POP PUSH3 0x604 JUMP JUMPDEST PUSH1 0x0 PUSH1 0x6 PUSH1 0x0 SWAP1 SLOAD SWAP1 PUSH2 0x100 EXP SWAP1 DIV PUSH20 0xFFFFFFFFFFFFFFFFFFFFFFFFFFFFFFFFFFFFFFFF AND SWAP1 POP DUP2 PUSH1 0x6 PUSH1 0x0 PUSH2 0x100 EXP DUP2 SLOAD DUP2 PUSH20 0xFFFFFFFFFFFFFFFFFFFFFFFFFFFFFFFFFFFFFFFF MUL NOT AND SWAP1 DUP4 PUSH20 0xFFFFFFFFFFFFFFFFFFFFFFFFFFFFFFFFFFFFFFFF AND MUL OR SWAP1 SSTORE POP DUP2 PUSH20 0xFFFFFFFFFFFFFFFFFFFFFFFFFFFFFFFFFFFFFFFF AND DUP2 PUSH20 0xFFFFFFFFFFFFFFFFFFFFFFFFFFFFFFFFFFFFFFFF AND PUSH32 0x8BE0079C531659141344CD1FD0A4F28419497F9722A3DAAFE3B4186F6B6457E0 PUSH1 0x40 MLOAD PUSH1 0x40 MLOAD DUP1 SWAP2 SUB SWAP1 LOG3 POP POP JUMP JUMPDEST PUSH1 0x0 DUP2 MLOAD SWAP1 POP SWAP2 SWAP1 POP JUMP JUMPDEST PUSH32 0x4E487B7100000000000000000000000000000000000000000000000000000000 PUSH1 0x0 MSTORE PUSH1 0x41 PUSH1 0x4 MSTORE PUSH1 0x24 PUSH1 0x0 REVERT JUMPDEST PUSH32 0x4E487B7100000000000000000000000000000000000000000000000000000000 PUSH1 0x0 MSTORE PUSH1 0x22 PUSH1 0x4 MSTORE PUSH1 0x24 PUSH1 0x0 REVERT JUMPDEST PUSH1 0x0 PUSH1 0x2 DUP3 DIV SWAP1 POP PUSH1 0x1 DUP3 AND DUP1 PUSH3 0x2C3 JUMPI PUSH1 0x7F DUP3 AND SWAP2 POP JUMPDEST PUSH1 0x20 DUP3 LT DUP2 SUB PUSH3 0x2D9 JUMPI PUSH3 0x2D8 PUSH3 0x27B JUMP JUMPDEST JUMPDEST POP SWAP2 SWAP1 POP JUMP JUMPDEST PUSH1 0x0 DUP2 SWAP1 POP DUP2 PUSH1 0x0 MSTORE PUSH1 0x20 PUSH1 0x0 KECCAK256 SWAP1 POP SWAP2 SWAP1 POP JUMP JUMPDEST PUSH1 0x0 PUSH1 0x20 PUSH1 0x1F DUP4 ADD DIV SWAP1 POP SWAP2 SWAP1 POP JUMP JUMPDEST PUSH1 0x0 DUP3 DUP3 SHL SWAP1 POP SWAP3 SWAP2 POP POP JUMP JUMPDEST PUSH1 0x0 PUSH1 0x8 DUP4 MUL PUSH3 0x343 PUSH32 0xFFFFFFFFFFFFFFFFFFFFFFFFFFFFFFFFFFFFFFFFFFFFFFFFFFFFFFFFFFFFFFFF DUP3 PUSH3 0x304 JUMP JUMPDEST PUSH3 0x34F DUP7 DUP4 PUSH3 0x304 JUMP JUMPDEST SWAP6 POP DUP1 NOT DUP5 AND SWAP4 POP DUP1 DUP7 AND DUP5 OR SWAP3 POP POP POP SWAP4 SWAP3 POP POP POP JUMP JUMPDEST PUSH1 0x0 DUP2 SWAP1 POP SWAP2 SWAP1 POP JUMP JUMPDEST PUSH1 0x0 DUP2 SWAP1 POP SWAP2 SWAP1 POP JUMP JUMPDEST PUSH1 0x0 PUSH3 0x39C PUSH3 0x396 PUSH3 0x390 DUP5 PUSH3 0x367 JUMP JUMPDEST PUSH3 0x371 JUMP JUMPDEST PUSH3 0x367 JUMP JUMPDEST SWAP1 POP SWAP2 SWAP1 POP JUMP JUMPDEST PUSH1 0x0 DUP2 SWAP1 POP SWAP2 SWAP1 POP JUMP JUMPDEST PUSH3 0x3B8 DUP4 PUSH3 0x37B JUMP JUMPDEST PUSH3 0x3D0 PUSH3 0x3C7 DUP3 PUSH3 0x3A3 JUMP JUMPDEST DUP5 DUP5 SLOAD PUSH3 0x311 JUMP JUMPDEST DUP3 SSTORE POP POP POP POP JUMP JUMPDEST PUSH1 0x0 SWAP1 JUMP JUMPDEST PUSH3 0x3E7 PUSH3 0x3D8 JUMP JUMPDEST PUSH3 0x3F4 DUP2 DUP5 DUP5 PUSH3 0x3AD JUMP JUMPDEST POP POP POP JUMP JUMPDEST JUMPDEST DUP2 DUP2 LT ISZERO PUSH3 0x41C JUMPI PUSH3 0x410 PUSH1 0x0 DUP3 PUSH3 0x3DD JUMP JUMPDEST PUSH1 0x1 DUP2 ADD SWAP1 POP PUSH3 0x3FA JUMP JUMPDEST POP POP JUMP JUMPDEST PUSH1 0x1F DUP3 GT ISZERO PUSH3 0x46B JUMPI PUSH3 0x435 DUP2 PUSH3 0x2DF JUMP JUMPDEST PUSH3 0x440 DUP5 PUSH3 0x2F4 JUMP JUMPDEST DUP2 ADD PUSH1 0x20 DUP6 LT ISZERO PUSH3 0x450 JUMPI DUP2 SWAP1 POP JUMPDEST PUSH3 0x468 PUSH3 0x45F DUP6 PUSH3 0x2F4 JUMP JUMPDEST DUP4 ADD DUP3 PUSH3 0x3F9 JUMP JUMPDEST POP POP JUMPDEST POP POP POP JUMP JUMPDEST PUSH1 0x0 DUP3 DUP3 SHR SWAP1 POP SWAP3 SWAP2 POP POP JUMP JUMPDEST PUSH1 0x0 PUSH3 0x490 PUSH1 0x0 NOT DUP5 PUSH1 0x8 MUL PUSH3 0x470 JUMP JUMPDEST NOT DUP1 DUP4 AND SWAP2 POP POP SWAP3 SWAP2 POP POP JUMP JUMPDEST PUSH1 0x0 PUSH3 0x4AB DUP4 DUP4 PUSH3 0x47D JUMP JUMPDEST SWAP2 POP DUP3 PUSH1 0x2 MUL DUP3 OR SWAP1 POP SWAP3 SWAP2 POP POP JUMP JUMPDEST PUSH3 0x4C6 DUP3 PUSH3 0x241 JUMP JUMPDEST PUSH8 0xFFFFFFFFFFFFFFFF DUP2 GT ISZERO PUSH3 0x4E2 JUMPI PUSH3 0x4E1 PUSH3 0x24C JUMP JUMPDEST JUMPDEST PUSH3 0x4EE DUP3 SLOAD PUSH3 0x2AA JUMP JUMPDEST PUSH3 0x4FB DUP3 DUP3 DUP6 PUSH3 0x420 JUMP JUMPDEST PUSH1 0x0 PUSH1 0x20 SWAP1 POP PUSH1 0x1F DUP4 GT PUSH1 0x1 DUP2 EQ PUSH3 0x533 JUMPI PUSH1 0x0 DUP5 ISZERO PUSH3 0x51E JUMPI DUP3 DUP8 ADD MLOAD SWAP1 POP JUMPDEST PUSH3 0x52A DUP6 DUP3 PUSH3 0x49D JUMP JUMPDEST DUP7 SSTORE POP PUSH3 0x59A JUMP JUMPDEST PUSH1 0x1F NOT DUP5 AND PUSH3 0x543 DUP7 PUSH3 0x2DF JUMP JUMPDEST PUSH1 0x0 JUMPDEST DUP3 DUP2 LT ISZERO PUSH3 0x56D JUMPI DUP5 DUP10 ADD MLOAD DUP3 SSTORE PUSH1 0x1 DUP3 ADD SWAP2 POP PUSH1 0x20 DUP6 ADD SWAP5 POP PUSH1 0x20 DUP2 ADD SWAP1 POP PUSH3 0x546 JUMP JUMPDEST DUP7 DUP4 LT ISZERO PUSH3 0x58D JUMPI DUP5 DUP10 ADD MLOAD PUSH3 0x589 PUSH1 0x1F DUP10 AND DUP3 PUSH3 0x47D JUMP JUMPDEST DUP4 SSTORE POP JUMPDEST PUSH1 0x1 PUSH1 0x2 DUP9 MUL ADD DUP9 SSTORE POP POP POP JUMPDEST POP POP POP POP POP POP JUMP JUMPDEST PUSH1 0x0 PUSH20 0xFFFFFFFFFFFFFFFFFFFFFFFFFFFFFFFFFFFFFFFF DUP3 AND SWAP1 POP SWAP2 SWAP1 POP JUMP JUMPDEST PUSH1 0x0 PUSH3 0x5CF DUP3 PUSH3 0x5A2 JUMP JUMPDEST SWAP1 POP SWAP2 SWAP1 POP JUMP JUMPDEST PUSH3 0x5E1 DUP2 PUSH3 0x5C2 JUMP JUMPDEST DUP3 MSTORE POP POP JUMP JUMPDEST PUSH1 0x0 PUSH1 0x20 DUP3 ADD SWAP1 POP PUSH3 0x5FE PUSH1 0x0 DUP4 ADD DUP5 PUSH3 0x5D6 JUMP JUMPDEST SWAP3 SWAP2 POP POP JUMP JUMPDEST PUSH2 0x39BA DUP1 PUSH3 0x614 PUSH1 0x0 CODECOPY PUSH1 0x0 RETURN INVALID PUSH1 0x80 PUSH1 0x40 MSTORE PUSH1 0x4 CALLDATASIZE LT PUSH2 0x1C2 JUMPI PUSH1 0x0 CALLDATALOAD PUSH1 0xE0 SHR DUP1 PUSH4 0x70A08231 GT PUSH2 0xF7 JUMPI DUP1 PUSH4 0xB9655C45 GT PUSH2 0x95 JUMPI DUP1 PUSH4 0xDA2ED03E GT PUSH2 0x64 JUMPI DUP1 PUSH4 0xDA2ED03E EQ PUSH2 0x66E JUMPI DUP1 PUSH4 0xE985E9C5 EQ PUSH2 0x6AB JUMPI DUP1 PUSH4 0xF2FDE38B EQ PUSH2 0x6E8 JUMPI DUP1 PUSH4 0xF851A440 EQ PUSH2 0x711 JUMPI PUSH2 0x1C2 JUMP JUMPDEST DUP1 PUSH4 0xB9655C45 EQ PUSH2 0x5C1 JUMPI DUP1 PUSH4 0xC1CBBCA7 EQ PUSH2 0x5EA JUMPI DUP1 PUSH4 0xC87B56DD EQ PUSH2 0x606 JUMPI DUP1 PUSH4 0xD082E381 EQ PUSH2 0x643 JUMPI PUSH2 0x1C2 JUMP JUMPDEST DUP1 PUSH4 0x95D89B41 GT PUSH2 0xD1 JUMPI DUP1 PUSH4 0x95D89B41 EQ PUSH2 0x51B JUMPI DUP1 PUSH4 0x98951B56 EQ PUSH2 0x546 JUMPI DUP1 PUSH4 0xA22CB465 EQ PUSH2 0x56F JUMPI DUP1 PUSH4 0xB88D4FDE EQ PUSH2 0x598 JUMPI PUSH2 0x1C2 JUMP JUMPDEST DUP1 PUSH4 0x70A08231 EQ PUSH2 0x49C JUMPI DUP1 PUSH4 0x715018A6 EQ PUSH2 0x4D9 JUMPI DUP1 PUSH4 0x8DA5CB5B EQ PUSH2 0x4F0 JUMPI PUSH2 0x1C2 JUMP JUMPDEST DUP1 PUSH4 0x23B872DD GT PUSH2 0x164 JUMPI DUP1 PUSH4 0x42842E0E GT PUSH2 0x13E JUMPI DUP1 PUSH4 0x42842E0E EQ PUSH2 0x3BC JUMPI DUP1 PUSH4 0x46D7C9BF EQ PUSH2 0x3E5 JUMPI DUP1 PUSH4 0x6352211E EQ PUSH2 0x422 JUMPI DUP1 PUSH4 0x6935BDA6 EQ PUSH2 0x45F JUMPI PUSH2 0x1C2 JUMP JUMPDEST DUP1 PUSH4 0x23B872DD EQ PUSH2 0x32D JUMPI DUP1 PUSH4 0x278ECDE1 EQ PUSH2 0x356 JUMPI DUP1 PUSH4 0x3D891F59 EQ PUSH2 0x37F JUMPI PUSH2 0x1C2 JUMP JUMPDEST DUP1 PUSH4 0x81812FC GT PUSH2 0x1A0 JUMPI DUP1 PUSH4 0x81812FC EQ PUSH2 0x273 JUMPI DUP1 PUSH4 0x95EA7B3 EQ PUSH2 0x2B0 JUMPI DUP1 PUSH4 0xC0512E9 EQ PUSH2 0x2D9 JUMPI DUP1 PUSH4 0x155DD5EE EQ PUSH2 0x304 JUMPI PUSH2 0x1C2 JUMP JUMPDEST DUP1 PUSH4 0x13CF08B EQ PUSH2 0x1C7 JUMPI DUP1 PUSH4 0x1FFC9A7 EQ PUSH2 0x20B JUMPI DUP1 PUSH4 0x6FDDE03 EQ PUSH2 0x248 JUMPI JUMPDEST PUSH1 0x0 DUP1 REVERT JUMPDEST CALLVALUE DUP1 ISZERO PUSH2 0x1D3 JUMPI PUSH1 0x0 DUP1 REVERT JUMPDEST POP PUSH2 0x1EE PUSH1 0x4 DUP1 CALLDATASIZE SUB DUP2 ADD SWAP1 PUSH2 0x1E9 SWAP2 SWAP1 PUSH2 0x2783 JUMP JUMPDEST PUSH2 0x73C JUMP JUMPDEST PUSH1 0x40 MLOAD PUSH2 0x202 SWAP9 SWAP8 SWAP7 SWAP6 SWAP5 SWAP4 SWAP3 SWAP2 SWAP1 PUSH2 0x281B JUMP JUMPDEST PUSH1 0x40 MLOAD DUP1 SWAP2 SUB SWAP1 RETURN JUMPDEST CALLVALUE DUP1 ISZERO PUSH2 0x217 JUMPI PUSH1 0x0 DUP1 REVERT JUMPDEST POP PUSH2 0x232 PUSH1 0x4 DUP1 CALLDATASIZE SUB DUP2 ADD SWAP1 PUSH2 0x22D SWAP2 SWAP1 PUSH2 0x28F1 JUMP JUMPDEST PUSH2 0x7CB JUMP JUMPDEST PUSH1 0x40 MLOAD PUSH2 0x23F SWAP2 SWAP1 PUSH2 0x291E JUMP JUMPDEST PUSH1 0x40 MLOAD DUP1 SWAP2 SUB SWAP1 RETURN JUMPDEST CALLVALUE DUP1 ISZERO PUSH2 0x254 JUMPI PUSH1 0x0 DUP1 REVERT JUMPDEST POP PUSH2 0x25D PUSH2 0x8AD JUMP JUMPDEST PUSH1 0x40 MLOAD PUSH2 0x26A SWAP2 SWAP1 PUSH2 0x29C9 JUMP JUMPDEST PUSH1 0x40 MLOAD DUP1 SWAP2 SUB SWAP1 RETURN JUMPDEST CALLVALUE DUP1 ISZERO PUSH2 0x27F JUMPI PUSH1 0x0 DUP1 REVERT JUMPDEST POP PUSH2 0x29A PUSH1 0x4 DUP1 CALLDATASIZE SUB DUP2 ADD SWAP1 PUSH2 0x295 SWAP2 SWAP1 PUSH2 0x2783 JUMP JUMPDEST PUSH2 0x93F JUMP JUMPDEST PUSH1 0x40 MLOAD PUSH2 0x2A7 SWAP2 SWAP1 PUSH2 0x2A0C JUMP JUMPDEST PUSH1 0x40 MLOAD DUP1 SWAP2 SUB SWAP1 RETURN JUMPDEST CALLVALUE DUP1 ISZERO PUSH2 0x2BC JUMPI PUSH1 0x0 DUP1 REVERT JUMPDEST POP PUSH2 0x2D7 PUSH1 0x4 DUP1 CALLDATASIZE SUB DUP2 ADD SWAP1 PUSH2 0x2D2 SWAP2 SWAP1 PUSH2 0x2A53 JUMP JUMPDEST PUSH2 0x95B JUMP JUMPDEST STOP JUMPDEST CALLVALUE DUP1 ISZERO PUSH2 0x2E5 JUMPI PUSH1 0x0 DUP1 REVERT JUMPDEST POP PUSH2 0x2EE PUSH2 0x971 JUMP JUMPDEST PUSH1 0x40 MLOAD PUSH2 0x2FB SWAP2 SWAP1 PUSH2 0x2A93 JUMP JUMPDEST PUSH1 0x40 MLOAD DUP1 SWAP2 SUB SWAP1 RETURN JUMPDEST CALLVALUE DUP1 ISZERO PUSH2 0x310 JUMPI PUSH1 0x0 DUP1 REVERT JUMPDEST POP PUSH2 0x32B PUSH1 0x4 DUP1 CALLDATASIZE SUB DUP2 ADD SWAP1 PUSH2 0x326 SWAP2 SWAP1 PUSH2 0x2783 JUMP JUMPDEST PUSH2 0x977 JUMP JUMPDEST STOP JUMPDEST CALLVALUE DUP1 ISZERO PUSH2 0x339 JUMPI PUSH1 0x0 DUP1 REVERT JUMPDEST POP PUSH2 0x354 PUSH1 0x4 DUP1 CALLDATASIZE SUB DUP2 ADD SWAP1 PUSH2 0x34F SWAP2 SWAP1 PUSH2 0x2AAE JUMP JUMPDEST PUSH2 0xBC1 JUMP JUMPDEST STOP JUMPDEST CALLVALUE DUP1 ISZERO PUSH2 0x362 JUMPI PUSH1 0x0 DUP1 REVERT JUMPDEST POP PUSH2 0x37D PUSH1 0x4 DUP1 CALLDATASIZE SUB DUP2 ADD SWAP1 PUSH2 0x378 SWAP2 SWAP1 PUSH2 0x2783 JUMP JUMPDEST PUSH2 0xCC3 JUMP JUMPDEST STOP JUMPDEST CALLVALUE DUP1 ISZERO PUSH2 0x38B JUMPI PUSH1 0x0 DUP1 REVERT JUMPDEST POP PUSH2 0x3A6 PUSH1 0x4 DUP1 CALLDATASIZE SUB DUP2 ADD SWAP1 PUSH2 0x3A1 SWAP2 SWAP1 PUSH2 0x2B01 JUMP JUMPDEST PUSH2 0xF08 JUMP JUMPDEST PUSH1 0x40 MLOAD PUSH2 0x3B3 SWAP2 SWAP1 PUSH2 0x2A93 JUMP JUMPDEST PUSH1 0x40 MLOAD DUP1 SWAP2 SUB SWAP1 RETURN JUMPDEST CALLVALUE DUP1 ISZERO PUSH2 0x3C8 JUMPI PUSH1 0x0 DUP1 REVERT JUMPDEST POP PUSH2 0x3E3 PUSH1 0x4 DUP1 CALLDATASIZE SUB DUP2 ADD SWAP1 PUSH2 0x3DE SWAP2 SWAP1 PUSH2 0x2AAE JUMP JUMPDEST PUSH2 0xF2D JUMP JUMPDEST STOP JUMPDEST CALLVALUE DUP1 ISZERO PUSH2 0x3F1 JUMPI PUSH1 0x0 DUP1 REVERT JUMPDEST POP PUSH2 0x40C PUSH1 0x4 DUP1 CALLDATASIZE SUB DUP2 ADD SWAP1 PUSH2 0x407 SWAP2 SWAP1 PUSH2 0x2C76 JUMP JUMPDEST PUSH2 0xF4D JUMP JUMPDEST PUSH1 0x40 MLOAD PUSH2 0x419 SWAP2 SWAP1 PUSH2 0x2A93 JUMP JUMPDEST PUSH1 0x40 MLOAD DUP1 SWAP2 SUB SWAP1 RETURN JUMPDEST CALLVALUE DUP1 ISZERO PUSH2 0x42E JUMPI PUSH1 0x0 DUP1 REVERT JUMPDEST POP PUSH2 0x449 PUSH1 0x4 DUP1 CALLDATASIZE SUB DUP2 ADD SWAP1 PUSH2 0x444 SWAP2 SWAP1 PUSH2 0x2783 JUMP JUMPDEST PUSH2 0xF71 JUMP JUMPDEST PUSH1 0x40 MLOAD PUSH2 0x456 SWAP2 SWAP1 PUSH2 0x2A0C JUMP JUMPDEST PUSH1 0x40 MLOAD DUP1 SWAP2 SUB SWAP1 RETURN JUMPDEST CALLVALUE DUP1 ISZERO PUSH2 0x46B JUMPI PUSH1 0x0 DUP1 REVERT JUMPDEST POP PUSH2 0x486 PUSH1 0x4 DUP1 CALLDATASIZE SUB DUP2 ADD SWAP1 PUSH2 0x481 SWAP2 SWAP1 PUSH2 0x2CE5 JUMP JUMPDEST PUSH2 0xF83 JUMP JUMPDEST PUSH1 0x40 MLOAD PUSH2 0x493 SWAP2 SWAP1 PUSH2 0x2A93 JUMP JUMPDEST PUSH1 0x40 MLOAD DUP1 SWAP2 SUB SWAP1 RETURN JUMPDEST CALLVALUE DUP1 ISZERO PUSH2 0x4A8 JUMPI PUSH1 0x0 DUP1 REVERT JUMPDEST POP PUSH2 0x4C3 PUSH1 0x4 DUP1 CALLDATASIZE SUB DUP2 ADD SWAP1 PUSH2 0x4BE SWAP2 SWAP1 PUSH2 0x2D25 JUMP JUMPDEST PUSH2 0x113F JUMP JUMPDEST PUSH1 0x40 MLOAD PUSH2 0x4D0 SWAP2 SWAP1 PUSH2 0x2A93 JUMP JUMPDEST PUSH1 0x40 MLOAD DUP1 SWAP2 SUB SWAP1 RETURN JUMPDEST CALLVALUE DUP1 ISZERO PUSH2 0x4E5 JUMPI PUSH1 0x0 DUP1 REVERT JUMPDEST POP PUSH2 0x4EE PUSH2 0x11F9 JUMP JUMPDEST STOP JUMPDEST CALLVALUE DUP1 ISZERO PUSH2 0x4FC JUMPI PUSH1 0x0 DUP1 REVERT JUMPDEST POP PUSH2 0x505 PUSH2 0x120D JUMP JUMPDEST PUSH1 0x40 MLOAD PUSH2 0x512 SWAP2 SWAP1 PUSH2 0x2A0C JUMP JUMPDEST PUSH1 0x40 MLOAD DUP1 SWAP2 SUB SWAP1 RETURN JUMPDEST CALLVALUE DUP1 ISZERO PUSH2 0x527 JUMPI PUSH1 0x0 DUP1 REVERT JUMPDEST POP PUSH2 0x530 PUSH2 0x1237 JUMP JUMPDEST PUSH1 0x40 MLOAD PUSH2 0x53D SWAP2 SWAP1 PUSH2 0x29C9 JUMP JUMPDEST PUSH1 0x40 MLOAD DUP1 SWAP2 SUB SWAP1 RETURN JUMPDEST CALLVALUE DUP1 ISZERO PUSH2 0x552 JUMPI PUSH1 0x0 DUP1 REVERT JUMPDEST POP PUSH2 0x56D PUSH1 0x4 DUP1 CALLDATASIZE SUB DUP2 ADD SWAP1 PUSH2 0x568 SWAP2 SWAP1 PUSH2 0x2783 JUMP JUMPDEST PUSH2 0x12C9 JUMP JUMPDEST STOP JUMPDEST CALLVALUE DUP1 ISZERO PUSH2 0x57B JUMPI PUSH1 0x0 DUP1 REVERT JUMPDEST POP PUSH2 0x596 PUSH1 0x4 DUP1 CALLDATASIZE SUB DUP2 ADD SWAP1 PUSH2 0x591 SWAP2 SWAP1 PUSH2 0x2D7E JUMP JUMPDEST PUSH2 0x13B8 JUMP JUMPDEST STOP JUMPDEST CALLVALUE DUP1 ISZERO PUSH2 0x5A4 JUMPI PUSH1 0x0 DUP1 REVERT JUMPDEST POP PUSH2 0x5BF PUSH1 0x4 DUP1 CALLDATASIZE SUB DUP2 ADD SWAP1 PUSH2 0x5BA SWAP2 SWAP1 PUSH2 0x2E5F JUMP JUMPDEST PUSH2 0x13CE JUMP JUMPDEST STOP JUMPDEST CALLVALUE DUP1 ISZERO PUSH2 0x5CD JUMPI PUSH1 0x0 DUP1 REVERT JUMPDEST POP PUSH2 0x5E8 PUSH1 0x4 DUP1 CALLDATASIZE SUB DUP2 ADD SWAP1 PUSH2 0x5E3 SWAP2 SWAP1 PUSH2 0x2783 JUMP JUMPDEST PUSH2 0x13EB JUMP JUMPDEST STOP JUMPDEST PUSH2 0x604 PUSH1 0x4 DUP1 CALLDATASIZE SUB DUP2 ADD SWAP1 PUSH2 0x5FF SWAP2 SWAP1 PUSH2 0x2783 JUMP JUMPDEST PUSH2 0x1523 JUMP JUMPDEST STOP JUMPDEST CALLVALUE DUP1 ISZERO PUSH2 0x612 JUMPI PUSH1 0x0 DUP1 REVERT JUMPDEST POP PUSH2 0x62D PUSH1 0x4 DUP1 CALLDATASIZE SUB DUP2 ADD SWAP1 PUSH2 0x628 SWAP2 SWAP1 PUSH2 0x2783 JUMP JUMPDEST PUSH2 0x1780 JUMP JUMPDEST PUSH1 0x40 MLOAD PUSH2 0x63A SWAP2 SWAP1 PUSH2 0x29C9 JUMP JUMPDEST PUSH1 0x40 MLOAD DUP1 SWAP2 SUB SWAP1 RETURN JUMPDEST CALLVALUE DUP1 ISZERO PUSH2 0x64F JUMPI PUSH1 0x0 DUP1 REVERT JUMPDEST POP PUSH2 0x658 PUSH2 0x1837 JUMP JUMPDEST PUSH1 0x40 MLOAD PUSH2 0x665 SWAP2 SWAP1 PUSH2 0x2A93 JUMP JUMPDEST PUSH1 0x40 MLOAD DUP1 SWAP2 SUB SWAP1 RETURN JUMPDEST CALLVALUE DUP1 ISZERO PUSH2 0x67A JUMPI PUSH1 0x0 DUP1 REVERT JUMPDEST POP PUSH2 0x695 PUSH1 0x4 DUP1 CALLDATASIZE SUB DUP2 ADD SWAP1 PUSH2 0x690 SWAP2 SWAP1 PUSH2 0x2EE2 JUMP JUMPDEST PUSH2 0x183D JUMP JUMPDEST PUSH1 0x40 MLOAD PUSH2 0x6A2 SWAP2 SWAP1 PUSH2 0x2A93 JUMP JUMPDEST PUSH1 0x40 MLOAD DUP1 SWAP2 SUB SWAP1 RETURN JUMPDEST CALLVALUE DUP1 ISZERO PUSH2 0x6B7 JUMPI PUSH1 0x0 DUP1 REVERT JUMPDEST POP PUSH2 0x6D2 PUSH1 0x4 DUP1 CALLDATASIZE SUB DUP2 ADD SWAP1 PUSH2 0x6CD SWAP2 SWAP1 PUSH2 0x2F2B JUMP JUMPDEST PUSH2 0x18BB JUMP JUMPDEST PUSH1 0x40 MLOAD PUSH2 0x6DF SWAP2 SWAP1 PUSH2 0x291E JUMP JUMPDEST PUSH1 0x40 MLOAD DUP1 SWAP2 SUB SWAP1 RETURN JUMPDEST CALLVALUE DUP1 ISZERO PUSH2 0x6F4 JUMPI PUSH1 0x0 DUP1 REVERT JUMPDEST POP PUSH2 0x70F PUSH1 0x4 DUP1 CALLDATASIZE SUB DUP2 ADD SWAP1 PUSH2 0x70A SWAP2 SWAP1 PUSH2 0x2D25 JUMP JUMPDEST PUSH2 0x194F JUMP JUMPDEST STOP JUMPDEST CALLVALUE DUP1 ISZERO PUSH2 0x71D JUMPI PUSH1 0x0 DUP1 REVERT JUMPDEST POP PUSH2 0x726 PUSH2 0x19D5 JUMP JUMPDEST PUSH1 0x40 MLOAD PUSH2 0x733 SWAP2 SWAP1 PUSH2 0x2A0C JUMP JUMPDEST PUSH1 0x40 MLOAD DUP1 SWAP2 SUB SWAP1 RETURN JUMPDEST PUSH1 0xA PUSH1 0x20 MSTORE DUP1 PUSH1 0x0 MSTORE PUSH1 0x40 PUSH1 0x0 KECCAK256 PUSH1 0x0 SWAP2 POP SWAP1 POP DUP1 PUSH1 0x0 ADD SLOAD SWAP1 DUP1 PUSH1 0x1 ADD PUSH1 0x0 SWAP1 SLOAD SWAP1 PUSH2 0x100 EXP SWAP1 DIV PUSH20 0xFFFFFFFFFFFFFFFFFFFFFFFFFFFFFFFFFFFFFFFF AND SWAP1 DUP1 PUSH1 0x2 ADD SLOAD SWAP1 DUP1 PUSH1 0x3 ADD SLOAD SWAP1 DUP1 PUSH1 0x4 ADD SLOAD SWAP1 DUP1 PUSH1 0x5 ADD PUSH1 0x0 SWAP1 SLOAD SWAP1 PUSH2 0x100 EXP SWAP1 DIV PUSH1 0xFF AND SWAP1 DUP1 PUSH1 0x5 ADD PUSH1 0x1 SWAP1 SLOAD SWAP1 PUSH2 0x100 EXP SWAP1 DIV PUSH1 0xFF AND SWAP1 DUP1 PUSH1 0x5 ADD PUSH1 0x2 SWAP1 SLOAD SWAP1 PUSH2 0x100 EXP SWAP1 DIV PUSH1 0xFF AND SWAP1 POP DUP9 JUMP JUMPDEST PUSH1 0x0 PUSH32 0x80AC58CD00000000000000000000000000000000000000000000000000000000 PUSH28 0xFFFFFFFFFFFFFFFFFFFFFFFFFFFFFFFFFFFFFFFFFFFFFFFFFFFFFFFF NOT AND DUP3 PUSH28 0xFFFFFFFFFFFFFFFFFFFFFFFFFFFFFFFFFFFFFFFFFFFFFFFFFFFFFFFF NOT AND EQ DUP1 PUSH2 0x896 JUMPI POP PUSH32 0x5B5E139F00000000000000000000000000000000000000000000000000000000 PUSH28 0xFFFFFFFFFFFFFFFFFFFFFFFFFFFFFFFFFFFFFFFFFFFFFFFFFFFFFFFF NOT AND DUP3 PUSH28 0xFFFFFFFFFFFFFFFFFFFFFFFFFFFFFFFFFFFFFFFFFFFFFFFFFFFFFFFF NOT AND EQ JUMPDEST DUP1 PUSH2 0x8A6 JUMPI POP PUSH2 0x8A5 DUP3 PUSH2 0x19FB JUMP JUMPDEST JUMPDEST SWAP1 POP SWAP2 SWAP1 POP JUMP JUMPDEST PUSH1 0x60 PUSH1 0x0 DUP1 SLOAD PUSH2 0x8BC SWAP1 PUSH2 0x2F9A JUMP JUMPDEST DUP1 PUSH1 0x1F ADD PUSH1 0x20 DUP1 SWAP2 DIV MUL PUSH1 0x20 ADD PUSH1 0x40 MLOAD SWAP1 DUP2 ADD PUSH1 0x40 MSTORE DUP1 SWAP3 SWAP2 SWAP1 DUP2 DUP2 MSTORE PUSH1 0x20 ADD DUP3 DUP1 SLOAD PUSH2 0x8E8 SWAP1 PUSH2 0x2F9A JUMP JUMPDEST DUP1 ISZERO PUSH2 0x935 JUMPI DUP1 PUSH1 0x1F LT PUSH2 0x90A JUMPI PUSH2 0x100 DUP1 DUP4 SLOAD DIV MUL DUP4 MSTORE SWAP2 PUSH1 0x20 ADD SWAP2 PUSH2 0x935 JUMP JUMPDEST DUP3 ADD SWAP2 SWAP1 PUSH1 0x0 MSTORE PUSH1 0x20 PUSH1 0x0 KECCAK256 SWAP1 JUMPDEST DUP2 SLOAD DUP2 MSTORE SWAP1 PUSH1 0x1 ADD SWAP1 PUSH1 0x20 ADD DUP1 DUP4 GT PUSH2 0x918 JUMPI DUP3 SWAP1 SUB PUSH1 0x1F AND DUP3 ADD SWAP2 JUMPDEST POP POP POP POP POP SWAP1 POP SWAP1 JUMP JUMPDEST PUSH1 0x0 PUSH2 0x94A DUP3 PUSH2 0x1A65 JUMP JUMPDEST POP PUSH2 0x954 DUP3 PUSH2 0x1AED JUMP JUMPDEST SWAP1 POP SWAP2 SWAP1 POP JUMP JUMPDEST PUSH2 0x96D DUP3 DUP3 PUSH2 0x968 PUSH2 0x1B2A JUMP JUMPDEST PUSH2 0x1B32 JUMP JUMPDEST POP POP JUMP JUMPDEST PUSH1 0x9 SLOAD DUP2 JUMP JUMPDEST DUP1 PUSH1 0xA PUSH1 0x0 DUP3 DUP2 MSTORE PUSH1 0x20 ADD SWAP1 DUP2 MSTORE PUSH1 0x20 ADD PUSH1 0x0 KECCAK256 PUSH1 0x1 ADD PUSH1 0x0 SWAP1 SLOAD SWAP1 PUSH2 0x100 EXP SWAP1 DIV PUSH20 0xFFFFFFFFFFFFFFFFFFFFFFFFFFFFFFFFFFFFFFFF AND PUSH20 0xFFFFFFFFFFFFFFFFFFFFFFFFFFFFFFFFFFFFFFFF AND CALLER PUSH20 0xFFFFFFFFFFFFFFFFFFFFFFFFFFFFFFFFFFFFFFFF AND EQ PUSH2 0x9E6 JUMPI PUSH1 0x0 DUP1 REVERT JUMPDEST PUSH1 0xA PUSH1 0x0 DUP4 DUP2 MSTORE PUSH1 0x20 ADD SWAP1 DUP2 MSTORE PUSH1 0x20 ADD PUSH1 0x0 KECCAK256 PUSH1 0x5 ADD PUSH1 0x1 SWAP1 SLOAD SWAP1 PUSH2 0x100 EXP SWAP1 DIV PUSH1 0xFF AND PUSH2 0xA49 JUMPI PUSH1 0x40 MLOAD PUSH32 0x8C379A000000000000000000000000000000000000000000000000000000000 DUP2 MSTORE PUSH1 0x4 ADD PUSH2 0xA40 SWAP1 PUSH2 0x3017 JUMP JUMPDEST PUSH1 0x40 MLOAD DUP1 SWAP2 SUB SWAP1 REVERT JUMPDEST PUSH1 0xA PUSH1 0x0 DUP4 DUP2 MSTORE PUSH1 0x20 ADD SWAP1 DUP2 MSTORE PUSH1 0x20 ADD PUSH1 0x0 KECCAK256 PUSH1 0x5 ADD PUSH1 0x2 SWAP1 SLOAD SWAP1 PUSH2 0x100 EXP SWAP1 DIV PUSH1 0xFF AND ISZERO PUSH2 0xAAD JUMPI PUSH1 0x40 MLOAD PUSH32 0x8C379A000000000000000000000000000000000000000000000000000000000 DUP2 MSTORE PUSH1 0x4 ADD PUSH2 0xAA4 SWAP1 PUSH2 0x3083 JUMP JUMPDEST PUSH1 0x40 MLOAD DUP1 SWAP2 SUB SWAP1 REVERT JUMPDEST PUSH1 0x1 PUSH1 0xA PUSH1 0x0 DUP5 DUP2 MSTORE PUSH1 0x20 ADD SWAP1 DUP2 MSTORE PUSH1 0x20 ADD PUSH1 0x0 KECCAK256 PUSH1 0x5 ADD PUSH1 0x2 PUSH2 0x100 EXP DUP2 SLOAD DUP2 PUSH1 0xFF MUL NOT AND SWAP1 DUP4 ISZERO ISZERO MUL OR SWAP1 SSTORE POP PUSH1 0xA PUSH1 0x0 DUP4 DUP2 MSTORE PUSH1 0x20 ADD SWAP1 DUP2 MSTORE PUSH1 0x20 ADD PUSH1 0x0 KECCAK256 PUSH1 0x1 ADD PUSH1 0x0 SWAP1 SLOAD SWAP1 PUSH2 0x100 EXP SWAP1 DIV PUSH20 0xFFFFFFFFFFFFFFFFFFFFFFFFFFFFFFFFFFFFFFFF AND PUSH20 0xFFFFFFFFFFFFFFFFFFFFFFFFFFFFFFFFFFFFFFFF AND PUSH2 0x8FC PUSH1 0xA PUSH1 0x0 DUP6 DUP2 MSTORE PUSH1 0x20 ADD SWAP1 DUP2 MSTORE PUSH1 0x20 ADD PUSH1 0x0 KECCAK256 PUSH1 0x3 ADD SLOAD SWAP1 DUP2 ISZERO MUL SWAP1 PUSH1 0x40 MLOAD PUSH1 0x0 PUSH1 0x40 MLOAD DUP1 DUP4 SUB DUP2 DUP6 DUP9 DUP9 CALL SWAP4 POP POP POP POP ISZERO DUP1 ISZERO PUSH2 0xB6E JUMPI RETURNDATASIZE PUSH1 0x0 DUP1 RETURNDATACOPY RETURNDATASIZE PUSH1 0x0 REVERT JUMPDEST POP DUP2 PUSH32 0xD66662C0DED9E58FD31D5E44944BCFD07FFC15E6927ECC1382E7941CB7BD24C4 PUSH1 0xA PUSH1 0x0 DUP6 DUP2 MSTORE PUSH1 0x20 ADD SWAP1 DUP2 MSTORE PUSH1 0x20 ADD PUSH1 0x0 KECCAK256 PUSH1 0x3 ADD SLOAD PUSH1 0x40 MLOAD PUSH2 0xBB5 SWAP2 SWAP1 PUSH2 0x2A93 JUMP JUMPDEST PUSH1 0x40 MLOAD DUP1 SWAP2 SUB SWAP1 LOG2 POP POP JUMP JUMPDEST PUSH1 0x0 PUSH20 0xFFFFFFFFFFFFFFFFFFFFFFFFFFFFFFFFFFFFFFFF AND DUP3 PUSH20 0xFFFFFFFFFFFFFFFFFFFFFFFFFFFFFFFFFFFFFFFF AND SUB PUSH2 0xC33 JUMPI PUSH1 0x0 PUSH1 0x40 MLOAD PUSH32 0x64A0AE9200000000000000000000000000000000000000000000000000000000 DUP2 MSTORE PUSH1 0x4 ADD PUSH2 0xC2A SWAP2 SWAP1 PUSH2 0x2A0C JUMP JUMPDEST PUSH1 0x40 MLOAD DUP1 SWAP2 SUB SWAP1 REVERT JUMPDEST PUSH1 0x0 PUSH2 0xC47 DUP4 DUP4 PUSH2 0xC42 PUSH2 0x1B2A JUMP JUMPDEST PUSH2 0x1B44 JUMP JUMPDEST SWAP1 POP DUP4 PUSH20 0xFFFFFFFFFFFFFFFFFFFFFFFFFFFFFFFFFFFFFFFF AND DUP2 PUSH20 0xFFFFFFFFFFFFFFFFFFFFFFFFFFFFFFFFFFFFFFFF AND EQ PUSH2 0xCBD JUMPI DUP4 DUP3 DUP3 PUSH1 0x40 MLOAD PUSH32 0x64283D7B00000000000000000000000000000000000000000000000000000000 DUP2 MSTORE PUSH1 0x4 ADD PUSH2 0xCB4 SWAP4 SWAP3 SWAP2 SWAP1 PUSH2 0x30A3 JUMP JUMPDEST PUSH1 0x40 MLOAD DUP1 SWAP2 SUB SWAP1 REVERT JUMPDEST POP POP POP POP JUMP JUMPDEST PUSH1 0xA PUSH1 0x0 DUP3 DUP2 MSTORE PUSH1 0x20 ADD SWAP1 DUP2 MSTORE PUSH1 0x20 ADD PUSH1 0x0 KECCAK256 PUSH1 0x4 ADD SLOAD TIMESTAMP GT PUSH2 0xD1B JUMPI PUSH1 0x40 MLOAD PUSH32 0x8C379A000000000000000000000000000000000000000000000000000000000 DUP2 MSTORE PUSH1 0x4 ADD PUSH2 0xD12 SWAP1 PUSH2 0x3126 JUMP JUMPDEST PUSH1 0x40 MLOAD DUP1 SWAP2 SUB SWAP1 REVERT JUMPDEST PUSH1 0xA PUSH1 0x0 DUP3 DUP2 MSTORE PUSH1 0x20 ADD SWAP1 DUP2 MSTORE PUSH1 0x20 ADD PUSH1 0x0 KECCAK256 PUSH1 0x5 ADD PUSH1 0x1 SWAP1 SLOAD SWAP1 PUSH2 0x100 EXP SWAP1 DIV PUSH1 0xFF AND ISZERO PUSH2 0xD7F JUMPI PUSH1 0x40 MLOAD PUSH32 0x8C379A000000000000000000000000000000000000000000000000000000000 DUP2 MSTORE PUSH1 0x4 ADD PUSH2 0xD76 SWAP1 PUSH2 0x3192 JUMP JUMPDEST PUSH1 0x40 MLOAD DUP1 SWAP2 SUB SWAP1 REVERT JUMPDEST PUSH1 0x0 PUSH1 0xB PUSH1 0x0 DUP4 DUP2 MSTORE PUSH1 0x20 ADD SWAP1 DUP2 MSTORE PUSH1 0x20 ADD PUSH1 0x0 KECCAK256 PUSH1 0x0 CALLER PUSH20 0xFFFFFFFFFFFFFFFFFFFFFFFFFFFFFFFFFFFFFFFF AND PUSH20 0xFFFFFFFFFFFFFFFFFFFFFFFFFFFFFFFFFFFFFFFF AND DUP2 MSTORE PUSH1 0x20 ADD SWAP1 DUP2 MSTORE PUSH1 0x20 ADD PUSH1 0x0 KECCAK256 SLOAD GT PUSH2 0xE12 JUMPI PUSH1 0x40 MLOAD PUSH32 0x8C379A000000000000000000000000000000000000000000000000000000000 DUP2 MSTORE PUSH1 0x4 ADD PUSH2 0xE09 SWAP1 PUSH2 0x3224 JUMP JUMPDEST PUSH1 0x40 MLOAD DUP1 SWAP2 SUB SWAP1 REVERT JUMPDEST PUSH1 0x0 PUSH1 0xB PUSH1 0x0 DUP4 DUP2 MSTORE PUSH1 0x20 ADD SWAP1 DUP2 MSTORE PUSH1 0x20 ADD PUSH1 0x0 KECCAK256 PUSH1 0x0 CALLER PUSH20 0xFFFFFFFFFFFFFFFFFFFFFFFFFFFFFFFFFFFFFFFF AND PUSH20 0xFFFFFFFFFFFFFFFFFFFFFFFFFFFFFFFFFFFFFFFF AND DUP2 MSTORE PUSH1 0x20 ADD SWAP1 DUP2 MSTORE PUSH1 0x20 ADD PUSH1 0x0 KECCAK256 SLOAD SWAP1 POP PUSH1 0x0 PUSH1 0xB PUSH1 0x0 DUP5 DUP2 MSTORE PUSH1 0x20 ADD SWAP1 DUP2 MSTORE PUSH1 0x20 ADD PUSH1 0x0 KECCAK256 PUSH1 0x0 CALLER PUSH20 0xFFFFFFFFFFFFFFFFFFFFFFFFFFFFFFFFFFFFFFFF AND PUSH20 0xFFFFFFFFFFFFFFFFFFFFFFFFFFFFFFFFFFFFFFFF AND DUP2 MSTORE PUSH1 0x20 ADD SWAP1 DUP2 MSTORE PUSH1 0x20 ADD PUSH1 0x0 KECCAK256 DUP2 SWAP1 SSTORE POP CALLER PUSH20 0xFFFFFFFFFFFFFFFFFFFFFFFFFFFFFFFFFFFFFFFF AND PUSH2 0x8FC DUP3 SWAP1 DUP2 ISZERO MUL SWAP1 PUSH1 0x40 MLOAD PUSH1 0x0 PUSH1 0x40 MLOAD DUP1 DUP4 SUB DUP2 DUP6 DUP9 DUP9 CALL SWAP4 POP POP POP POP ISZERO DUP1 ISZERO PUSH2 0xF03 JUMPI RETURNDATASIZE PUSH1 0x0 DUP1 RETURNDATACOPY RETURNDATASIZE PUSH1 0x0 REVERT JUMPDEST POP POP POP JUMP JUMPDEST PUSH1 0xB PUSH1 0x20 MSTORE DUP2 PUSH1 0x0 MSTORE PUSH1 0x40 PUSH1 0x0 KECCAK256 PUSH1 0x20 MSTORE DUP1 PUSH1 0x0 MSTORE PUSH1 0x40 PUSH1 0x0 KECCAK256 PUSH1 0x0 SWAP2 POP SWAP2 POP POP SLOAD DUP2 JUMP JUMPDEST PUSH2 0xF48 DUP4 DUP4 DUP4 PUSH1 0x40 MLOAD DUP1 PUSH1 0x20 ADD PUSH1 0x40 MSTORE DUP1 PUSH1 0x0 DUP2 MSTORE POP PUSH2 0x13CE JUMP JUMPDEST POP POP POP JUMP JUMPDEST PUSH1 0x0 DUP1 PUSH2 0xF5A DUP6 DUP6 PUSH2 0xF83 JUMP JUMPDEST SWAP1 POP PUSH2 0xF65 DUP4 PUSH2 0x183D JUMP JUMPDEST POP DUP1 SWAP2 POP POP SWAP4 SWAP3 POP POP POP JUMP JUMPDEST PUSH1 0x0 PUSH2 0xF7C DUP3 PUSH2 0x1A65 JUMP JUMPDEST SWAP1 POP SWAP2 SWAP1 POP JUMP JUMPDEST PUSH1 0x0 PUSH1 0x9 PUSH1 0x0 DUP2 SLOAD DUP1 SWAP3 SWAP2 SWAP1 PUSH2 0xF98 SWAP1 PUSH2 0x3273 JUMP JUMPDEST SWAP2 SWAP1 POP SSTORE POP PUSH1 0x40 MLOAD DUP1 PUSH2 0x100 ADD PUSH1 0x40 MSTORE DUP1 PUSH1 0x9 SLOAD DUP2 MSTORE PUSH1 0x20 ADD CALLER PUSH20 0xFFFFFFFFFFFFFFFFFFFFFFFFFFFFFFFFFFFFFFFF AND DUP2 MSTORE PUSH1 0x20 ADD DUP5 DUP2 MSTORE PUSH1 0x20 ADD PUSH1 0x0 DUP2 MSTORE PUSH1 0x20 ADD DUP4 TIMESTAMP PUSH2 0xFE6 SWAP2 SWAP1 PUSH2 0x32BB JUMP JUMPDEST DUP2 MSTORE PUSH1 0x20 ADD PUSH1 0x0 ISZERO ISZERO DUP2 MSTORE PUSH1 0x20 ADD PUSH1 0x0 ISZERO ISZERO DUP2 MSTORE PUSH1 0x20 ADD PUSH1 0x0 ISZERO ISZERO DUP2 MSTORE POP PUSH1 0xA PUSH1 0x0 PUSH1 0x9 SLOAD DUP2 MSTORE PUSH1 0x20 ADD SWAP1 DUP2 MSTORE PUSH1 0x20 ADD PUSH1 0x0 KECCAK256 PUSH1 0x0 DUP3 ADD MLOAD DUP2 PUSH1 0x0 ADD SSTORE PUSH1 0x20 DUP3 ADD MLOAD DUP2 PUSH1 0x1 ADD PUSH1 0x0 PUSH2 0x100 EXP DUP2 SLOAD DUP2 PUSH20 0xFFFFFFFFFFFFFFFFFFFFFFFFFFFFFFFFFFFFFFFF MUL NOT AND SWAP1 DUP4 PUSH20 0xFFFFFFFFFFFFFFFFFFFFFFFFFFFFFFFFFFFFFFFF AND MUL OR SWAP1 SSTORE POP PUSH1 0x40 DUP3 ADD MLOAD DUP2 PUSH1 0x2 ADD SSTORE PUSH1 0x60 DUP3 ADD MLOAD DUP2 PUSH1 0x3 ADD SSTORE PUSH1 0x80 DUP3 ADD MLOAD DUP2 PUSH1 0x4 ADD SSTORE PUSH1 0xA0 DUP3 ADD MLOAD DUP2 PUSH1 0x5 ADD PUSH1 0x0 PUSH2 0x100 EXP DUP2 SLOAD DUP2 PUSH1 0xFF MUL NOT AND SWAP1 DUP4 ISZERO ISZERO MUL OR SWAP1 SSTORE POP PUSH1 0xC0 DUP3 ADD MLOAD DUP2 PUSH1 0x5 ADD PUSH1 0x1 PUSH2 0x100 EXP DUP2 SLOAD DUP2 PUSH1 0xFF MUL NOT AND SWAP1 DUP4 ISZERO ISZERO MUL OR SWAP1 SSTORE POP PUSH1 0xE0 DUP3 ADD MLOAD DUP2 PUSH1 0x5 ADD PUSH1 0x2 PUSH2 0x100 EXP DUP2 SLOAD DUP2 PUSH1 0xFF MUL NOT AND SWAP1 DUP4 ISZERO ISZERO MUL OR SWAP1 SSTORE POP SWAP1 POP POP PUSH1 0x9 SLOAD PUSH32 0xD38D9A9A102AF286AEA1CBCADB8AAB8446A90859626389DB3710ED4FEA4C2C39 CALLER DUP6 DUP6 TIMESTAMP PUSH2 0x111D SWAP2 SWAP1 PUSH2 0x32BB JUMP JUMPDEST PUSH1 0x40 MLOAD PUSH2 0x112C SWAP4 SWAP3 SWAP2 SWAP1 PUSH2 0x32EF JUMP JUMPDEST PUSH1 0x40 MLOAD DUP1 SWAP2 SUB SWAP1 LOG2 PUSH1 0x9 SLOAD SWAP1 POP SWAP3 SWAP2 POP POP JUMP JUMPDEST PUSH1 0x0 DUP1 PUSH20 0xFFFFFFFFFFFFFFFFFFFFFFFFFFFFFFFFFFFFFFFF AND DUP3 PUSH20 0xFFFFFFFFFFFFFFFFFFFFFFFFFFFFFFFFFFFFFFFF AND SUB PUSH2 0x11B2 JUMPI PUSH1 0x0 PUSH1 0x40 MLOAD PUSH32 0x89C62B6400000000000000000000000000000000000000000000000000000000 DUP2 MSTORE PUSH1 0x4 ADD PUSH2 0x11A9 SWAP2 SWAP1 PUSH2 0x2A0C JUMP JUMPDEST PUSH1 0x40 MLOAD DUP1 SWAP2 SUB SWAP1 REVERT JUMPDEST PUSH1 0x3 PUSH1 0x0 DUP4 PUSH20 0xFFFFFFFFFFFFFFFFFFFFFFFFFFFFFFFFFFFFFFFF AND PUSH20 0xFFFFFFFFFFFFFFFFFFFFFFFFFFFFFFFFFFFFFFFF AND DUP2 MSTORE PUSH1 0x20 ADD SWAP1 DUP2 MSTORE PUSH1 0x20 ADD PUSH1 0x0 KECCAK256 SLOAD SWAP1 POP SWAP2 SWAP1 POP JUMP JUMPDEST PUSH2 0x1201 PUSH2 0x1D5E JUMP JUMPDEST PUSH2 0x120B PUSH1 0x0 PUSH2 0x1DE5 JUMP JUMPDEST JUMP JUMPDEST PUSH1 0x0 PUSH1 0x6 PUSH1 0x0 SWAP1 SLOAD SWAP1 PUSH2 0x100 EXP SWAP1 DIV PUSH20 0xFFFFFFFFFFFFFFFFFFFFFFFFFFFFFFFFFFFFFFFF AND SWAP1 POP SWAP1 JUMP JUMPDEST PUSH1 0x60 PUSH1 0x1 DUP1 SLOAD PUSH2 0x1246 SWAP1 PUSH2 0x2F9A JUMP JUMPDEST DUP1 PUSH1 0x1F ADD PUSH1 0x20 DUP1 SWAP2 DIV MUL PUSH1 0x20 ADD PUSH1 0x40 MLOAD SWAP1 DUP2 ADD PUSH1 0x40 MSTORE DUP1 SWAP3 SWAP2 SWAP1 DUP2 DUP2 MSTORE PUSH1 0x20 ADD DUP3 DUP1 SLOAD PUSH2 0x1272 SWAP1 PUSH2 0x2F9A JUMP JUMPDEST DUP1 ISZERO PUSH2 0x12BF JUMPI DUP1 PUSH1 0x1F LT PUSH2 0x1294 JUMPI PUSH2 0x100 DUP1 DUP4 SLOAD DIV MUL DUP4 MSTORE SWAP2 PUSH1 0x20 ADD SWAP2 PUSH2 0x12BF JUMP JUMPDEST DUP3 ADD SWAP2 SWAP1 PUSH1 0x0 MSTORE PUSH1 0x20 PUSH1 0x0 KECCAK256 SWAP1 JUMPDEST DUP2 SLOAD DUP2 MSTORE SWAP1 PUSH1 0x1 ADD SWAP1 PUSH1 0x20 ADD DUP1 DUP4 GT PUSH2 0x12A2 JUMPI DUP3 SWAP1 SUB PUSH1 0x1F AND DUP3 ADD SWAP2 JUMPDEST POP POP POP POP POP SWAP1 POP SWAP1 JUMP JUMPDEST PUSH1 0xC PUSH1 0x0 SWAP1 SLOAD SWAP1 PUSH2 0x100 EXP SWAP1 DIV PUSH20 0xFFFFFFFFFFFFFFFFFFFFFFFFFFFFFFFFFFFFFFFF AND PUSH20 0xFFFFFFFFFFFFFFFFFFFFFFFFFFFFFFFFFFFFFFFF AND CALLER PUSH20 0xFFFFFFFFFFFFFFFFFFFFFFFFFFFFFFFFFFFFFFFF AND EQ PUSH2 0x1359 JUMPI PUSH1 0x40 MLOAD PUSH32 0x8C379A000000000000000000000000000000000000000000000000000000000 DUP2 MSTORE PUSH1 0x4 ADD PUSH2 0x1350 SWAP1 PUSH2 0x3398 JUMP JUMPDEST PUSH1 0x40 MLOAD DUP1 SWAP2 SUB SWAP1 REVERT JUMPDEST PUSH1 0x1 PUSH1 0xA PUSH1 0x0 DUP4 DUP2 MSTORE PUSH1 0x20 ADD SWAP1 DUP2 MSTORE PUSH1 0x20 ADD PUSH1 0x0 KECCAK256 PUSH1 0x5 ADD PUSH1 0x0 PUSH2 0x100 EXP DUP2 SLOAD DUP2 PUSH1 0xFF MUL NOT AND SWAP1 DUP4 ISZERO ISZERO MUL OR SWAP1 SSTORE POP DUP1 PUSH32 0x28EC9E38BA73636CEB2F6C1574136F83BD46284A3C74734B711BF45E12F8D929 PUSH1 0x40 MLOAD PUSH1 0x40 MLOAD DUP1 SWAP2 SUB SWAP1 LOG2 POP JUMP JUMPDEST PUSH2 0x13CA PUSH2 0x13C3 PUSH2 0x1B2A JUMP JUMPDEST DUP4 DUP4 PUSH2 0x1EAB JUMP JUMPDEST POP POP JUMP JUMPDEST PUSH2 0x13D9 DUP5 DUP5 DUP5 PUSH2 0xBC1 JUMP JUMPDEST PUSH2 0x13E5 DUP5 DUP5 DUP5 DUP5 PUSH2 0x201A JUMP JUMPDEST POP POP POP POP JUMP JUMPDEST PUSH1 0xA PUSH1 0x0 DUP3 DUP2 MSTORE PUSH1 0x20 ADD SWAP1 DUP2 MSTORE PUSH1 0x20 ADD PUSH1 0x0 KECCAK256 PUSH1 0x5 ADD PUSH1 0x1 SWAP1 SLOAD SWAP1 PUSH2 0x100 EXP SWAP1 DIV PUSH1 0xFF AND PUSH2 0x144E JUMPI PUSH1 0x40 MLOAD PUSH32 0x8C379A000000000000000000000000000000000000000000000000000000000 DUP2 MSTORE PUSH1 0x4 ADD PUSH2 0x1445 SWAP1 PUSH2 0x3017 JUMP JUMPDEST PUSH1 0x40 MLOAD DUP1 SWAP2 SUB SWAP1 REVERT JUMPDEST PUSH1 0x0 PUSH1 0xB PUSH1 0x0 DUP4 DUP2 MSTORE PUSH1 0x20 ADD SWAP1 DUP2 MSTORE PUSH1 0x20 ADD PUSH1 0x0 KECCAK256 PUSH1 0x0 CALLER PUSH20 0xFFFFFFFFFFFFFFFFFFFFFFFFFFFFFFFFFFFFFFFF AND PUSH20 0xFFFFFFFFFFFFFFFFFFFFFFFFFFFFFFFFFFFFFFFF AND DUP2 MSTORE PUSH1 0x20 ADD SWAP1 DUP2 MSTORE PUSH1 0x20 ADD PUSH1 0x0 KECCAK256 SLOAD GT PUSH2 0x14E1 JUMPI PUSH1 0x40 MLOAD PUSH32 0x8C379A000000000000000000000000000000000000000000000000000000000 DUP2 MSTORE PUSH1 0x4 ADD PUSH2 0x14D8 SWAP1 PUSH2 0x3404 JUMP JUMPDEST PUSH1 0x40 MLOAD DUP1 SWAP2 SUB SWAP1 REVERT JUMPDEST PUSH2 0x151F PUSH1 0x40 MLOAD DUP1 PUSH1 0x40 ADD PUSH1 0x40 MSTORE DUP1 PUSH1 0xA DUP2 MSTORE PUSH1 0x20 ADD PUSH32 0x697066733A2F2F43494400000000000000000000000000000000000000000000 DUP2 MSTORE POP PUSH2 0x183D JUMP JUMPDEST POP POP JUMP JUMPDEST PUSH1 0xA PUSH1 0x0 DUP3 DUP2 MSTORE PUSH1 0x20 ADD SWAP1 DUP2 MSTORE PUSH1 0x20 ADD PUSH1 0x0 KECCAK256 PUSH1 0x5 ADD PUSH1 0x0 SWAP1 SLOAD SWAP1 PUSH2 0x100 EXP SWAP1 DIV PUSH1 0xFF AND PUSH2 0x1586 JUMPI PUSH1 0x40 MLOAD PUSH32 0x8C379A000000000000000000000000000000000000000000000000000000000 DUP2 MSTORE PUSH1 0x4 ADD PUSH2 0x157D SWAP1 PUSH2 0x3470 JUMP JUMPDEST PUSH1 0x40 MLOAD DUP1 SWAP2 SUB SWAP1 REVERT JUMPDEST PUSH1 0xA PUSH1 0x0 DUP3 DUP2 MSTORE PUSH1 0x20 ADD SWAP1 DUP2 MSTORE PUSH1 0x20 ADD PUSH1 0x0 KECCAK256 PUSH1 0x4 ADD SLOAD TIMESTAMP LT PUSH2 0x15DE JUMPI PUSH1 0x40 MLOAD PUSH32 0x8C379A000000000000000000000000000000000000000000000000000000000 DUP2 MSTORE PUSH1 0x4 ADD PUSH2 0x15D5 SWAP1 PUSH2 0x34DC JUMP JUMPDEST PUSH1 0x40 MLOAD DUP1 SWAP2 SUB SWAP1 REVERT JUMPDEST PUSH1 0xA PUSH1 0x0 DUP3 DUP2 MSTORE PUSH1 0x20 ADD SWAP1 DUP2 MSTORE PUSH1 0x20 ADD PUSH1 0x0 KECCAK256 PUSH1 0x2 ADD SLOAD PUSH1 0xA PUSH1 0x0 DUP4 DUP2 MSTORE PUSH1 0x20 ADD SWAP1 DUP2 MSTORE PUSH1 0x20 ADD PUSH1 0x0 KECCAK256 PUSH1 0x3 ADD SLOAD LT PUSH2 0x164C JUMPI PUSH1 0x40 MLOAD PUSH32 0x8C379A000000000000000000000000000000000000000000000000000000000 DUP2 MSTORE PUSH1 0x4 ADD PUSH2 0x1643 SWAP1 PUSH2 0x3548 JUMP JUMPDEST PUSH1 0x40 MLOAD DUP1 SWAP2 SUB SWAP1 REVERT JUMPDEST CALLVALUE PUSH1 0xB PUSH1 0x0 DUP4 DUP2 MSTORE PUSH1 0x20 ADD SWAP1 DUP2 MSTORE PUSH1 0x20 ADD PUSH1 0x0 KECCAK256 PUSH1 0x0 CALLER PUSH20 0xFFFFFFFFFFFFFFFFFFFFFFFFFFFFFFFFFFFFFFFF AND PUSH20 0xFFFFFFFFFFFFFFFFFFFFFFFFFFFFFFFFFFFFFFFF AND DUP2 MSTORE PUSH1 0x20 ADD SWAP1 DUP2 MSTORE PUSH1 0x20 ADD PUSH1 0x0 KECCAK256 PUSH1 0x0 DUP3 DUP3 SLOAD PUSH2 0x16AC SWAP2 SWAP1 PUSH2 0x32BB JUMP JUMPDEST SWAP3 POP POP DUP2 SWAP1 SSTORE POP CALLVALUE PUSH1 0xA PUSH1 0x0 DUP4 DUP2 MSTORE PUSH1 0x20 ADD SWAP1 DUP2 MSTORE PUSH1 0x20 ADD PUSH1 0x0 KECCAK256 PUSH1 0x3 ADD PUSH1 0x0 DUP3 DUP3 SLOAD PUSH2 0x16D9 SWAP2 SWAP1 PUSH2 0x32BB JUMP JUMPDEST SWAP3 POP POP DUP2 SWAP1 SSTORE POP DUP1 PUSH32 0xA4A91237423E0A1766A761C7CB029311D8B95D6B1B81DB1B949A70C98B4E08E CALLER CALLVALUE PUSH1 0x40 MLOAD PUSH2 0x1712 SWAP3 SWAP2 SWAP1 PUSH2 0x3568 JUMP JUMPDEST PUSH1 0x40 MLOAD DUP1 SWAP2 SUB SWAP1 LOG2 PUSH1 0xA PUSH1 0x0 DUP3 DUP2 MSTORE PUSH1 0x20 ADD SWAP1 DUP2 MSTORE PUSH1 0x20 ADD PUSH1 0x0 KECCAK256 PUSH1 0x2 ADD SLOAD PUSH1 0xA PUSH1 0x0 DUP4 DUP2 MSTORE PUSH1 0x20 ADD SWAP1 DUP2 MSTORE PUSH1 0x20 ADD PUSH1 0x0 KECCAK256 PUSH1 0x3 ADD SLOAD LT PUSH2 0x177D JUMPI PUSH1 0x1 PUSH1 0xA PUSH1 0x0 DUP4 DUP2 MSTORE PUSH1 0x20 ADD SWAP1 DUP2 MSTORE PUSH1 0x20 ADD PUSH1 0x0 KECCAK256 PUSH1 0x5 ADD PUSH1 0x1 PUSH2 0x100 EXP DUP2 SLOAD DUP2 PUSH1 0xFF MUL NOT AND SWAP1 DUP4 ISZERO ISZERO MUL OR SWAP1 SSTORE POP JUMPDEST POP JUMP JUMPDEST PUSH1 0x60 PUSH2 0x178B DUP3 PUSH2 0x21D1 JUMP JUMPDEST PUSH2 0x1794 JUMPI PUSH1 0x0 DUP1 REVERT JUMPDEST PUSH1 0x8 PUSH1 0x0 DUP4 DUP2 MSTORE PUSH1 0x20 ADD SWAP1 DUP2 MSTORE PUSH1 0x20 ADD PUSH1 0x0 KECCAK256 DUP1 SLOAD PUSH2 0x17B2 SWAP1 PUSH2 0x2F9A JUMP JUMPDEST DUP1 PUSH1 0x1F ADD PUSH1 0x20 DUP1 SWAP2 DIV MUL PUSH1 0x20 ADD PUSH1 0x40 MLOAD SWAP1 DUP2 ADD PUSH1 0x40 MSTORE DUP1 SWAP3 SWAP2 SWAP1 DUP2 DUP2 MSTORE PUSH1 0x20 ADD DUP3 DUP1 SLOAD PUSH2 0x17DE SWAP1 PUSH2 0x2F9A JUMP JUMPDEST DUP1 ISZERO PUSH2 0x182B JUMPI DUP1 PUSH1 0x1F LT PUSH2 0x1800 JUMPI PUSH2 0x100 DUP1 DUP4 SLOAD DIV MUL DUP4 MSTORE SWAP2 PUSH1 0x20 ADD SWAP2 PUSH2 0x182B JUMP JUMPDEST DUP3 ADD SWAP2 SWAP1 PUSH1 0x0 MSTORE PUSH1 0x20 PUSH1 0x0 KECCAK256 SWAP1 JUMPDEST DUP2 SLOAD DUP2 MSTORE SWAP1 PUSH1 0x1 ADD SWAP1 PUSH1 0x20 ADD DUP1 DUP4 GT PUSH2 0x180E JUMPI DUP3 SWAP1 SUB PUSH1 0x1F AND DUP3 ADD SWAP2 JUMPDEST POP POP POP POP POP SWAP1 POP SWAP2 SWAP1 POP JUMP JUMPDEST PUSH1 0x7 SLOAD DUP2 JUMP JUMPDEST PUSH1 0x0 PUSH2 0x1847 PUSH2 0x1D5E JUMP JUMPDEST PUSH1 0x0 PUSH1 0x7 SLOAD SWAP1 POP PUSH2 0x1858 CALLER DUP3 PUSH2 0x2212 JUMP JUMPDEST PUSH2 0x1862 DUP2 DUP5 PUSH2 0x2230 JUMP JUMPDEST PUSH1 0x7 PUSH1 0x0 DUP2 SLOAD DUP1 SWAP3 SWAP2 SWAP1 PUSH2 0x1875 SWAP1 PUSH2 0x3273 JUMP JUMPDEST SWAP2 SWAP1 POP SSTORE POP DUP1 PUSH32 0xE883EEEFA7F620D513EAC93479FC9F54CE03F9F4A72C0D818311A9D19556E879 DUP5 PUSH1 0x40 MLOAD PUSH2 0x18AA SWAP2 SWAP1 PUSH2 0x29C9 JUMP JUMPDEST PUSH1 0x40 MLOAD DUP1 SWAP2 SUB SWAP1 LOG2 DUP1 SWAP2 POP POP SWAP2 SWAP1 POP JUMP JUMPDEST PUSH1 0x0 PUSH1 0x5 PUSH1 0x0 DUP5 PUSH20 0xFFFFFFFFFFFFFFFFFFFFFFFFFFFFFFFFFFFFFFFF AND PUSH20 0xFFFFFFFFFFFFFFFFFFFFFFFFFFFFFFFFFFFFFFFF AND DUP2 MSTORE PUSH1 0x20 ADD SWAP1 DUP2 MSTORE PUSH1 0x20 ADD PUSH1 0x0 KECCAK256 PUSH1 0x0 DUP4 PUSH20 0xFFFFFFFFFFFFFFFFFFFFFFFFFFFFFFFFFFFFFFFF AND PUSH20 0xFFFFFFFFFFFFFFFFFFFFFFFFFFFFFFFFFFFFFFFF AND DUP2 MSTORE PUSH1 0x20 ADD SWAP1 DUP2 MSTORE PUSH1 0x20 ADD PUSH1 0x0 KECCAK256 PUSH1 0x0 SWAP1 SLOAD SWAP1 PUSH2 0x100 EXP SWAP1 DIV PUSH1 0xFF AND SWAP1 POP SWAP3 SWAP2 POP POP JUMP JUMPDEST PUSH2 0x1957 PUSH2 0x1D5E JUMP JUMPDEST PUSH1 0x0 PUSH20 0xFFFFFFFFFFFFFFFFFFFFFFFFFFFFFFFFFFFFFFFF AND DUP2 PUSH20 0xFFFFFFFFFFFFFFFFFFFFFFFFFFFFFFFFFFFFFFFF AND SUB PUSH2 0x19C9 JUMPI PUSH1 0x0 PUSH1 0x40 MLOAD PUSH32 0x1E4FBDF700000000000000000000000000000000000000000000000000000000 DUP2 MSTORE PUSH1 0x4 ADD PUSH2 0x19C0 SWAP2 SWAP1 PUSH2 0x2A0C JUMP JUMPDEST PUSH1 0x40 MLOAD DUP1 SWAP2 SUB SWAP1 REVERT JUMPDEST PUSH2 0x19D2 DUP2 PUSH2 0x1DE5 JUMP JUMPDEST POP JUMP JUMPDEST PUSH1 0xC PUSH1 0x0 SWAP1 SLOAD SWAP1 PUSH2 0x100 EXP SWAP1 DIV PUSH20 0xFFFFFFFFFFFFFFFFFFFFFFFFFFFFFFFFFFFFFFFF AND DUP2 JUMP JUMPDEST PUSH1 0x0 PUSH32 0x1FFC9A700000000000000000000000000000000000000000000000000000000 PUSH28 0xFFFFFFFFFFFFFFFFFFFFFFFFFFFFFFFFFFFFFFFFFFFFFFFFFFFFFFFF NOT AND DUP3 PUSH28 0xFFFFFFFFFFFFFFFFFFFFFFFFFFFFFFFFFFFFFFFFFFFFFFFFFFFFFFFF NOT AND EQ SWAP1 POP SWAP2 SWAP1 POP JUMP JUMPDEST PUSH1 0x0 DUP1 PUSH2 0x1A71 DUP4 PUSH2 0x229D JUMP JUMPDEST SWAP1 POP PUSH1 0x0 PUSH20 0xFFFFFFFFFFFFFFFFFFFFFFFFFFFFFFFFFFFFFFFF AND DUP2 PUSH20 0xFFFFFFFFFFFFFFFFFFFFFFFFFFFFFFFFFFFFFFFF AND SUB PUSH2 0x1AE4 JUMPI DUP3 PUSH1 0x40 MLOAD PUSH32 0x7E27328900000000000000000000000000000000000000000000000000000000 DUP2 MSTORE PUSH1 0x4 ADD PUSH2 0x1ADB SWAP2 SWAP1 PUSH2 0x2A93 JUMP JUMPDEST PUSH1 0x40 MLOAD DUP1 SWAP2 SUB SWAP1 REVERT JUMPDEST DUP1 SWAP2 POP POP SWAP2 SWAP1 POP JUMP JUMPDEST PUSH1 0x0 PUSH1 0x4 PUSH1 0x0 DUP4 DUP2 MSTORE PUSH1 0x20 ADD SWAP1 DUP2 MSTORE PUSH1 0x20 ADD PUSH1 0x0 KECCAK256 PUSH1 0x0 SWAP1 SLOAD SWAP1 PUSH2 0x100 EXP SWAP1 DIV PUSH20 0xFFFFFFFFFFFFFFFFFFFFFFFFFFFFFFFFFFFFFFFF AND SWAP1 POP SWAP2 SWAP1 POP JUMP JUMPDEST PUSH1 0x0 CALLER SWAP1 POP SWAP1 JUMP JUMPDEST PUSH2 0x1B3F DUP4 DUP4 DUP4 PUSH1 0x1 PUSH2 0x22DA JUMP JUMPDEST POP POP POP JUMP JUMPDEST PUSH1 0x0 DUP1 PUSH2 0x1B50 DUP5 PUSH2 0x229D JUMP JUMPDEST SWAP1 POP PUSH1 0x0 PUSH20 0xFFFFFFFFFFFFFFFFFFFFFFFFFFFFFFFFFFFFFFFF AND DUP4 PUSH20 0xFFFFFFFFFFFFFFFFFFFFFFFFFFFFFFFFFFFFFFFF AND EQ PUSH2 0x1B92 JUMPI PUSH2 0x1B91 DUP2 DUP5 DUP7 PUSH2 0x249F JUMP JUMPDEST JUMPDEST PUSH1 0x0 PUSH20 0xFFFFFFFFFFFFFFFFFFFFFFFFFFFFFFFFFFFFFFFF AND DUP2 PUSH20 0xFFFFFFFFFFFFFFFFFFFFFFFFFFFFFFFFFFFFFFFF AND EQ PUSH2 0x1C23 JUMPI PUSH2 0x1BD4 PUSH1 0x0 DUP6 PUSH1 0x0 DUP1 PUSH2 0x22DA JUMP JUMPDEST PUSH1 0x1 PUSH1 0x3 PUSH1 0x0 DUP4 PUSH20 0xFFFFFFFFFFFFFFFFFFFFFFFFFFFFFFFFFFFFFFFF AND PUSH20 0xFFFFFFFFFFFFFFFFFFFFFFFFFFFFFFFFFFFFFFFF AND DUP2 MSTORE PUSH1 0x20 ADD SWAP1 DUP2 MSTORE PUSH1 0x20 ADD PUSH1 0x0 KECCAK256 PUSH1 0x0 DUP3 DUP3 SLOAD SUB SWAP3 POP POP DUP2 SWAP1 SSTORE POP JUMPDEST PUSH1 0x0 PUSH20 0xFFFFFFFFFFFFFFFFFFFFFFFFFFFFFFFFFFFFFFFF AND DUP6 PUSH20 0xFFFFFFFFFFFFFFFFFFFFFFFFFFFFFFFFFFFFFFFF AND EQ PUSH2 0x1CA6 JUMPI PUSH1 0x1 PUSH1 0x3 PUSH1 0x0 DUP8 PUSH20 0xFFFFFFFFFFFFFFFFFFFFFFFFFFFFFFFFFFFFFFFF AND PUSH20 0xFFFFFFFFFFFFFFFFFFFFFFFFFFFFFFFFFFFFFFFF AND DUP2 MSTORE PUSH1 0x20 ADD SWAP1 DUP2 MSTORE PUSH1 0x20 ADD PUSH1 0x0 KECCAK256 PUSH1 0x0 DUP3 DUP3 SLOAD ADD SWAP3 POP POP DUP2 SWAP1 SSTORE POP JUMPDEST DUP5 PUSH1 0x2 PUSH1 0x0 DUP7 DUP2 MSTORE PUSH1 0x20 ADD SWAP1 DUP2 MSTORE PUSH1 0x20 ADD PUSH1 0x0 KECCAK256 PUSH1 0x0 PUSH2 0x100 EXP DUP2 SLOAD DUP2 PUSH20 0xFFFFFFFFFFFFFFFFFFFFFFFFFFFFFFFFFFFFFFFF MUL NOT AND SWAP1 DUP4 PUSH20 0xFFFFFFFFFFFFFFFFFFFFFFFFFFFFFFFFFFFFFFFF AND MUL OR SWAP1 SSTORE POP DUP4 DUP6 PUSH20 0xFFFFFFFFFFFFFFFFFFFFFFFFFFFFFFFFFFFFFFFF AND DUP3 PUSH20 0xFFFFFFFFFFFFFFFFFFFFFFFFFFFFFFFFFFFFFFFF AND PUSH32 0xDDF252AD1BE2C89B69C2B068FC378DAA952BA7F163C4A11628F55A4DF523B3EF PUSH1 0x40 MLOAD PUSH1 0x40 MLOAD DUP1 SWAP2 SUB SWAP1 LOG4 DUP1 SWAP2 POP POP SWAP4 SWAP3 POP POP POP JUMP JUMPDEST PUSH2 0x1D66 PUSH2 0x1B2A JUMP JUMPDEST PUSH20 0xFFFFFFFFFFFFFFFFFFFFFFFFFFFFFFFFFFFFFFFF AND PUSH2 0x1D84 PUSH2 0x120D JUMP JUMPDEST PUSH20 0xFFFFFFFFFFFFFFFFFFFFFFFFFFFFFFFFFFFFFFFF AND EQ PUSH2 0x1DE3 JUMPI PUSH2 0x1DA7 PUSH2 0x1B2A JUMP JUMPDEST PUSH1 0x40 MLOAD PUSH32 0x118CDAA700000000000000000000000000000000000000000000000000000000 DUP2 MSTORE PUSH1 0x4 ADD PUSH2 0x1DDA SWAP2 SWAP1 PUSH2 0x2A0C JUMP JUMPDEST PUSH1 0x40 MLOAD DUP1 SWAP2 SUB SWAP1 REVERT JUMPDEST JUMP JUMPDEST PUSH1 0x0 PUSH1 0x6 PUSH1 0x0 SWAP1 SLOAD SWAP1 PUSH2 0x100 EXP SWAP1 DIV PUSH20 0xFFFFFFFFFFFFFFFFFFFFFFFFFFFFFFFFFFFFFFFF AND SWAP1 POP DUP2 PUSH1 0x6 PUSH1 0x0 PUSH2 0x100 EXP DUP2 SLOAD DUP2 PUSH20 0xFFFFFFFFFFFFFFFFFFFFFFFFFFFFFFFFFFFFFFFF MUL NOT AND SWAP1 DUP4 PUSH20 0xFFFFFFFFFFFFFFFFFFFFFFFFFFFFFFFFFFFFFFFF AND MUL OR SWAP1 SSTORE POP DUP2 PUSH20 0xFFFFFFFFFFFFFFFFFFFFFFFFFFFFFFFFFFFFFFFF AND DUP2 PUSH20 0xFFFFFFFFFFFFFFFFFFFFFFFFFFFFFFFFFFFFFFFF AND PUSH32 0x8BE0079C531659141344CD1FD0A4F28419497F9722A3DAAFE3B4186F6B6457E0 PUSH1 0x40 MLOAD PUSH1 0x40 MLOAD DUP1 SWAP2 SUB SWAP1 LOG3 POP POP JUMP JUMPDEST PUSH1 0x0 PUSH20 0xFFFFFFFFFFFFFFFFFFFFFFFFFFFFFFFFFFFFFFFF AND DUP3 PUSH20 0xFFFFFFFFFFFFFFFFFFFFFFFFFFFFFFFFFFFFFFFF AND SUB PUSH2 0x1F1C JUMPI DUP2 PUSH1 0x40 MLOAD PUSH32 0x5B08BA1800000000000000000000000000000000000000000000000000000000 DUP2 MSTORE PUSH1 0x4 ADD PUSH2 0x1F13 SWAP2 SWAP1 PUSH2 0x2A0C JUMP JUMPDEST PUSH1 0x40 MLOAD DUP1 SWAP2 SUB SWAP1 REVERT JUMPDEST DUP1 PUSH1 0x5 PUSH1 0x0 DUP6 PUSH20 0xFFFFFFFFFFFFFFFFFFFFFFFFFFFFFFFFFFFFFFFF AND PUSH20 0xFFFFFFFFFFFFFFFFFFFFFFFFFFFFFFFFFFFFFFFF AND DUP2 MSTORE PUSH1 0x20 ADD SWAP1 DUP2 MSTORE PUSH1 0x20 ADD PUSH1 0x0 KECCAK256 PUSH1 0x0 DUP5 PUSH20 0xFFFFFFFFFFFFFFFFFFFFFFFFFFFFFFFFFFFFFFFF AND PUSH20 0xFFFFFFFFFFFFFFFFFFFFFFFFFFFFFFFFFFFFFFFF AND DUP2 MSTORE PUSH1 0x20 ADD SWAP1 DUP2 MSTORE PUSH1 0x20 ADD PUSH1 0x0 KECCAK256 PUSH1 0x0 PUSH2 0x100 EXP DUP2 SLOAD DUP2 PUSH1 0xFF MUL NOT AND SWAP1 DUP4 ISZERO ISZERO MUL OR SWAP1 SSTORE POP DUP2 PUSH20 0xFFFFFFFFFFFFFFFFFFFFFFFFFFFFFFFFFFFFFFFF AND DUP4 PUSH20 0xFFFFFFFFFFFFFFFFFFFFFFFFFFFFFFFFFFFFFFFF AND PUSH32 0x17307EAB39AB6107E8899845AD3D59BD9653F200F220920489CA2B5937696C31 DUP4 PUSH1 0x40 MLOAD PUSH2 0x200D SWAP2 SWAP1 PUSH2 0x291E JUMP JUMPDEST PUSH1 0x40 MLOAD DUP1 SWAP2 SUB SWAP1 LOG3 POP POP POP JUMP JUMPDEST PUSH1 0x0 DUP4 PUSH20 0xFFFFFFFFFFFFFFFFFFFFFFFFFFFFFFFFFFFFFFFF AND EXTCODESIZE GT ISZERO PUSH2 0x21CB JUMPI DUP3 PUSH20 0xFFFFFFFFFFFFFFFFFFFFFFFFFFFFFFFFFFFFFFFF AND PUSH4 0x150B7A02 PUSH2 0x205E PUSH2 0x1B2A JUMP JUMPDEST DUP7 DUP6 DUP6 PUSH1 0x40 MLOAD DUP6 PUSH4 0xFFFFFFFF AND PUSH1 0xE0 SHL DUP2 MSTORE PUSH1 0x4 ADD PUSH2 0x2080 SWAP5 SWAP4 SWAP3 SWAP2 SWAP1 PUSH2 0x35E6 JUMP JUMPDEST PUSH1 0x20 PUSH1 0x40 MLOAD DUP1 DUP4 SUB DUP2 PUSH1 0x0 DUP8 GAS CALL SWAP3 POP POP POP DUP1 ISZERO PUSH2 0x20BC JUMPI POP PUSH1 0x40 MLOAD RETURNDATASIZE PUSH1 0x1F NOT PUSH1 0x1F DUP3 ADD AND DUP3 ADD DUP1 PUSH1 0x40 MSTORE POP DUP2 ADD SWAP1 PUSH2 0x20B9 SWAP2 SWAP1 PUSH2 0x3647 JUMP JUMPDEST PUSH1 0x1 JUMPDEST PUSH2 0x2140 JUMPI RETURNDATASIZE DUP1 PUSH1 0x0 DUP2 EQ PUSH2 0x20EC JUMPI PUSH1 0x40 MLOAD SWAP2 POP PUSH1 0x1F NOT PUSH1 0x3F RETURNDATASIZE ADD AND DUP3 ADD PUSH1 0x40 MSTORE RETURNDATASIZE DUP3 MSTORE RETURNDATASIZE PUSH1 0x0 PUSH1 0x20 DUP5 ADD RETURNDATACOPY PUSH2 0x20F1 JUMP JUMPDEST PUSH1 0x60 SWAP2 POP JUMPDEST POP PUSH1 0x0 DUP2 MLOAD SUB PUSH2 0x2138 JUMPI DUP4 PUSH1 0x40 MLOAD PUSH32 0x64A0AE9200000000000000000000000000000000000000000000000000000000 DUP2 MSTORE PUSH1 0x4 ADD PUSH2 0x212F SWAP2 SWAP1 PUSH2 0x2A0C JUMP JUMPDEST PUSH1 0x40 MLOAD DUP1 SWAP2 SUB SWAP1 REVERT JUMPDEST DUP1 MLOAD DUP2 PUSH1 0x20 ADD REVERT JUMPDEST PUSH4 0x150B7A02 PUSH1 0xE0 SHL PUSH28 0xFFFFFFFFFFFFFFFFFFFFFFFFFFFFFFFFFFFFFFFFFFFFFFFFFFFFFFFF NOT AND DUP2 PUSH28 0xFFFFFFFFFFFFFFFFFFFFFFFFFFFFFFFFFFFFFFFFFFFFFFFFFFFFFFFF NOT AND EQ PUSH2 0x21C9 JUMPI DUP4 PUSH1 0x40 MLOAD PUSH32 0x64A0AE9200000000000000000000000000000000000000000000000000000000 DUP2 MSTORE PUSH1 0x4 ADD PUSH2 0x21C0 SWAP2 SWAP1 PUSH2 0x2A0C JUMP JUMPDEST PUSH1 0x40 MLOAD DUP1 SWAP2 SUB SWAP1 REVERT JUMPDEST POP JUMPDEST POP POP POP POP JUMP JUMPDEST PUSH1 0x0 DUP1 PUSH20 0xFFFFFFFFFFFFFFFFFFFFFFFFFFFFFFFFFFFFFFFF AND PUSH2 0x21F3 DUP4 PUSH2 0x229D JUMP JUMPDEST PUSH20 0xFFFFFFFFFFFFFFFFFFFFFFFFFFFFFFFFFFFFFFFF AND EQ ISZERO SWAP1 POP SWAP2 SWAP1 POP JUMP JUMPDEST PUSH2 0x222C DUP3 DUP3 PUSH1 0x40 MLOAD DUP1 PUSH1 0x20 ADD PUSH1 0x40 MSTORE DUP1 PUSH1 0x0 DUP2 MSTORE POP PUSH2 0x2563 JUMP JUMPDEST POP POP JUMP JUMPDEST PUSH2 0x2239 DUP3 PUSH2 0x21D1 JUMP JUMPDEST PUSH2 0x2278 JUMPI PUSH1 0x40 MLOAD PUSH32 0x8C379A000000000000000000000000000000000000000000000000000000000 DUP2 MSTORE PUSH1 0x4 ADD PUSH2 0x226F SWAP1 PUSH2 0x36E6 JUMP JUMPDEST PUSH1 0x40 MLOAD DUP1 SWAP2 SUB SWAP1 REVERT JUMPDEST DUP1 PUSH1 0x8 PUSH1 0x0 DUP5 DUP2 MSTORE PUSH1 0x20 ADD SWAP1 DUP2 MSTORE PUSH1 0x20 ADD PUSH1 0x0 KECCAK256 SWAP1 DUP2 PUSH2 0x2298 SWAP2 SWAP1 PUSH2 0x38B2 JUMP JUMPDEST POP POP POP JUMP JUMPDEST PUSH1 0x0 PUSH1 0x2 PUSH1 0x0 DUP4 DUP2 MSTORE PUSH1 0x20 ADD SWAP1 DUP2 MSTORE PUSH1 0x20 ADD PUSH1 0x0 KECCAK256 PUSH1 0x0 SWAP1 SLOAD SWAP1 PUSH2 0x100 EXP SWAP1 DIV PUSH20 0xFFFFFFFFFFFFFFFFFFFFFFFFFFFFFFFFFFFFFFFF AND SWAP1 POP SWAP2 SWAP1 POP JUMP JUMPDEST DUP1 DUP1 PUSH2 0x2313 JUMPI POP PUSH1 0x0 PUSH20 0xFFFFFFFFFFFFFFFFFFFFFFFFFFFFFFFFFFFFFFFF AND DUP3 PUSH20 0xFFFFFFFFFFFFFFFFFFFFFFFFFFFFFFFFFFFFFFFF AND EQ ISZERO JUMPDEST ISZERO PUSH2 0x2447 JUMPI PUSH1 0x0 PUSH2 0x2323 DUP5 PUSH2 0x1A65 JUMP JUMPDEST SWAP1 POP PUSH1 0x0 PUSH20 0xFFFFFFFFFFFFFFFFFFFFFFFFFFFFFFFFFFFFFFFF AND DUP4 PUSH20 0xFFFFFFFFFFFFFFFFFFFFFFFFFFFFFFFFFFFFFFFF AND EQ ISZERO DUP1 ISZERO PUSH2 0x238E JUMPI POP DUP3 PUSH20 0xFFFFFFFFFFFFFFFFFFFFFFFFFFFFFFFFFFFFFFFF AND DUP2 PUSH20 0xFFFFFFFFFFFFFFFFFFFFFFFFFFFFFFFFFFFFFFFF AND EQ ISZERO JUMPDEST DUP1 ISZERO PUSH2 0x23A1 JUMPI POP PUSH2 0x239F DUP2 DUP5 PUSH2 0x18BB JUMP JUMPDEST ISZERO JUMPDEST ISZERO PUSH2 0x23E3 JUMPI DUP3 PUSH1 0x40 MLOAD PUSH32 0xA9FBF51F00000000000000000000000000000000000000000000000000000000 DUP2 MSTORE PUSH1 0x4 ADD PUSH2 0x23DA SWAP2 SWAP1 PUSH2 0x2A0C JUMP JUMPDEST PUSH1 0x40 MLOAD DUP1 SWAP2 SUB SWAP1 REVERT JUMPDEST DUP2 ISZERO PUSH2 0x2445 JUMPI DUP4 DUP6 PUSH20 0xFFFFFFFFFFFFFFFFFFFFFFFFFFFFFFFFFFFFFFFF AND DUP3 PUSH20 0xFFFFFFFFFFFFFFFFFFFFFFFFFFFFFFFFFFFFFFFF AND PUSH32 0x8C5BE1E5EBEC7D5BD14F71427D1E84F3DD0314C0F7B2291E5B200AC8C7C3B925 PUSH1 0x40 MLOAD PUSH1 0x40 MLOAD DUP1 SWAP2 SUB SWAP1 LOG4 JUMPDEST POP JUMPDEST DUP4 PUSH1 0x4 PUSH1 0x0 DUP6 DUP2 MSTORE PUSH1 0x20 ADD SWAP1 DUP2 MSTORE PUSH1 0x20 ADD PUSH1 0x0 KECCAK256 PUSH1 0x0 PUSH2 0x100 EXP DUP2 SLOAD DUP2 PUSH20 0xFFFFFFFFFFFFFFFFFFFFFFFFFFFFFFFFFFFFFFFF MUL NOT AND SWAP1 DUP4 PUSH20 0xFFFFFFFFFFFFFFFFFFFFFFFFFFFFFFFFFFFFFFFF AND MUL OR SWAP1 SSTORE POP POP POP POP POP JUMP JUMPDEST PUSH2 0x24AA DUP4 DUP4 DUP4 PUSH2 0x257F JUMP JUMPDEST PUSH2 0x255E JUMPI PUSH1 0x0 PUSH20 0xFFFFFFFFFFFFFFFFFFFFFFFFFFFFFFFFFFFFFFFF AND DUP4 PUSH20 0xFFFFFFFFFFFFFFFFFFFFFFFFFFFFFFFFFFFFFFFF AND SUB PUSH2 0x251F JUMPI DUP1 PUSH1 0x40 MLOAD PUSH32 0x7E27328900000000000000000000000000000000000000000000000000000000 DUP2 MSTORE PUSH1 0x4 ADD PUSH2 0x2516 SWAP2 SWAP1 PUSH2 0x2A93 JUMP JUMPDEST PUSH1 0x40 MLOAD DUP1 SWAP2 SUB SWAP1 REVERT JUMPDEST DUP2 DUP2 PUSH1 0x40 MLOAD PUSH32 0x177E802F00000000000000000000000000000000000000000000000000000000 DUP2 MSTORE PUSH1 0x4 ADD PUSH2 0x2555 SWAP3 SWAP2 SWAP1 PUSH2 0x3568 JUMP JUMPDEST PUSH1 0x40 MLOAD DUP1 SWAP2 SUB SWAP1 REVERT JUMPDEST POP POP POP JUMP JUMPDEST PUSH2 0x256D DUP4 DUP4 PUSH2 0x2640 JUMP JUMPDEST PUSH2 0x257A PUSH1 0x0 DUP5 DUP5 DUP5 PUSH2 0x201A JUMP JUMPDEST POP POP POP JUMP JUMPDEST PUSH1 0x0 DUP1 PUSH20 0xFFFFFFFFFFFFFFFFFFFFFFFFFFFFFFFFFFFFFFFF AND DUP4 PUSH20 0xFFFFFFFFFFFFFFFFFFFFFFFFFFFFFFFFFFFFFFFF AND EQ ISZERO DUP1 ISZERO PUSH2 0x2637 JUMPI POP DUP3 PUSH20 0xFFFFFFFFFFFFFFFFFFFFFFFFFFFFFFFFFFFFFFFF AND DUP5 PUSH20 0xFFFFFFFFFFFFFFFFFFFFFFFFFFFFFFFFFFFFFFFF AND EQ DUP1 PUSH2 0x25F8 JUMPI POP PUSH2 0x25F7 DUP5 DUP5 PUSH2 0x18BB JUMP JUMPDEST JUMPDEST DUP1 PUSH2 0x2636 JUMPI POP DUP3 PUSH20 0xFFFFFFFFFFFFFFFFFFFFFFFFFFFFFFFFFFFFFFFF AND PUSH2 0x261E DUP4 PUSH2 0x1AED JUMP JUMPDEST PUSH20 0xFFFFFFFFFFFFFFFFFFFFFFFFFFFFFFFFFFFFFFFF AND EQ JUMPDEST JUMPDEST SWAP1 POP SWAP4 SWAP3 POP POP POP JUMP JUMPDEST PUSH1 0x0 PUSH20 0xFFFFFFFFFFFFFFFFFFFFFFFFFFFFFFFFFFFFFFFF AND DUP3 PUSH20 0xFFFFFFFFFFFFFFFFFFFFFFFFFFFFFFFFFFFFFFFF AND SUB PUSH2 0x26B2 JUMPI PUSH1 0x0 PUSH1 0x40 MLOAD PUSH32 0x64A0AE9200000000000000000000000000000000000000000000000000000000 DUP2 MSTORE PUSH1 0x4 ADD PUSH2 0x26A9 SWAP2 SWAP1 PUSH2 0x2A0C JUMP JUMPDEST PUSH1 0x40 MLOAD DUP1 SWAP2 SUB SWAP1 REVERT JUMPDEST PUSH1 0x0 PUSH2 0x26C0 DUP4 DUP4 PUSH1 0x0 PUSH2 0x1B44 JUMP JUMPDEST SWAP1 POP PUSH1 0x0 PUSH20 0xFFFFFFFFFFFFFFFFFFFFFFFFFFFFFFFFFFFFFFFF AND DUP2 PUSH20 0xFFFFFFFFFFFFFFFFFFFFFFFFFFFFFFFFFFFFFFFF AND EQ PUSH2 0x2734 JUMPI PUSH1 0x0 PUSH1 0x40 MLOAD PUSH32 0x73C6AC6E00000000000000000000000000000000000000000000000000000000 DUP2 MSTORE PUSH1 0x4 ADD PUSH2 0x272B SWAP2 SWAP1 PUSH2 0x2A0C JUMP JUMPDEST PUSH1 0x40 MLOAD DUP1 SWAP2 SUB SWAP1 REVERT JUMPDEST POP POP POP JUMP JUMPDEST PUSH1 0x0 PUSH1 0x40 MLOAD SWAP1 POP SWAP1 JUMP JUMPDEST PUSH1 0x0 DUP1 REVERT JUMPDEST PUSH1 0x0 DUP1 REVERT JUMPDEST PUSH1 0x0 DUP2 SWAP1 POP SWAP2 SWAP1 POP JUMP JUMPDEST PUSH2 0x2760 DUP2 PUSH2 0x274D JUMP JUMPDEST DUP2 EQ PUSH2 0x276B JUMPI PUSH1 0x0 DUP1 REVERT JUMPDEST POP JUMP JUMPDEST PUSH1 0x0 DUP2 CALLDATALOAD SWAP1 POP PUSH2 0x277D DUP2 PUSH2 0x2757 JUMP JUMPDEST SWAP3 SWAP2 POP POP JUMP JUMPDEST PUSH1 0x0 PUSH1 0x20 DUP3 DUP5 SUB SLT ISZERO PUSH2 0x2799 JUMPI PUSH2 0x2798 PUSH2 0x2743 JUMP JUMPDEST JUMPDEST PUSH1 0x0 PUSH2 0x27A7 DUP5 DUP3 DUP6 ADD PUSH2 0x276E JUMP JUMPDEST SWAP2 POP POP SWAP3 SWAP2 POP POP JUMP JUMPDEST PUSH2 0x27B9 DUP2 PUSH2 0x274D JUMP JUMPDEST DUP3 MSTORE POP POP JUMP JUMPDEST PUSH1 0x0 PUSH20 0xFFFFFFFFFFFFFFFFFFFFFFFFFFFFFFFFFFFFFFFF DUP3 AND SWAP1 POP SWAP2 SWAP1 POP JUMP JUMPDEST PUSH1 0x0 PUSH2 0x27EA DUP3 PUSH2 0x27BF JUMP JUMPDEST SWAP1 POP SWAP2 SWAP1 POP JUMP JUMPDEST PUSH2 0x27FA DUP2 PUSH2 0x27DF JUMP JUMPDEST DUP3 MSTORE POP POP JUMP JUMPDEST PUSH1 0x0 DUP2 ISZERO ISZERO SWAP1 POP SWAP2 SWAP1 POP JUMP JUMPDEST PUSH2 0x2815 DUP2 PUSH2 0x2800 JUMP JUMPDEST DUP3 MSTORE POP POP JUMP JUMPDEST PUSH1 0x0 PUSH2 0x100 DUP3 ADD SWAP1 POP PUSH2 0x2831 PUSH1 0x0 DUP4 ADD DUP12 PUSH2 0x27B0 JUMP JUMPDEST PUSH2 0x283E PUSH1 0x20 DUP4 ADD DUP11 PUSH2 0x27F1 JUMP JUMPDEST PUSH2 0x284B PUSH1 0x40 DUP4 ADD DUP10 PUSH2 0x27B0 JUMP JUMPDEST PUSH2 0x2858 PUSH1 0x60 DUP4 ADD DUP9 PUSH2 0x27B0 JUMP JUMPDEST PUSH2 0x2865 PUSH1 0x80 DUP4 ADD DUP8 PUSH2 0x27B0 JUMP JUMPDEST PUSH2 0x2872 PUSH1 0xA0 DUP4 ADD DUP7 PUSH2 0x280C JUMP JUMPDEST PUSH2 0x287F PUSH1 0xC0 DUP4 ADD DUP6 PUSH2 0x280C JUMP JUMPDEST PUSH2 0x288C PUSH1 0xE0 DUP4 ADD DUP5 PUSH2 0x280C JUMP JUMPDEST SWAP10 SWAP9 POP POP POP POP POP POP POP POP POP JUMP JUMPDEST PUSH1 0x0 PUSH32 0xFFFFFFFF00000000000000000000000000000000000000000000000000000000 DUP3 AND SWAP1 POP SWAP2 SWAP1 POP JUMP JUMPDEST PUSH2 0x28CE DUP2 PUSH2 0x2899 JUMP JUMPDEST DUP2 EQ PUSH2 0x28D9 JUMPI PUSH1 0x0 DUP1 REVERT JUMPDEST POP JUMP JUMPDEST PUSH1 0x0 DUP2 CALLDATALOAD SWAP1 POP PUSH2 0x28EB DUP2 PUSH2 0x28C5 JUMP JUMPDEST SWAP3 SWAP2 POP POP JUMP JUMPDEST PUSH1 0x0 PUSH1 0x20 DUP3 DUP5 SUB SLT ISZERO PUSH2 0x2907 JUMPI PUSH2 0x2906 PUSH2 0x2743 JUMP JUMPDEST JUMPDEST PUSH1 0x0 PUSH2 0x2915 DUP5 DUP3 DUP6 ADD PUSH2 0x28DC JUMP JUMPDEST SWAP2 POP POP SWAP3 SWAP2 POP POP JUMP JUMPDEST PUSH1 0x0 PUSH1 0x20 DUP3 ADD SWAP1 POP PUSH2 0x2933 PUSH1 0x0 DUP4 ADD DUP5 PUSH2 0x280C JUMP JUMPDEST SWAP3 SWAP2 POP POP JUMP JUMPDEST PUSH1 0x0 DUP2 MLOAD SWAP1 POP SWAP2 SWAP1 POP JUMP JUMPDEST PUSH1 0x0 DUP3 DUP3 MSTORE PUSH1 0x20 DUP3 ADD SWAP1 POP SWAP3 SWAP2 POP POP JUMP JUMPDEST PUSH1 0x0 JUMPDEST DUP4 DUP2 LT ISZERO PUSH2 0x2973 JUMPI DUP1 DUP3 ADD MLOAD DUP2 DUP5 ADD MSTORE PUSH1 0x20 DUP2 ADD SWAP1 POP PUSH2 0x2958 JUMP JUMPDEST PUSH1 0x0 DUP5 DUP5 ADD MSTORE POP POP POP POP JUMP JUMPDEST PUSH1 0x0 PUSH1 0x1F NOT PUSH1 0x1F DUP4 ADD AND SWAP1 POP SWAP2 SWAP1 POP JUMP JUMPDEST PUSH1 0x0 PUSH2 0x299B DUP3 PUSH2 0x2939 JUMP JUMPDEST PUSH2 0x29A5 DUP2 DUP6 PUSH2 0x2944 JUMP JUMPDEST SWAP4 POP PUSH2 0x29B5 DUP2 DUP6 PUSH1 0x20 DUP7 ADD PUSH2 0x2955 JUMP JUMPDEST PUSH2 0x29BE DUP2 PUSH2 0x297F JUMP JUMPDEST DUP5 ADD SWAP2 POP POP SWAP3 SWAP2 POP POP JUMP JUMPDEST PUSH1 0x0 PUSH1 0x20 DUP3 ADD SWAP1 POP DUP2 DUP2 SUB PUSH1 0x0 DUP4 ADD MSTORE PUSH2 0x29E3 DUP2 DUP5 PUSH2 0x2990 JUMP JUMPDEST SWAP1 POP SWAP3 SWAP2 POP POP JUMP JUMPDEST PUSH1 0x0 PUSH2 0x29F6 DUP3 PUSH2 0x27BF JUMP JUMPDEST SWAP1 POP SWAP2 SWAP1 POP JUMP JUMPDEST PUSH2 0x2A06 DUP2 PUSH2 0x29EB JUMP JUMPDEST DUP3 MSTORE POP POP JUMP JUMPDEST PUSH1 0x0 PUSH1 0x20 DUP3 ADD SWAP1 POP PUSH2 0x2A21 PUSH1 0x0 DUP4 ADD DUP5 PUSH2 0x29FD JUMP JUMPDEST SWAP3 SWAP2 POP POP JUMP JUMPDEST PUSH2 0x2A30 DUP2 PUSH2 0x29EB JUMP JUMPDEST DUP2 EQ PUSH2 0x2A3B JUMPI PUSH1 0x0 DUP1 REVERT JUMPDEST POP JUMP JUMPDEST PUSH1 0x0 DUP2 CALLDATALOAD SWAP1 POP PUSH2 0x2A4D DUP2 PUSH2 0x2A27 JUMP JUMPDEST SWAP3 SWAP2 POP POP JUMP JUMPDEST PUSH1 0x0 DUP1 PUSH1 0x40 DUP4 DUP6 SUB SLT ISZERO PUSH2 0x2A6A JUMPI PUSH2 0x2A69 PUSH2 0x2743 JUMP JUMPDEST JUMPDEST PUSH1 0x0 PUSH2 0x2A78 DUP6 DUP3 DUP7 ADD PUSH2 0x2A3E JUMP JUMPDEST SWAP3 POP POP PUSH1 0x20 PUSH2 0x2A89 DUP6 DUP3 DUP7 ADD PUSH2 0x276E JUMP JUMPDEST SWAP2 POP POP SWAP3 POP SWAP3 SWAP1 POP JUMP JUMPDEST PUSH1 0x0 PUSH1 0x20 DUP3 ADD SWAP1 POP PUSH2 0x2AA8 PUSH1 0x0 DUP4 ADD DUP5 PUSH2 0x27B0 JUMP JUMPDEST SWAP3 SWAP2 POP POP JUMP JUMPDEST PUSH1 0x0 DUP1 PUSH1 0x0 PUSH1 0x60 DUP5 DUP7 SUB SLT ISZERO PUSH2 0x2AC7 JUMPI PUSH2 0x2AC6 PUSH2 0x2743 JUMP JUMPDEST JUMPDEST PUSH1 0x0 PUSH2 0x2AD5 DUP7 DUP3 DUP8 ADD PUSH2 0x2A3E JUMP JUMPDEST SWAP4 POP POP PUSH1 0x20 PUSH2 0x2AE6 DUP7 DUP3 DUP8 ADD PUSH2 0x2A3E JUMP JUMPDEST SWAP3 POP POP PUSH1 0x40 PUSH2 0x2AF7 DUP7 DUP3 DUP8 ADD PUSH2 0x276E JUMP JUMPDEST SWAP2 POP POP SWAP3 POP SWAP3 POP SWAP3 JUMP JUMPDEST PUSH1 0x0 DUP1 PUSH1 0x40 DUP4 DUP6 SUB SLT ISZERO PUSH2 0x2B18 JUMPI PUSH2 0x2B17 PUSH2 0x2743 JUMP JUMPDEST JUMPDEST PUSH1 0x0 PUSH2 0x2B26 DUP6 DUP3 DUP7 ADD PUSH2 0x276E JUMP JUMPDEST SWAP3 POP POP PUSH1 0x20 PUSH2 0x2B37 DUP6 DUP3 DUP7 ADD PUSH2 0x2A3E JUMP JUMPDEST SWAP2 POP POP SWAP3 POP SWAP3 SWAP1 POP JUMP JUMPDEST PUSH1 0x0 DUP1 REVERT JUMPDEST PUSH1 0x0 DUP1 REVERT JUMPDEST PUSH32 0x4E487B7100000000000000000000000000000000000000000000000000000000 PUSH1 0x0 MSTORE PUSH1 0x41 PUSH1 0x4 MSTORE PUSH1 0x24 PUSH1 0x0 REVERT JUMPDEST PUSH2 0x2B83 DUP3 PUSH2 0x297F JUMP JUMPDEST DUP2 ADD DUP2 DUP2 LT PUSH8 0xFFFFFFFFFFFFFFFF DUP3 GT OR ISZERO PUSH2 0x2BA2 JUMPI PUSH2 0x2BA1 PUSH2 0x2B4B JUMP JUMPDEST JUMPDEST DUP1 PUSH1 0x40 MSTORE POP POP POP JUMP JUMPDEST PUSH1 0x0 PUSH2 0x2BB5 PUSH2 0x2739 JUMP JUMPDEST SWAP1 POP PUSH2 0x2BC1 DUP3 DUP3 PUSH2 0x2B7A JUMP JUMPDEST SWAP2 SWAP1 POP JUMP JUMPDEST PUSH1 0x0 PUSH8 0xFFFFFFFFFFFFFFFF DUP3 GT ISZERO PUSH2 0x2BE1 JUMPI PUSH2 0x2BE0 PUSH2 0x2B4B JUMP JUMPDEST JUMPDEST PUSH2 0x2BEA DUP3 PUSH2 0x297F JUMP JUMPDEST SWAP1 POP PUSH1 0x20 DUP2 ADD SWAP1 POP SWAP2 SWAP1 POP JUMP JUMPDEST DUP3 DUP2 DUP4 CALLDATACOPY PUSH1 0x0 DUP4 DUP4 ADD MSTORE POP POP POP JUMP JUMPDEST PUSH1 0x0 PUSH2 0x2C19 PUSH2 0x2C14 DUP5 PUSH2 0x2BC6 JUMP JUMPDEST PUSH2 0x2BAB JUMP JUMPDEST SWAP1 POP DUP3 DUP2 MSTORE PUSH1 0x20 DUP2 ADD DUP5 DUP5 DUP5 ADD GT ISZERO PUSH2 0x2C35 JUMPI PUSH2 0x2C34 PUSH2 0x2B46 JUMP JUMPDEST JUMPDEST PUSH2 0x2C40 DUP5 DUP3 DUP6 PUSH2 0x2BF7 JUMP JUMPDEST POP SWAP4 SWAP3 POP POP POP JUMP JUMPDEST PUSH1 0x0 DUP3 PUSH1 0x1F DUP4 ADD SLT PUSH2 0x2C5D JUMPI PUSH2 0x2C5C PUSH2 0x2B41 JUMP JUMPDEST JUMPDEST DUP2 CALLDATALOAD PUSH2 0x2C6D DUP5 DUP3 PUSH1 0x20 DUP7 ADD PUSH2 0x2C06 JUMP JUMPDEST SWAP2 POP POP SWAP3 SWAP2 POP POP JUMP JUMPDEST PUSH1 0x0 DUP1 PUSH1 0x0 PUSH1 0x60 DUP5 DUP7 SUB SLT ISZERO PUSH2 0x2C8F JUMPI PUSH2 0x2C8E PUSH2 0x2743 JUMP JUMPDEST JUMPDEST PUSH1 0x0 PUSH2 0x2C9D DUP7 DUP3 DUP8 ADD PUSH2 0x276E JUMP JUMPDEST SWAP4 POP POP PUSH1 0x20 PUSH2 0x2CAE DUP7 DUP3 DUP8 ADD PUSH2 0x276E JUMP JUMPDEST SWAP3 POP POP PUSH1 0x40 DUP5 ADD CALLDATALOAD PUSH8 0xFFFFFFFFFFFFFFFF DUP2 GT ISZERO PUSH2 0x2CCF JUMPI PUSH2 0x2CCE PUSH2 0x2748 JUMP JUMPDEST JUMPDEST PUSH2 0x2CDB DUP7 DUP3 DUP8 ADD PUSH2 0x2C48 JUMP JUMPDEST SWAP2 POP POP SWAP3 POP SWAP3 POP SWAP3 JUMP JUMPDEST PUSH1 0x0 DUP1 PUSH1 0x40 DUP4 DUP6 SUB SLT ISZERO PUSH2 0x2CFC JUMPI PUSH2 0x2CFB PUSH2 0x2743 JUMP JUMPDEST JUMPDEST PUSH1 0x0 PUSH2 0x2D0A DUP6 DUP3 DUP7 ADD PUSH2 0x276E JUMP JUMPDEST SWAP3 POP POP PUSH1 0x20 PUSH2 0x2D1B DUP6 DUP3 DUP7 ADD PUSH2 0x276E JUMP JUMPDEST SWAP2 POP POP SWAP3 POP SWAP3 SWAP1 POP JUMP JUMPDEST PUSH1 0x0 PUSH1 0x20 DUP3 DUP5 SUB SLT ISZERO PUSH2 0x2D3B JUMPI PUSH2 0x2D3A PUSH2 0x2743 JUMP JUMPDEST JUMPDEST PUSH1 0x0 PUSH2 0x2D49 DUP5 DUP3 DUP6 ADD PUSH2 0x2A3E JUMP JUMPDEST SWAP2 POP POP SWAP3 SWAP2 POP POP JUMP JUMPDEST PUSH2 0x2D5B DUP2 PUSH2 0x2800 JUMP JUMPDEST DUP2 EQ PUSH2 0x2D66 JUMPI PUSH1 0x0 DUP1 REVERT JUMPDEST POP JUMP JUMPDEST PUSH1 0x0 DUP2 CALLDATALOAD SWAP1 POP PUSH2 0x2D78 DUP2 PUSH2 0x2D52 JUMP JUMPDEST SWAP3 SWAP2 POP POP JUMP JUMPDEST PUSH1 0x0 DUP1 PUSH1 0x40 DUP4 DUP6 SUB SLT ISZERO PUSH2 0x2D95 JUMPI PUSH2 0x2D94 PUSH2 0x2743 JUMP JUMPDEST JUMPDEST PUSH1 0x0 PUSH2 0x2DA3 DUP6 DUP3 DUP7 ADD PUSH2 0x2A3E JUMP JUMPDEST SWAP3 POP POP PUSH1 0x20 PUSH2 0x2DB4 DUP6 DUP3 DUP7 ADD PUSH2 0x2D69 JUMP JUMPDEST SWAP2 POP POP SWAP3 POP SWAP3 SWAP1 POP JUMP JUMPDEST PUSH1 0x0 PUSH8 0xFFFFFFFFFFFFFFFF DUP3 GT ISZERO PUSH2 0x2DD9 JUMPI PUSH2 0x2DD8 PUSH2 0x2B4B JUMP JUMPDEST JUMPDEST PUSH2 0x2DE2 DUP3 PUSH2 0x297F JUMP JUMPDEST SWAP1 POP PUSH1 0x20 DUP2 ADD SWAP1 POP SWAP2 SWAP1 POP JUMP JUMPDEST PUSH1 0x0 PUSH2 0x2E02 PUSH2 0x2DFD DUP5 PUSH2 0x2DBE JUMP JUMPDEST PUSH2 0x2BAB JUMP JUMPDEST SWAP1 POP DUP3 DUP2 MSTORE PUSH1 0x20 DUP2 ADD DUP5 DUP5 DUP5 ADD GT ISZERO PUSH2 0x2E1E JUMPI PUSH2 0x2E1D PUSH2 0x2B46 JUMP JUMPDEST JUMPDEST PUSH2 0x2E29 DUP5 DUP3 DUP6 PUSH2 0x2BF7 JUMP JUMPDEST POP SWAP4 SWAP3 POP POP POP JUMP JUMPDEST PUSH1 0x0 DUP3 PUSH1 0x1F DUP4 ADD SLT PUSH2 0x2E46 JUMPI PUSH2 0x2E45 PUSH2 0x2B41 JUMP JUMPDEST JUMPDEST DUP2 CALLDATALOAD PUSH2 0x2E56 DUP5 DUP3 PUSH1 0x20 DUP7 ADD PUSH2 0x2DEF JUMP JUMPDEST SWAP2 POP POP SWAP3 SWAP2 POP POP JUMP JUMPDEST PUSH1 0x0 DUP1 PUSH1 0x0 DUP1 PUSH1 0x80 DUP6 DUP8 SUB SLT ISZERO PUSH2 0x2E79 JUMPI PUSH2 0x2E78 PUSH2 0x2743 JUMP JUMPDEST JUMPDEST PUSH1 0x0 PUSH2 0x2E87 DUP8 DUP3 DUP9 ADD PUSH2 0x2A3E JUMP JUMPDEST SWAP5 POP POP PUSH1 0x20 PUSH2 0x2E98 DUP8 DUP3 DUP9 ADD PUSH2 0x2A3E JUMP JUMPDEST SWAP4 POP POP PUSH1 0x40 PUSH2 0x2EA9 DUP8 DUP3 DUP9 ADD PUSH2 0x276E JUMP JUMPDEST SWAP3 POP POP PUSH1 0x60 DUP6 ADD CALLDATALOAD PUSH8 0xFFFFFFFFFFFFFFFF DUP2 GT ISZERO PUSH2 0x2ECA JUMPI PUSH2 0x2EC9 PUSH2 0x2748 JUMP JUMPDEST JUMPDEST PUSH2 0x2ED6 DUP8 DUP3 DUP9 ADD PUSH2 0x2E31 JUMP JUMPDEST SWAP2 POP POP SWAP3 SWAP6 SWAP2 SWAP5 POP SWAP3 POP JUMP JUMPDEST PUSH1 0x0 PUSH1 0x20 DUP3 DUP5 SUB SLT ISZERO PUSH2 0x2EF8 JUMPI PUSH2 0x2EF7 PUSH2 0x2743 JUMP JUMPDEST JUMPDEST PUSH1 0x0 DUP3 ADD CALLDATALOAD PUSH8 0xFFFFFFFFFFFFFFFF DUP2 GT ISZERO PUSH2 0x2F16 JUMPI PUSH2 0x2F15 PUSH2 0x2748 JUMP JUMPDEST JUMPDEST PUSH2 0x2F22 DUP5 DUP3 DUP6 ADD PUSH2 0x2C48 JUMP JUMPDEST SWAP2 POP POP SWAP3 SWAP2 POP POP JUMP JUMPDEST PUSH1 0x0 DUP1 PUSH1 0x40 DUP4 DUP6 SUB SLT ISZERO PUSH2 0x2F42 JUMPI PUSH2 0x2F41 PUSH2 0x2743 JUMP JUMPDEST JUMPDEST PUSH1 0x0 PUSH2 0x2F50 DUP6 DUP3 DUP7 ADD PUSH2 0x2A3E JUMP JUMPDEST SWAP3 POP POP PUSH1 0x20 PUSH2 0x2F61 DUP6 DUP3 DUP7 ADD PUSH2 0x2A3E JUMP JUMPDEST SWAP2 POP POP SWAP3 POP SWAP3 SWAP1 POP JUMP JUMPDEST PUSH32 0x4E487B7100000000000000000000000000000000000000000000000000000000 PUSH1 0x0 MSTORE PUSH1 0x22 PUSH1 0x4 MSTORE PUSH1 0x24 PUSH1 0x0 REVERT JUMPDEST PUSH1 0x0 PUSH1 0x2 DUP3 DIV SWAP1 POP PUSH1 0x1 DUP3 AND DUP1 PUSH2 0x2FB2 JUMPI PUSH1 0x7F DUP3 AND SWAP2 POP JUMPDEST PUSH1 0x20 DUP3 LT DUP2 SUB PUSH2 0x2FC5 JUMPI PUSH2 0x2FC4 PUSH2 0x2F6B JUMP JUMPDEST JUMPDEST POP SWAP2 SWAP1 POP JUMP JUMPDEST PUSH32 0x46756E64696E67206E6F74207375636365737366756C00000000000000000000 PUSH1 0x0 DUP3 ADD MSTORE POP JUMP JUMPDEST PUSH1 0x0 PUSH2 0x3001 PUSH1 0x16 DUP4 PUSH2 0x2944 JUMP JUMPDEST SWAP2 POP PUSH2 0x300C DUP3 PUSH2 0x2FCB JUMP JUMPDEST PUSH1 0x20 DUP3 ADD SWAP1 POP SWAP2 SWAP1 POP JUMP JUMPDEST PUSH1 0x0 PUSH1 0x20 DUP3 ADD SWAP1 POP DUP2 DUP2 SUB PUSH1 0x0 DUP4 ADD MSTORE PUSH2 0x3030 DUP2 PUSH2 0x2FF4 JUMP JUMPDEST SWAP1 POP SWAP2 SWAP1 POP JUMP JUMPDEST PUSH32 0x46756E647320616C72656164792077697468647261776E000000000000000000 PUSH1 0x0 DUP3 ADD MSTORE POP JUMP JUMPDEST PUSH1 0x0 PUSH2 0x306D PUSH1 0x17 DUP4 PUSH2 0x2944 JUMP JUMPDEST SWAP2 POP PUSH2 0x3078 DUP3 PUSH2 0x3037 JUMP JUMPDEST PUSH1 0x20 DUP3 ADD SWAP1 POP SWAP2 SWAP1 POP JUMP JUMPDEST PUSH1 0x0 PUSH1 0x20 DUP3 ADD SWAP1 POP DUP2 DUP2 SUB PUSH1 0x0 DUP4 ADD MSTORE PUSH2 0x309C DUP2 PUSH2 0x3060 JUMP JUMPDEST SWAP1 POP SWAP2 SWAP1 POP JUMP JUMPDEST PUSH1 0x0 PUSH1 0x60 DUP3 ADD SWAP1 POP PUSH2 0x30B8 PUSH1 0x0 DUP4 ADD DUP7 PUSH2 0x29FD JUMP JUMPDEST PUSH2 0x30C5 PUSH1 0x20 DUP4 ADD DUP6 PUSH2 0x27B0 JUMP JUMPDEST PUSH2 0x30D2 PUSH1 0x40 DUP4 ADD DUP5 PUSH2 0x29FD JUMP JUMPDEST SWAP5 SWAP4 POP POP POP POP JUMP JUMPDEST PUSH32 0x46756E64696E6720706572696F64206973206F76657200000000000000000000 PUSH1 0x0 DUP3 ADD MSTORE POP JUMP JUMPDEST PUSH1 0x0 PUSH2 0x3110 PUSH1 0x16 DUP4 PUSH2 0x2944 JUMP JUMPDEST SWAP2 POP PUSH2 0x311B DUP3 PUSH2 0x30DA JUMP JUMPDEST PUSH1 0x20 DUP3 ADD SWAP1 POP SWAP2 SWAP1 POP JUMP JUMPDEST PUSH1 0x0 PUSH1 0x20 DUP3 ADD SWAP1 POP DUP2 DUP2 SUB PUSH1 0x0 DUP4 ADD MSTORE PUSH2 0x313F DUP2 PUSH2 0x3103 JUMP JUMPDEST SWAP1 POP SWAP2 SWAP1 POP JUMP JUMPDEST PUSH32 0x46756E64696E6720776173207375636365737366756C6C000000000000000000 PUSH1 0x0 DUP3 ADD MSTORE POP JUMP JUMPDEST PUSH1 0x0 PUSH2 0x317C PUSH1 0x17 DUP4 PUSH2 0x2944 JUMP JUMPDEST SWAP2 POP PUSH2 0x3187 DUP3 PUSH2 0x3146 JUMP JUMPDEST PUSH1 0x20 DUP3 ADD SWAP1 POP SWAP2 SWAP1 POP JUMP JUMPDEST PUSH1 0x0 PUSH1 0x20 DUP3 ADD SWAP1 POP DUP2 DUP2 SUB PUSH1 0x0 DUP4 ADD MSTORE PUSH2 0x31AB DUP2 PUSH2 0x316F JUMP JUMPDEST SWAP1 POP SWAP2 SWAP1 POP JUMP JUMPDEST PUSH32 0x4E6F20636F6E747269627574696F6E206D616465206279202074686973206164 PUSH1 0x0 DUP3 ADD MSTORE PUSH32 0x6472657373000000000000000000000000000000000000000000000000000000 PUSH1 0x20 DUP3 ADD MSTORE POP JUMP JUMPDEST PUSH1 0x0 PUSH2 0x320E PUSH1 0x25 DUP4 PUSH2 0x2944 JUMP JUMPDEST SWAP2 POP PUSH2 0x3219 DUP3 PUSH2 0x31B2 JUMP JUMPDEST PUSH1 0x40 DUP3 ADD SWAP1 POP SWAP2 SWAP1 POP JUMP JUMPDEST PUSH1 0x0 PUSH1 0x20 DUP3 ADD SWAP1 POP DUP2 DUP2 SUB PUSH1 0x0 DUP4 ADD MSTORE PUSH2 0x323D DUP2 PUSH2 0x3201 JUMP JUMPDEST SWAP1 POP SWAP2 SWAP1 POP JUMP JUMPDEST PUSH32 0x4E487B7100000000000000000000000000000000000000000000000000000000 PUSH1 0x0 MSTORE PUSH1 0x11 PUSH1 0x4 MSTORE PUSH1 0x24 PUSH1 0x0 REVERT JUMPDEST PUSH1 0x0 PUSH2 0x327E DUP3 PUSH2 0x274D JUMP JUMPDEST SWAP2 POP PUSH32 0xFFFFFFFFFFFFFFFFFFFFFFFFFFFFFFFFFFFFFFFFFFFFFFFFFFFFFFFFFFFFFFFF DUP3 SUB PUSH2 0x32B0 JUMPI PUSH2 0x32AF PUSH2 0x3244 JUMP JUMPDEST JUMPDEST PUSH1 0x1 DUP3 ADD SWAP1 POP SWAP2 SWAP1 POP JUMP JUMPDEST PUSH1 0x0 PUSH2 0x32C6 DUP3 PUSH2 0x274D JUMP JUMPDEST SWAP2 POP PUSH2 0x32D1 DUP4 PUSH2 0x274D JUMP JUMPDEST SWAP3 POP DUP3 DUP3 ADD SWAP1 POP DUP1 DUP3 GT ISZERO PUSH2 0x32E9 JUMPI PUSH2 0x32E8 PUSH2 0x3244 JUMP JUMPDEST JUMPDEST SWAP3 SWAP2 POP POP JUMP JUMPDEST PUSH1 0x0 PUSH1 0x60 DUP3 ADD SWAP1 POP PUSH2 0x3304 PUSH1 0x0 DUP4 ADD DUP7 PUSH2 0x29FD JUMP JUMPDEST PUSH2 0x3311 PUSH1 0x20 DUP4 ADD DUP6 PUSH2 0x27B0 JUMP JUMPDEST PUSH2 0x331E PUSH1 0x40 DUP4 ADD DUP5 PUSH2 0x27B0 JUMP JUMPDEST SWAP5 SWAP4 POP POP POP POP JUMP JUMPDEST PUSH32 0x4F6E6C792061646D696E2063616E20706572666F726D20746869732061637469 PUSH1 0x0 DUP3 ADD MSTORE PUSH32 0x6F6E000000000000000000000000000000000000000000000000000000000000 PUSH1 0x20 DUP3 ADD MSTORE POP JUMP JUMPDEST PUSH1 0x0 PUSH2 0x3382 PUSH1 0x22 DUP4 PUSH2 0x2944 JUMP JUMPDEST SWAP2 POP PUSH2 0x338D DUP3 PUSH2 0x3326 JUMP JUMPDEST PUSH1 0x40 DUP3 ADD SWAP1 POP SWAP2 SWAP1 POP JUMP JUMPDEST PUSH1 0x0 PUSH1 0x20 DUP3 ADD SWAP1 POP DUP2 DUP2 SUB PUSH1 0x0 DUP4 ADD MSTORE PUSH2 0x33B1 DUP2 PUSH2 0x3375 JUMP JUMPDEST SWAP1 POP SWAP2 SWAP1 POP JUMP JUMPDEST PUSH32 0x4E6F20636F6E747269627574696F6E206D616465000000000000000000000000 PUSH1 0x0 DUP3 ADD MSTORE POP JUMP JUMPDEST PUSH1 0x0 PUSH2 0x33EE PUSH1 0x14 DUP4 PUSH2 0x2944 JUMP JUMPDEST SWAP2 POP PUSH2 0x33F9 DUP3 PUSH2 0x33B8 JUMP JUMPDEST PUSH1 0x20 DUP3 ADD SWAP1 POP SWAP2 SWAP1 POP JUMP JUMPDEST PUSH1 0x0 PUSH1 0x20 DUP3 ADD SWAP1 POP DUP2 DUP2 SUB PUSH1 0x0 DUP4 ADD MSTORE PUSH2 0x341D DUP2 PUSH2 0x33E1 JUMP JUMPDEST SWAP1 POP SWAP2 SWAP1 POP JUMP JUMPDEST PUSH32 0x50726F706F73616C206973206E6F7420617070726F7665640000000000000000 PUSH1 0x0 DUP3 ADD MSTORE POP JUMP JUMPDEST PUSH1 0x0 PUSH2 0x345A PUSH1 0x18 DUP4 PUSH2 0x2944 JUMP JUMPDEST SWAP2 POP PUSH2 0x3465 DUP3 PUSH2 0x3424 JUMP JUMPDEST PUSH1 0x20 DUP3 ADD SWAP1 POP SWAP2 SWAP1 POP JUMP JUMPDEST PUSH1 0x0 PUSH1 0x20 DUP3 ADD SWAP1 POP DUP2 DUP2 SUB PUSH1 0x0 DUP4 ADD MSTORE PUSH2 0x3489 DUP2 PUSH2 0x344D JUMP JUMPDEST SWAP1 POP SWAP2 SWAP1 POP JUMP JUMPDEST PUSH32 0x50726F706F73616C20646561646C696E65206861732070617373656400000000 PUSH1 0x0 DUP3 ADD MSTORE POP JUMP JUMPDEST PUSH1 0x0 PUSH2 0x34C6 PUSH1 0x1C DUP4 PUSH2 0x2944 JUMP JUMPDEST SWAP2 POP PUSH2 0x34D1 DUP3 PUSH2 0x3490 JUMP JUMPDEST PUSH1 0x20 DUP3 ADD SWAP1 POP SWAP2 SWAP1 POP JUMP JUMPDEST PUSH1 0x0 PUSH1 0x20 DUP3 ADD SWAP1 POP DUP2 DUP2 SUB PUSH1 0x0 DUP4 ADD MSTORE PUSH2 0x34F5 DUP2 PUSH2 0x34B9 JUMP JUMPDEST SWAP1 POP SWAP2 SWAP1 POP JUMP JUMPDEST PUSH32 0x54617267657420616D6F756E7420726561636865640000000000000000000000 PUSH1 0x0 DUP3 ADD MSTORE POP JUMP JUMPDEST PUSH1 0x0 PUSH2 0x3532 PUSH1 0x15 DUP4 PUSH2 0x2944 JUMP JUMPDEST SWAP2 POP PUSH2 0x353D DUP3 PUSH2 0x34FC JUMP JUMPDEST PUSH1 0x20 DUP3 ADD SWAP1 POP SWAP2 SWAP1 POP JUMP JUMPDEST PUSH1 0x0 PUSH1 0x20 DUP3 ADD SWAP1 POP DUP2 DUP2 SUB PUSH1 0x0 DUP4 ADD MSTORE PUSH2 0x3561 DUP2 PUSH2 0x3525 JUMP JUMPDEST SWAP1 POP SWAP2 SWAP1 POP JUMP JUMPDEST PUSH1 0x0 PUSH1 0x40 DUP3 ADD SWAP1 POP PUSH2 0x357D PUSH1 0x0 DUP4 ADD DUP6 PUSH2 0x29FD JUMP JUMPDEST PUSH2 0x358A PUSH1 0x20 DUP4 ADD DUP5 PUSH2 0x27B0 JUMP JUMPDEST SWAP4 SWAP3 POP POP POP JUMP JUMPDEST PUSH1 0x0 DUP2 MLOAD SWAP1 POP SWAP2 SWAP1 POP JUMP JUMPDEST PUSH1 0x0 DUP3 DUP3 MSTORE PUSH1 0x20 DUP3 ADD SWAP1 POP SWAP3 SWAP2 POP POP JUMP JUMPDEST PUSH1 0x0 PUSH2 0x35B8 DUP3 PUSH2 0x3591 JUMP JUMPDEST PUSH2 0x35C2 DUP2 DUP6 PUSH2 0x359C JUMP JUMPDEST SWAP4 POP PUSH2 0x35D2 DUP2 DUP6 PUSH1 0x20 DUP7 ADD PUSH2 0x2955 JUMP JUMPDEST PUSH2 0x35DB DUP2 PUSH2 0x297F JUMP JUMPDEST DUP5 ADD SWAP2 POP POP SWAP3 SWAP2 POP POP JUMP JUMPDEST PUSH1 0x0 PUSH1 0x80 DUP3 ADD SWAP1 POP PUSH2 0x35FB PUSH1 0x0 DUP4 ADD DUP8 PUSH2 0x29FD JUMP JUMPDEST PUSH2 0x3608 PUSH1 0x20 DUP4 ADD DUP7 PUSH2 0x29FD JUMP JUMPDEST PUSH2 0x3615 PUSH1 0x40 DUP4 ADD DUP6 PUSH2 0x27B0 JUMP JUMPDEST DUP2 DUP2 SUB PUSH1 0x60 DUP4 ADD MSTORE PUSH2 0x3627 DUP2 DUP5 PUSH2 0x35AD JUMP JUMPDEST SWAP1 POP SWAP6 SWAP5 POP POP POP POP POP JUMP JUMPDEST PUSH1 0x0 DUP2 MLOAD SWAP1 POP PUSH2 0x3641 DUP2 PUSH2 0x28C5 JUMP JUMPDEST SWAP3 SWAP2 POP POP JUMP JUMPDEST PUSH1 0x0 PUSH1 0x20 DUP3 DUP5 SUB SLT ISZERO PUSH2 0x365D JUMPI PUSH2 0x365C PUSH2 0x2743 JUMP JUMPDEST JUMPDEST PUSH1 0x0 PUSH2 0x366B DUP5 DUP3 DUP6 ADD PUSH2 0x3632 JUMP JUMPDEST SWAP2 POP POP SWAP3 SWAP2 POP POP JUMP JUMPDEST PUSH32 0x4552433732314D657461646174613A2055524920736574206F66206E6F6E6578 PUSH1 0x0 DUP3 ADD MSTORE PUSH32 0x697374656E7420746F6B656E0000000000000000000000000000000000000000 PUSH1 0x20 DUP3 ADD MSTORE POP JUMP JUMPDEST PUSH1 0x0 PUSH2 0x36D0 PUSH1 0x2C DUP4 PUSH2 0x2944 JUMP JUMPDEST SWAP2 POP PUSH2 0x36DB DUP3 PUSH2 0x3674 JUMP JUMPDEST PUSH1 0x40 DUP3 ADD SWAP1 POP SWAP2 SWAP1 POP JUMP JUMPDEST PUSH1 0x0 PUSH1 0x20 DUP3 ADD SWAP1 POP DUP2 DUP2 SUB PUSH1 0x0 DUP4 ADD MSTORE PUSH2 0x36FF DUP2 PUSH2 0x36C3 JUMP JUMPDEST SWAP1 POP SWAP2 SWAP1 POP JUMP JUMPDEST PUSH1 0x0 DUP2 SWAP1 POP DUP2 PUSH1 0x0 MSTORE PUSH1 0x20 PUSH1 0x0 KECCAK256 SWAP1 POP SWAP2 SWAP1 POP JUMP JUMPDEST PUSH1 0x0 PUSH1 0x20 PUSH1 0x1F DUP4 ADD DIV SWAP1 POP SWAP2 SWAP1 POP JUMP JUMPDEST PUSH1 0x0 DUP3 DUP3 SHL SWAP1 POP SWAP3 SWAP2 POP POP JUMP JUMPDEST PUSH1 0x0 PUSH1 0x8 DUP4 MUL PUSH2 0x3768 PUSH32 0xFFFFFFFFFFFFFFFFFFFFFFFFFFFFFFFFFFFFFFFFFFFFFFFFFFFFFFFFFFFFFFFF DUP3 PUSH2 0x372B JUMP JUMPDEST PUSH2 0x3772 DUP7 DUP4 PUSH2 0x372B JUMP JUMPDEST SWAP6 POP DUP1 NOT DUP5 AND SWAP4 POP DUP1 DUP7 AND DUP5 OR SWAP3 POP POP POP SWAP4 SWAP3 POP POP POP JUMP JUMPDEST PUSH1 0x0 DUP2 SWAP1 POP SWAP2 SWAP1 POP JUMP JUMPDEST PUSH1 0x0 PUSH2 0x37AF PUSH2 0x37AA PUSH2 0x37A5 DUP5 PUSH2 0x274D JUMP JUMPDEST PUSH2 0x378A JUMP JUMPDEST PUSH2 0x274D JUMP JUMPDEST SWAP1 POP SWAP2 SWAP1 POP JUMP JUMPDEST PUSH1 0x0 DUP2 SWAP1 POP SWAP2 SWAP1 POP JUMP JUMPDEST PUSH2 0x37C9 DUP4 PUSH2 0x3794 JUMP JUMPDEST PUSH2 0x37DD PUSH2 0x37D5 DUP3 PUSH2 0x37B6 JUMP JUMPDEST DUP5 DUP5 SLOAD PUSH2 0x3738 JUMP JUMPDEST DUP3 SSTORE POP POP POP POP JUMP JUMPDEST PUSH1 0x0 SWAP1 JUMP JUMPDEST PUSH2 0x37F2 PUSH2 0x37E5 JUMP JUMPDEST PUSH2 0x37FD DUP2 DUP5 DUP5 PUSH2 0x37C0 JUMP JUMPDEST POP POP POP JUMP JUMPDEST JUMPDEST DUP2 DUP2 LT ISZERO PUSH2 0x3821 JUMPI PUSH2 0x3816 PUSH1 0x0 DUP3 PUSH2 0x37EA JUMP JUMPDEST PUSH1 0x1 DUP2 ADD SWAP1 POP PUSH2 0x3803 JUMP JUMPDEST POP POP JUMP JUMPDEST PUSH1 0x1F DUP3 GT ISZERO PUSH2 0x3866 JUMPI PUSH2 0x3837 DUP2 PUSH2 0x3706 JUMP JUMPDEST PUSH2 0x3840 DUP5 PUSH2 0x371B JUMP JUMPDEST DUP2 ADD PUSH1 0x20 DUP6 LT ISZERO PUSH2 0x384F JUMPI DUP2 SWAP1 POP JUMPDEST PUSH2 0x3863 PUSH2 0x385B DUP6 PUSH2 0x371B JUMP JUMPDEST DUP4 ADD DUP3 PUSH2 0x3802 JUMP JUMPDEST POP POP JUMPDEST POP POP POP JUMP JUMPDEST PUSH1 0x0 DUP3 DUP3 SHR SWAP1 POP SWAP3 SWAP2 POP POP JUMP JUMPDEST PUSH1 0x0 PUSH2 0x3889 PUSH1 0x0 NOT DUP5 PUSH1 0x8 MUL PUSH2 0x386B JUMP JUMPDEST NOT DUP1 DUP4 AND SWAP2 POP POP SWAP3 SWAP2 POP POP JUMP JUMPDEST PUSH1 0x0 PUSH2 0x38A2 DUP4 DUP4 PUSH2 0x3878 JUMP JUMPDEST SWAP2 POP DUP3 PUSH1 0x2 MUL DUP3 OR SWAP1 POP SWAP3 SWAP2 POP POP JUMP JUMPDEST PUSH2 0x38BB DUP3 PUSH2 0x2939 JUMP JUMPDEST PUSH8 0xFFFFFFFFFFFFFFFF DUP2 GT ISZERO PUSH2 0x38D4 JUMPI PUSH2 0x38D3 PUSH2 0x2B4B JUMP JUMPDEST JUMPDEST PUSH2 0x38DE DUP3 SLOAD PUSH2 0x2F9A JUMP JUMPDEST PUSH2 0x38E9 DUP3 DUP3 DUP6 PUSH2 0x3825 JUMP JUMPDEST PUSH1 0x0 PUSH1 0x20 SWAP1 POP PUSH1 0x1F DUP4 GT PUSH1 0x1 DUP2 EQ PUSH2 0x391C JUMPI PUSH1 0x0 DUP5 ISZERO PUSH2 0x390A JUMPI DUP3 DUP8 ADD MLOAD SWAP1 POP JUMPDEST PUSH2 0x3914 DUP6 DUP3 PUSH2 0x3896 JUMP JUMPDEST DUP7 SSTORE POP PUSH2 0x397C JUMP JUMPDEST PUSH1 0x1F NOT DUP5 AND PUSH2 0x392A DUP7 PUSH2 0x3706 JUMP JUMPDEST PUSH1 0x0 JUMPDEST DUP3 DUP2 LT ISZERO PUSH2 0x3952 JUMPI DUP5 DUP10 ADD MLOAD DUP3 SSTORE PUSH1 0x1 DUP3 ADD SWAP2 POP PUSH1 0x20 DUP6 ADD SWAP5 POP PUSH1 0x20 DUP2 ADD SWAP1 POP PUSH2 0x392D JUMP JUMPDEST DUP7 DUP4 LT ISZERO PUSH2 0x396F JUMPI DUP5 DUP10 ADD MLOAD PUSH2 0x396B PUSH1 0x1F DUP10 AND DUP3 PUSH2 0x3878 JUMP JUMPDEST DUP4 SSTORE POP JUMPDEST PUSH1 0x1 PUSH1 0x2 DUP9 MUL ADD DUP9 SSTORE POP POP POP JUMPDEST POP POP POP POP POP POP JUMP INVALID LOG2 PUSH5 0x6970667358 0x22 SLT KECCAK256 0xEA SWAP1 0x22 0xEB AND 0xF7 STOP PREVRANDAO 0xC7 SELFBALANCE 0xB6 0x49 LOG4 0xE 0xB6 SWAP3 ADDRESS 0xF7 MLOAD DUP11 DUP9 CALLDATALOAD LOG3 0x2F RETURNDATACOPY SWAP2 PUSH10 0xB4A406655664736F6C63 NUMBER STOP ADDMOD OR STOP CALLER "},"methodIdentifiers":{"admin()":"f851a440","approve(address,uint256)":"095ea7b3","approveProposal(uint256)":"98951b56","balanceOf(address)":"70a08231","contribute(uint256)":"c1cbbca7","contributions(uint256,address)":"3d891f59","createNFT(string)":"da2ed03e","createProposal(uint256,uint256)":"6935bda6","createProposalwithNFT(uint256,uint256,string)":"46d7c9bf","getApproved(uint256)":"081812fc","isApprovedForAll(address,address)":"e985e9c5","mintNFTForContributor(uint256)":"b9655c45","name()":"06fdde03","owner()":"8da5cb5b","ownerOf(uint256)":"6352211e","proposalCounter()":"0c0512e9","proposals(uint256)":"013cf08b","refund(uint256)":"278ecde1","renounceOwnership()":"715018a6","safeTransferFrom(address,address,uint256)":"42842e0e","safeTransferFrom(address,address,uint256,bytes)":"b88d4fde","setApprovalForAll(address,bool)":"a22cb465","supportsInterface(bytes4)":"01ffc9a7","symbol()":"95d89b41","tokenCounter()":"d082e381","tokenURI(uint256)":"c87b56dd","transferFrom(address,address,uint256)":"23b872dd","transferOwnership(address)":"f2fde38b","withdrawFunds(uint256)":"155dd5ee"}}}}}