{"contracts/Nasaafunding.sol":{"Nasaafunding":{"abi":[{"inputs":[],"stateMutability":"nonpayable","type":"constructor"},{"anonymous":false,"inputs":[{"indexed":true,"internalType":"uint256","name":"proposalId","type":"uint256"},{"indexed":false,"internalType":"address","name":"contributor","type":"address"},{"indexed":false,"internalType":"uint256","name":"amount","type":"uint256"}],"name":"ContributionMade","type":"event"},{"anonymous":false,"inputs":[{"indexed":true,"internalType":"uint256","name":"proposalId","type":"uint256"},{"indexed":false,"internalType":"uint256","name":"amount","type":"uint256"}],"name":"FundsWithdrawn","type":"event"},{"anonymous":false,"inputs":[{"indexed":true,"internalType":"uint256","name":"proposalId","type":"uint256"}],"name":"ProposalApproved","type":"event"},{"anonymous":false,"inputs":[{"indexed":true,"internalType":"uint256","name":"proposalId","type":"uint256"},{"indexed":false,"internalType":"address","name":"creator","type":"address"},{"indexed":false,"internalType":"uint256","name":"targetAmount","type":"uint256"},{"indexed":false,"internalType":"uint256","name":"deadline","type":"uint256"}],"name":"ProposalCreated","type":"event"},{"inputs":[],"name":"admin","outputs":[{"internalType":"address","name":"","type":"address"}],"stateMutability":"view","type":"function"},{"inputs":[{"internalType":"uint256","name":"proposalId","type":"uint256"}],"name":"approveProposal","outputs":[],"stateMutability":"nonpayable","type":"function"},{"inputs":[{"internalType":"uint256","name":"proposalId","type":"uint256"}],"name":"contribute","outputs":[],"stateMutability":"payable","type":"function"},{"inputs":[{"internalType":"uint256","name":"","type":"uint256"},{"internalType":"address","name":"","type":"address"}],"name":"contributions","outputs":[{"internalType":"uint256","name":"","type":"uint256"}],"stateMutability":"view","type":"function"},{"inputs":[{"internalType":"uint256","name":"targetAmount","type":"uint256"},{"internalType":"uint256","name":"duration","type":"uint256"}],"name":"createProposal","outputs":[{"internalType":"uint256","name":"","type":"uint256"}],"stateMutability":"nonpayable","type":"function"},{"inputs":[],"name":"proposalCounter","outputs":[{"internalType":"uint256","name":"","type":"uint256"}],"stateMutability":"view","type":"function"},{"inputs":[{"internalType":"uint256","name":"","type":"uint256"}],"name":"proposals","outputs":[{"internalType":"uint256","name":"id","type":"uint256"},{"internalType":"address payable","name":"creator","type":"address"},{"internalType":"uint256","name":"targetAmount","type":"uint256"},{"internalType":"uint256","name":"currentAmount","type":"uint256"},{"internalType":"uint256","name":"deadline","type":"uint256"},{"internalType":"bool","name":"approved","type":"bool"},{"internalType":"bool","name":"fundingSuccessful","type":"bool"},{"internalType":"bool","name":"fundsWithdrawn","type":"bool"}],"stateMutability":"view","type":"function"},{"inputs":[{"internalType":"uint256","name":"proposalId","type":"uint256"}],"name":"refund","outputs":[],"stateMutability":"nonpayable","type":"function"},{"inputs":[{"internalType":"uint256","name":"proposalId","type":"uint256"}],"name":"withdrawFunds","outputs":[],"stateMutability":"nonpayable","type":"function"}],"evm":{"bytecode":{"linkReferences":{},"object":"608060405234801561001057600080fd5b5033600360006101000a81548173ffffffffffffffffffffffffffffffffffffffff021916908373ffffffffffffffffffffffffffffffffffffffff160217905550611466806100616000396000f3fe6080604052600436106100865760003560e01c80633d891f59116100595780633d891f591461014c5780636935bda61461018957806398951b56146101c6578063c1cbbca7146101ef578063f851a4401461020b57610086565b8063013cf08b1461008b5780630c0512e9146100cf578063155dd5ee146100fa578063278ecde114610123575b600080fd5b34801561009757600080fd5b506100b260048036038101906100ad9190610ce3565b610236565b6040516100c6989796959493929190610d7b565b60405180910390f35b3480156100db57600080fd5b506100e46102c5565b6040516100f19190610df9565b60405180910390f35b34801561010657600080fd5b50610121600480360381019061011c9190610ce3565b6102cb565b005b34801561012f57600080fd5b5061014a60048036038101906101459190610ce3565b610514565b005b34801561015857600080fd5b50610173600480360381019061016e9190610e52565b610759565b6040516101809190610df9565b60405180910390f35b34801561019557600080fd5b506101b060048036038101906101ab9190610e92565b61077e565b6040516101bd9190610df9565b60405180910390f35b3480156101d257600080fd5b506101ed60048036038101906101e89190610ce3565b610938565b005b61020960048036038101906102049190610ce3565b610a26565b005b34801561021757600080fd5b50610220610c82565b60405161022d9190610ee1565b60405180910390f35b60016020528060005260406000206000915090508060000154908060010160009054906101000a900473ffffffffffffffffffffffffffffffffffffffff16908060020154908060030154908060040154908060050160009054906101000a900460ff16908060050160019054906101000a900460ff16908060050160029054906101000a900460ff16905088565b60005481565b806001600082815260200190815260200160002060010160009054906101000a900473ffffffffffffffffffffffffffffffffffffffff1673ffffffffffffffffffffffffffffffffffffffff163373ffffffffffffffffffffffffffffffffffffffff161461033a57600080fd5b6001600083815260200190815260200160002060050160019054906101000a900460ff1661039d576040517f08c379a000000000000000000000000000000000000000000000000000000000815260040161039490610f59565b60405180910390fd5b6001600083815260200190815260200160002060050160029054906101000a900460ff1615610401576040517f08c379a00000000000000000000000000000000000000000000000000000000081526004016103f890610fc5565b60405180910390fd5b600180600084815260200190815260200160002060050160026101000a81548160ff0219169083151502179055506001600083815260200190815260200160002060010160009054906101000a900473ffffffffffffffffffffffffffffffffffffffff1673ffffffffffffffffffffffffffffffffffffffff166108fc60016000858152602001908152602001600020600301549081150290604051600060405180830381858888f193505050501580156104c1573d6000803e3d6000fd5b50817fd66662c0ded9e58fd31d5e44944bcfd07ffc15e6927ecc1382e7941cb7bd24c460016000858152602001908152602001600020600301546040516105089190610df9565b60405180910390a25050565b6001600082815260200190815260200160002060040154421161056c576040517f08c379a000000000000000000000000000000000000000000000000000000000815260040161056390611031565b60405180910390fd5b6001600082815260200190815260200160002060050160019054906101000a900460ff16156105d0576040517f08c379a00000000000000000000000000000000000000000000000000000000081526004016105c79061109d565b60405180910390fd5b60006002600083815260200190815260200160002060003373ffffffffffffffffffffffffffffffffffffffff1673ffffffffffffffffffffffffffffffffffffffff1681526020019081526020016000205411610663576040517f08c379a000000000000000000000000000000000000000000000000000000000815260040161065a9061112f565b60405180910390fd5b60006002600083815260200190815260200160002060003373ffffffffffffffffffffffffffffffffffffffff1673ffffffffffffffffffffffffffffffffffffffff16815260200190815260200160002054905060006002600084815260200190815260200160002060003373ffffffffffffffffffffffffffffffffffffffff1673ffffffffffffffffffffffffffffffffffffffff168152602001908152602001600020819055503373ffffffffffffffffffffffffffffffffffffffff166108fc829081150290604051600060405180830381858888f19350505050158015610754573d6000803e3d6000fd5b505050565b6002602052816000526040600020602052806000526040600020600091509150505481565b60008060008154809291906107929061117e565b919050555060405180610100016040528060005481526020013373ffffffffffffffffffffffffffffffffffffffff1681526020018481526020016000815260200183426107e091906111c6565b81526020016000151581526020016000151581526020016000151581525060016000805481526020019081526020016000206000820151816000015560208201518160010160006101000a81548173ffffffffffffffffffffffffffffffffffffffff021916908373ffffffffffffffffffffffffffffffffffffffff16021790555060408201518160020155606082015181600301556080820151816004015560a08201518160050160006101000a81548160ff02191690831515021790555060c08201518160050160016101000a81548160ff02191690831515021790555060e08201518160050160026101000a81548160ff0219169083151502179055509050506000547fd38d9a9a102af286aea1cbcadb8aab8446a90859626389db3710ed4fea4c2c393385854261091691906111c6565b604051610925939291906111fa565b60405180910390a2600054905092915050565b600360009054906101000a900473ffffffffffffffffffffffffffffffffffffffff1673ffffffffffffffffffffffffffffffffffffffff163373ffffffffffffffffffffffffffffffffffffffff16146109c8576040517f08c379a00000000000000000000000000000000000000000000000000000000081526004016109bf906112a3565b60405180910390fd5b600180600083815260200190815260200160002060050160006101000a81548160ff021916908315150217905550807f28ec9e38ba73636ceb2f6c1574136f83bd46284a3c74734b711bf45e12f8d92960405160405180910390a250565b6001600082815260200190815260200160002060050160009054906101000a900460ff16610a89576040517f08c379a0000000000000000000000000000000000000000000000000000000008152600401610a809061130f565b60405180910390fd5b60016000828152602001908152602001600020600401544210610ae1576040517f08c379a0000000000000000000000000000000000000000000000000000000008152600401610ad89061137b565b60405180910390fd5b6001600082815260200190815260200160002060020154600160008381526020019081526020016000206003015410610b4f576040517f08c379a0000000000000000000000000000000000000000000000000000000008152600401610b46906113e7565b60405180910390fd5b346002600083815260200190815260200160002060003373ffffffffffffffffffffffffffffffffffffffff1673ffffffffffffffffffffffffffffffffffffffff1681526020019081526020016000206000828254610baf91906111c6565b9250508190555034600160008381526020019081526020016000206003016000828254610bdc91906111c6565b92505081905550807f0a4a91237423e0a1766a761c7cb029311d8b95d6b1b81db1b949a70c98b4e08e3334604051610c15929190611407565b60405180910390a26001600082815260200190815260200160002060020154600160008381526020019081526020016000206003015410610c7f57600180600083815260200190815260200160002060050160016101000a81548160ff0219169083151502179055505b50565b600360009054906101000a900473ffffffffffffffffffffffffffffffffffffffff1681565b600080fd5b6000819050919050565b610cc081610cad565b8114610ccb57600080fd5b50565b600081359050610cdd81610cb7565b92915050565b600060208284031215610cf957610cf8610ca8565b5b6000610d0784828501610cce565b91505092915050565b610d1981610cad565b82525050565b600073ffffffffffffffffffffffffffffffffffffffff82169050919050565b6000610d4a82610d1f565b9050919050565b610d5a81610d3f565b82525050565b60008115159050919050565b610d7581610d60565b82525050565b600061010082019050610d91600083018b610d10565b610d9e602083018a610d51565b610dab6040830189610d10565b610db86060830188610d10565b610dc56080830187610d10565b610dd260a0830186610d6c565b610ddf60c0830185610d6c565b610dec60e0830184610d6c565b9998505050505050505050565b6000602082019050610e0e6000830184610d10565b92915050565b6000610e1f82610d1f565b9050919050565b610e2f81610e14565b8114610e3a57600080fd5b50565b600081359050610e4c81610e26565b92915050565b60008060408385031215610e6957610e68610ca8565b5b6000610e7785828601610cce565b9250506020610e8885828601610e3d565b9150509250929050565b60008060408385031215610ea957610ea8610ca8565b5b6000610eb785828601610cce565b9250506020610ec885828601610cce565b9150509250929050565b610edb81610e14565b82525050565b6000602082019050610ef66000830184610ed2565b92915050565b600082825260208201905092915050565b7f46756e64696e67206e6f74207375636365737366756c00000000000000000000600082015250565b6000610f43601683610efc565b9150610f4e82610f0d565b602082019050919050565b60006020820190508181036000830152610f7281610f36565b9050919050565b7f46756e647320616c72656164792077697468647261776e000000000000000000600082015250565b6000610faf601783610efc565b9150610fba82610f79565b602082019050919050565b60006020820190508181036000830152610fde81610fa2565b9050919050565b7f46756e64696e6720706572696f64206973206f76657200000000000000000000600082015250565b600061101b601683610efc565b915061102682610fe5565b602082019050919050565b6000602082019050818103600083015261104a8161100e565b9050919050565b7f46756e64696e6720776173207375636365737366756c6c000000000000000000600082015250565b6000611087601783610efc565b915061109282611051565b602082019050919050565b600060208201905081810360008301526110b68161107a565b9050919050565b7f4e6f20636f6e747269627574696f6e206d61646520627920207468697320616460008201527f6472657373000000000000000000000000000000000000000000000000000000602082015250565b6000611119602583610efc565b9150611124826110bd565b604082019050919050565b600060208201905081810360008301526111488161110c565b9050919050565b7f4e487b7100000000000000000000000000000000000000000000000000000000600052601160045260246000fd5b600061118982610cad565b91507fffffffffffffffffffffffffffffffffffffffffffffffffffffffffffffffff82036111bb576111ba61114f565b5b600182019050919050565b60006111d182610cad565b91506111dc83610cad565b92508282019050808211156111f4576111f361114f565b5b92915050565b600060608201905061120f6000830186610ed2565b61121c6020830185610d10565b6112296040830184610d10565b949350505050565b7f4f6e6c792061646d696e2063616e20706572666f726d2074686973206163746960008201527f6f6e000000000000000000000000000000000000000000000000000000000000602082015250565b600061128d602283610efc565b915061129882611231565b604082019050919050565b600060208201905081810360008301526112bc81611280565b9050919050565b7f50726f706f73616c206973206e6f7420617070726f7665640000000000000000600082015250565b60006112f9601883610efc565b9150611304826112c3565b602082019050919050565b60006020820190508181036000830152611328816112ec565b9050919050565b7f50726f706f73616c20646561646c696e65206861732070617373656400000000600082015250565b6000611365601c83610efc565b91506113708261132f565b602082019050919050565b6000602082019050818103600083015261139481611358565b9050919050565b7f54617267657420616d6f756e7420726561636865640000000000000000000000600082015250565b60006113d1601583610efc565b91506113dc8261139b565b602082019050919050565b60006020820190508181036000830152611400816113c4565b9050919050565b600060408201905061141c6000830185610ed2565b6114296020830184610d10565b939250505056fea2646970667358221220e83522fdfd6e7ca8e46b6fe693c3e6abadeac323e414d4e7b63cead1d21a2c5764736f6c63430008170033","opcodes":"PUSH1 0x80 PUSH1 0x40 MSTORE CALLVALUE DUP1 ISZERO PUSH2 0x10 JUMPI PUSH1 0x0 DUP1 REVERT JUMPDEST POP CALLER PUSH1 0x3 PUSH1 0x0 PUSH2 0x100 EXP DUP2 SLOAD DUP2 PUSH20 0xFFFFFFFFFFFFFFFFFFFFFFFFFFFFFFFFFFFFFFFF MUL NOT AND SWAP1 DUP4 PUSH20 0xFFFFFFFFFFFFFFFFFFFFFFFFFFFFFFFFFFFFFFFF AND MUL OR SWAP1 SSTORE POP PUSH2 0x1466 DUP1 PUSH2 0x61 PUSH1 0x0 CODECOPY PUSH1 0x0 RETURN INVALID PUSH1 0x80 PUSH1 0x40 MSTORE PUSH1 0x4 CALLDATASIZE LT PUSH2 0x86 JUMPI PUSH1 0x0 CALLDATALOAD PUSH1 0xE0 SHR DUP1 PUSH4 0x3D891F59 GT PUSH2 0x59 JUMPI DUP1 PUSH4 0x3D891F59 EQ PUSH2 0x14C JUMPI DUP1 PUSH4 0x6935BDA6 EQ PUSH2 0x189 JUMPI DUP1 PUSH4 0x98951B56 EQ PUSH2 0x1C6 JUMPI DUP1 PUSH4 0xC1CBBCA7 EQ PUSH2 0x1EF JUMPI DUP1 PUSH4 0xF851A440 EQ PUSH2 0x20B JUMPI PUSH2 0x86 JUMP JUMPDEST DUP1 PUSH4 0x13CF08B EQ PUSH2 0x8B JUMPI DUP1 PUSH4 0xC0512E9 EQ PUSH2 0xCF JUMPI DUP1 PUSH4 0x155DD5EE EQ PUSH2 0xFA JUMPI DUP1 PUSH4 0x278ECDE1 EQ PUSH2 0x123 JUMPI JUMPDEST PUSH1 0x0 DUP1 REVERT JUMPDEST CALLVALUE DUP1 ISZERO PUSH2 0x97 JUMPI PUSH1 0x0 DUP1 REVERT JUMPDEST POP PUSH2 0xB2 PUSH1 0x4 DUP1 CALLDATASIZE SUB DUP2 ADD SWAP1 PUSH2 0xAD SWAP2 SWAP1 PUSH2 0xCE3 JUMP JUMPDEST PUSH2 0x236 JUMP JUMPDEST PUSH1 0x40 MLOAD PUSH2 0xC6 SWAP9 SWAP8 SWAP7 SWAP6 SWAP5 SWAP4 SWAP3 SWAP2 SWAP1 PUSH2 0xD7B JUMP JUMPDEST PUSH1 0x40 MLOAD DUP1 SWAP2 SUB SWAP1 RETURN JUMPDEST CALLVALUE DUP1 ISZERO PUSH2 0xDB JUMPI PUSH1 0x0 DUP1 REVERT JUMPDEST POP PUSH2 0xE4 PUSH2 0x2C5 JUMP JUMPDEST PUSH1 0x40 MLOAD PUSH2 0xF1 SWAP2 SWAP1 PUSH2 0xDF9 JUMP JUMPDEST PUSH1 0x40 MLOAD DUP1 SWAP2 SUB SWAP1 RETURN JUMPDEST CALLVALUE DUP1 ISZERO PUSH2 0x106 JUMPI PUSH1 0x0 DUP1 REVERT JUMPDEST POP PUSH2 0x121 PUSH1 0x4 DUP1 CALLDATASIZE SUB DUP2 ADD SWAP1 PUSH2 0x11C SWAP2 SWAP1 PUSH2 0xCE3 JUMP JUMPDEST PUSH2 0x2CB JUMP JUMPDEST STOP JUMPDEST CALLVALUE DUP1 ISZERO PUSH2 0x12F JUMPI PUSH1 0x0 DUP1 REVERT JUMPDEST POP PUSH2 0x14A PUSH1 0x4 DUP1 CALLDATASIZE SUB DUP2 ADD SWAP1 PUSH2 0x145 SWAP2 SWAP1 PUSH2 0xCE3 JUMP JUMPDEST PUSH2 0x514 JUMP JUMPDEST STOP JUMPDEST CALLVALUE DUP1 ISZERO PUSH2 0x158 JUMPI PUSH1 0x0 DUP1 REVERT JUMPDEST POP PUSH2 0x173 PUSH1 0x4 DUP1 CALLDATASIZE SUB DUP2 ADD SWAP1 PUSH2 0x16E SWAP2 SWAP1 PUSH2 0xE52 JUMP JUMPDEST PUSH2 0x759 JUMP JUMPDEST PUSH1 0x40 MLOAD PUSH2 0x180 SWAP2 SWAP1 PUSH2 0xDF9 JUMP JUMPDEST PUSH1 0x40 MLOAD DUP1 SWAP2 SUB SWAP1 RETURN JUMPDEST CALLVALUE DUP1 ISZERO PUSH2 0x195 JUMPI PUSH1 0x0 DUP1 REVERT JUMPDEST POP PUSH2 0x1B0 PUSH1 0x4 DUP1 CALLDATASIZE SUB DUP2 ADD SWAP1 PUSH2 0x1AB SWAP2 SWAP1 PUSH2 0xE92 JUMP JUMPDEST PUSH2 0x77E JUMP JUMPDEST PUSH1 0x40 MLOAD PUSH2 0x1BD SWAP2 SWAP1 PUSH2 0xDF9 JUMP JUMPDEST PUSH1 0x40 MLOAD DUP1 SWAP2 SUB SWAP1 RETURN JUMPDEST CALLVALUE DUP1 ISZERO PUSH2 0x1D2 JUMPI PUSH1 0x0 DUP1 REVERT JUMPDEST POP PUSH2 0x1ED PUSH1 0x4 DUP1 CALLDATASIZE SUB DUP2 ADD SWAP1 PUSH2 0x1E8 SWAP2 SWAP1 PUSH2 0xCE3 JUMP JUMPDEST PUSH2 0x938 JUMP JUMPDEST STOP JUMPDEST PUSH2 0x209 PUSH1 0x4 DUP1 CALLDATASIZE SUB DUP2 ADD SWAP1 PUSH2 0x204 SWAP2 SWAP1 PUSH2 0xCE3 JUMP JUMPDEST PUSH2 0xA26 JUMP JUMPDEST STOP JUMPDEST CALLVALUE DUP1 ISZERO PUSH2 0x217 JUMPI PUSH1 0x0 DUP1 REVERT JUMPDEST POP PUSH2 0x220 PUSH2 0xC82 JUMP JUMPDEST PUSH1 0x40 MLOAD PUSH2 0x22D SWAP2 SWAP1 PUSH2 0xEE1 JUMP JUMPDEST PUSH1 0x40 MLOAD DUP1 SWAP2 SUB SWAP1 RETURN JUMPDEST PUSH1 0x1 PUSH1 0x20 MSTORE DUP1 PUSH1 0x0 MSTORE PUSH1 0x40 PUSH1 0x0 KECCAK256 PUSH1 0x0 SWAP2 POP SWAP1 POP DUP1 PUSH1 0x0 ADD SLOAD SWAP1 DUP1 PUSH1 0x1 ADD PUSH1 0x0 SWAP1 SLOAD SWAP1 PUSH2 0x100 EXP SWAP1 DIV PUSH20 0xFFFFFFFFFFFFFFFFFFFFFFFFFFFFFFFFFFFFFFFF AND SWAP1 DUP1 PUSH1 0x2 ADD SLOAD SWAP1 DUP1 PUSH1 0x3 ADD SLOAD SWAP1 DUP1 PUSH1 0x4 ADD SLOAD SWAP1 DUP1 PUSH1 0x5 ADD PUSH1 0x0 SWAP1 SLOAD SWAP1 PUSH2 0x100 EXP SWAP1 DIV PUSH1 0xFF AND SWAP1 DUP1 PUSH1 0x5 ADD PUSH1 0x1 SWAP1 SLOAD SWAP1 PUSH2 0x100 EXP SWAP1 DIV PUSH1 0xFF AND SWAP1 DUP1 PUSH1 0x5 ADD PUSH1 0x2 SWAP1 SLOAD SWAP1 PUSH2 0x100 EXP SWAP1 DIV PUSH1 0xFF AND SWAP1 POP DUP9 JUMP JUMPDEST PUSH1 0x0 SLOAD DUP2 JUMP JUMPDEST DUP1 PUSH1 0x1 PUSH1 0x0 DUP3 DUP2 MSTORE PUSH1 0x20 ADD SWAP1 DUP2 MSTORE PUSH1 0x20 ADD PUSH1 0x0 KECCAK256 PUSH1 0x1 ADD PUSH1 0x0 SWAP1 SLOAD SWAP1 PUSH2 0x100 EXP SWAP1 DIV PUSH20 0xFFFFFFFFFFFFFFFFFFFFFFFFFFFFFFFFFFFFFFFF AND PUSH20 0xFFFFFFFFFFFFFFFFFFFFFFFFFFFFFFFFFFFFFFFF AND CALLER PUSH20 0xFFFFFFFFFFFFFFFFFFFFFFFFFFFFFFFFFFFFFFFF AND EQ PUSH2 0x33A JUMPI PUSH1 0x0 DUP1 REVERT JUMPDEST PUSH1 0x1 PUSH1 0x0 DUP4 DUP2 MSTORE PUSH1 0x20 ADD SWAP1 DUP2 MSTORE PUSH1 0x20 ADD PUSH1 0x0 KECCAK256 PUSH1 0x5 ADD PUSH1 0x1 SWAP1 SLOAD SWAP1 PUSH2 0x100 EXP SWAP1 DIV PUSH1 0xFF AND PUSH2 0x39D JUMPI PUSH1 0x40 MLOAD PUSH32 0x8C379A000000000000000000000000000000000000000000000000000000000 DUP2 MSTORE PUSH1 0x4 ADD PUSH2 0x394 SWAP1 PUSH2 0xF59 JUMP JUMPDEST PUSH1 0x40 MLOAD DUP1 SWAP2 SUB SWAP1 REVERT JUMPDEST PUSH1 0x1 PUSH1 0x0 DUP4 DUP2 MSTORE PUSH1 0x20 ADD SWAP1 DUP2 MSTORE PUSH1 0x20 ADD PUSH1 0x0 KECCAK256 PUSH1 0x5 ADD PUSH1 0x2 SWAP1 SLOAD SWAP1 PUSH2 0x100 EXP SWAP1 DIV PUSH1 0xFF AND ISZERO PUSH2 0x401 JUMPI PUSH1 0x40 MLOAD PUSH32 0x8C379A000000000000000000000000000000000000000000000000000000000 DUP2 MSTORE PUSH1 0x4 ADD PUSH2 0x3F8 SWAP1 PUSH2 0xFC5 JUMP JUMPDEST PUSH1 0x40 MLOAD DUP1 SWAP2 SUB SWAP1 REVERT JUMPDEST PUSH1 0x1 DUP1 PUSH1 0x0 DUP5 DUP2 MSTORE PUSH1 0x20 ADD SWAP1 DUP2 MSTORE PUSH1 0x20 ADD PUSH1 0x0 KECCAK256 PUSH1 0x5 ADD PUSH1 0x2 PUSH2 0x100 EXP DUP2 SLOAD DUP2 PUSH1 0xFF MUL NOT AND SWAP1 DUP4 ISZERO ISZERO MUL OR SWAP1 SSTORE POP PUSH1 0x1 PUSH1 0x0 DUP4 DUP2 MSTORE PUSH1 0x20 ADD SWAP1 DUP2 MSTORE PUSH1 0x20 ADD PUSH1 0x0 KECCAK256 PUSH1 0x1 ADD PUSH1 0x0 SWAP1 SLOAD SWAP1 PUSH2 0x100 EXP SWAP1 DIV PUSH20 0xFFFFFFFFFFFFFFFFFFFFFFFFFFFFFFFFFFFFFFFF AND PUSH20 0xFFFFFFFFFFFFFFFFFFFFFFFFFFFFFFFFFFFFFFFF AND PUSH2 0x8FC PUSH1 0x1 PUSH1 0x0 DUP6 DUP2 MSTORE PUSH1 0x20 ADD SWAP1 DUP2 MSTORE PUSH1 0x20 ADD PUSH1 0x0 KECCAK256 PUSH1 0x3 ADD SLOAD SWAP1 DUP2 ISZERO MUL SWAP1 PUSH1 0x40 MLOAD PUSH1 0x0 PUSH1 0x40 MLOAD DUP1 DUP4 SUB DUP2 DUP6 DUP9 DUP9 CALL SWAP4 POP POP POP POP ISZERO DUP1 ISZERO PUSH2 0x4C1 JUMPI RETURNDATASIZE PUSH1 0x0 DUP1 RETURNDATACOPY RETURNDATASIZE PUSH1 0x0 REVERT JUMPDEST POP DUP2 PUSH32 0xD66662C0DED9E58FD31D5E44944BCFD07FFC15E6927ECC1382E7941CB7BD24C4 PUSH1 0x1 PUSH1 0x0 DUP6 DUP2 MSTORE PUSH1 0x20 ADD SWAP1 DUP2 MSTORE PUSH1 0x20 ADD PUSH1 0x0 KECCAK256 PUSH1 0x3 ADD SLOAD PUSH1 0x40 MLOAD PUSH2 0x508 SWAP2 SWAP1 PUSH2 0xDF9 JUMP JUMPDEST PUSH1 0x40 MLOAD DUP1 SWAP2 SUB SWAP1 LOG2 POP POP JUMP JUMPDEST PUSH1 0x1 PUSH1 0x0 DUP3 DUP2 MSTORE PUSH1 0x20 ADD SWAP1 DUP2 MSTORE PUSH1 0x20 ADD PUSH1 0x0 KECCAK256 PUSH1 0x4 ADD SLOAD TIMESTAMP GT PUSH2 0x56C JUMPI PUSH1 0x40 MLOAD PUSH32 0x8C379A000000000000000000000000000000000000000000000000000000000 DUP2 MSTORE PUSH1 0x4 ADD PUSH2 0x563 SWAP1 PUSH2 0x1031 JUMP JUMPDEST PUSH1 0x40 MLOAD DUP1 SWAP2 SUB SWAP1 REVERT JUMPDEST PUSH1 0x1 PUSH1 0x0 DUP3 DUP2 MSTORE PUSH1 0x20 ADD SWAP1 DUP2 MSTORE PUSH1 0x20 ADD PUSH1 0x0 KECCAK256 PUSH1 0x5 ADD PUSH1 0x1 SWAP1 SLOAD SWAP1 PUSH2 0x100 EXP SWAP1 DIV PUSH1 0xFF AND ISZERO PUSH2 0x5D0 JUMPI PUSH1 0x40 MLOAD PUSH32 0x8C379A000000000000000000000000000000000000000000000000000000000 DUP2 MSTORE PUSH1 0x4 ADD PUSH2 0x5C7 SWAP1 PUSH2 0x109D JUMP JUMPDEST PUSH1 0x40 MLOAD DUP1 SWAP2 SUB SWAP1 REVERT JUMPDEST PUSH1 0x0 PUSH1 0x2 PUSH1 0x0 DUP4 DUP2 MSTORE PUSH1 0x20 ADD SWAP1 DUP2 MSTORE PUSH1 0x20 ADD PUSH1 0x0 KECCAK256 PUSH1 0x0 CALLER PUSH20 0xFFFFFFFFFFFFFFFFFFFFFFFFFFFFFFFFFFFFFFFF AND PUSH20 0xFFFFFFFFFFFFFFFFFFFFFFFFFFFFFFFFFFFFFFFF AND DUP2 MSTORE PUSH1 0x20 ADD SWAP1 DUP2 MSTORE PUSH1 0x20 ADD PUSH1 0x0 KECCAK256 SLOAD GT PUSH2 0x663 JUMPI PUSH1 0x40 MLOAD PUSH32 0x8C379A000000000000000000000000000000000000000000000000000000000 DUP2 MSTORE PUSH1 0x4 ADD PUSH2 0x65A SWAP1 PUSH2 0x112F JUMP JUMPDEST PUSH1 0x40 MLOAD DUP1 SWAP2 SUB SWAP1 REVERT JUMPDEST PUSH1 0x0 PUSH1 0x2 PUSH1 0x0 DUP4 DUP2 MSTORE PUSH1 0x20 ADD SWAP1 DUP2 MSTORE PUSH1 0x20 ADD PUSH1 0x0 KECCAK256 PUSH1 0x0 CALLER PUSH20 0xFFFFFFFFFFFFFFFFFFFFFFFFFFFFFFFFFFFFFFFF AND PUSH20 0xFFFFFFFFFFFFFFFFFFFFFFFFFFFFFFFFFFFFFFFF AND DUP2 MSTORE PUSH1 0x20 ADD SWAP1 DUP2 MSTORE PUSH1 0x20 ADD PUSH1 0x0 KECCAK256 SLOAD SWAP1 POP PUSH1 0x0 PUSH1 0x2 PUSH1 0x0 DUP5 DUP2 MSTORE PUSH1 0x20 ADD SWAP1 DUP2 MSTORE PUSH1 0x20 ADD PUSH1 0x0 KECCAK256 PUSH1 0x0 CALLER PUSH20 0xFFFFFFFFFFFFFFFFFFFFFFFFFFFFFFFFFFFFFFFF AND PUSH20 0xFFFFFFFFFFFFFFFFFFFFFFFFFFFFFFFFFFFFFFFF AND DUP2 MSTORE PUSH1 0x20 ADD SWAP1 DUP2 MSTORE PUSH1 0x20 ADD PUSH1 0x0 KECCAK256 DUP2 SWAP1 SSTORE POP CALLER PUSH20 0xFFFFFFFFFFFFFFFFFFFFFFFFFFFFFFFFFFFFFFFF AND PUSH2 0x8FC DUP3 SWAP1 DUP2 ISZERO MUL SWAP1 PUSH1 0x40 MLOAD PUSH1 0x0 PUSH1 0x40 MLOAD DUP1 DUP4 SUB DUP2 DUP6 DUP9 DUP9 CALL SWAP4 POP POP POP POP ISZERO DUP1 ISZERO PUSH2 0x754 JUMPI RETURNDATASIZE PUSH1 0x0 DUP1 RETURNDATACOPY RETURNDATASIZE PUSH1 0x0 REVERT JUMPDEST POP POP POP JUMP JUMPDEST PUSH1 0x2 PUSH1 0x20 MSTORE DUP2 PUSH1 0x0 MSTORE PUSH1 0x40 PUSH1 0x0 KECCAK256 PUSH1 0x20 MSTORE DUP1 PUSH1 0x0 MSTORE PUSH1 0x40 PUSH1 0x0 KECCAK256 PUSH1 0x0 SWAP2 POP SWAP2 POP POP SLOAD DUP2 JUMP JUMPDEST PUSH1 0x0 DUP1 PUSH1 0x0 DUP2 SLOAD DUP1 SWAP3 SWAP2 SWAP1 PUSH2 0x792 SWAP1 PUSH2 0x117E JUMP JUMPDEST SWAP2 SWAP1 POP SSTORE POP PUSH1 0x40 MLOAD DUP1 PUSH2 0x100 ADD PUSH1 0x40 MSTORE DUP1 PUSH1 0x0 SLOAD DUP2 MSTORE PUSH1 0x20 ADD CALLER PUSH20 0xFFFFFFFFFFFFFFFFFFFFFFFFFFFFFFFFFFFFFFFF AND DUP2 MSTORE PUSH1 0x20 ADD DUP5 DUP2 MSTORE PUSH1 0x20 ADD PUSH1 0x0 DUP2 MSTORE PUSH1 0x20 ADD DUP4 TIMESTAMP PUSH2 0x7E0 SWAP2 SWAP1 PUSH2 0x11C6 JUMP JUMPDEST DUP2 MSTORE PUSH1 0x20 ADD PUSH1 0x0 ISZERO ISZERO DUP2 MSTORE PUSH1 0x20 ADD PUSH1 0x0 ISZERO ISZERO DUP2 MSTORE PUSH1 0x20 ADD PUSH1 0x0 ISZERO ISZERO DUP2 MSTORE POP PUSH1 0x1 PUSH1 0x0 DUP1 SLOAD DUP2 MSTORE PUSH1 0x20 ADD SWAP1 DUP2 MSTORE PUSH1 0x20 ADD PUSH1 0x0 KECCAK256 PUSH1 0x0 DUP3 ADD MLOAD DUP2 PUSH1 0x0 ADD SSTORE PUSH1 0x20 DUP3 ADD MLOAD DUP2 PUSH1 0x1 ADD PUSH1 0x0 PUSH2 0x100 EXP DUP2 SLOAD DUP2 PUSH20 0xFFFFFFFFFFFFFFFFFFFFFFFFFFFFFFFFFFFFFFFF MUL NOT AND SWAP1 DUP4 PUSH20 0xFFFFFFFFFFFFFFFFFFFFFFFFFFFFFFFFFFFFFFFF AND MUL OR SWAP1 SSTORE POP PUSH1 0x40 DUP3 ADD MLOAD DUP2 PUSH1 0x2 ADD SSTORE PUSH1 0x60 DUP3 ADD MLOAD DUP2 PUSH1 0x3 ADD SSTORE PUSH1 0x80 DUP3 ADD MLOAD DUP2 PUSH1 0x4 ADD SSTORE PUSH1 0xA0 DUP3 ADD MLOAD DUP2 PUSH1 0x5 ADD PUSH1 0x0 PUSH2 0x100 EXP DUP2 SLOAD DUP2 PUSH1 0xFF MUL NOT AND SWAP1 DUP4 ISZERO ISZERO MUL OR SWAP1 SSTORE POP PUSH1 0xC0 DUP3 ADD MLOAD DUP2 PUSH1 0x5 ADD PUSH1 0x1 PUSH2 0x100 EXP DUP2 SLOAD DUP2 PUSH1 0xFF MUL NOT AND SWAP1 DUP4 ISZERO ISZERO MUL OR SWAP1 SSTORE POP PUSH1 0xE0 DUP3 ADD MLOAD DUP2 PUSH1 0x5 ADD PUSH1 0x2 PUSH2 0x100 EXP DUP2 SLOAD DUP2 PUSH1 0xFF MUL NOT AND SWAP1 DUP4 ISZERO ISZERO MUL OR SWAP1 SSTORE POP SWAP1 POP POP PUSH1 0x0 SLOAD PUSH32 0xD38D9A9A102AF286AEA1CBCADB8AAB8446A90859626389DB3710ED4FEA4C2C39 CALLER DUP6 DUP6 TIMESTAMP PUSH2 0x916 SWAP2 SWAP1 PUSH2 0x11C6 JUMP JUMPDEST PUSH1 0x40 MLOAD PUSH2 0x925 SWAP4 SWAP3 SWAP2 SWAP1 PUSH2 0x11FA JUMP JUMPDEST PUSH1 0x40 MLOAD DUP1 SWAP2 SUB SWAP1 LOG2 PUSH1 0x0 SLOAD SWAP1 POP SWAP3 SWAP2 POP POP JUMP JUMPDEST PUSH1 0x3 PUSH1 0x0 SWAP1 SLOAD SWAP1 PUSH2 0x100 EXP SWAP1 DIV PUSH20 0xFFFFFFFFFFFFFFFFFFFFFFFFFFFFFFFFFFFFFFFF AND PUSH20 0xFFFFFFFFFFFFFFFFFFFFFFFFFFFFFFFFFFFFFFFF AND CALLER PUSH20 0xFFFFFFFFFFFFFFFFFFFFFFFFFFFFFFFFFFFFFFFF AND EQ PUSH2 0x9C8 JUMPI PUSH1 0x40 MLOAD PUSH32 0x8C379A000000000000000000000000000000000000000000000000000000000 DUP2 MSTORE PUSH1 0x4 ADD PUSH2 0x9BF SWAP1 PUSH2 0x12A3 JUMP JUMPDEST PUSH1 0x40 MLOAD DUP1 SWAP2 SUB SWAP1 REVERT JUMPDEST PUSH1 0x1 DUP1 PUSH1 0x0 DUP4 DUP2 MSTORE PUSH1 0x20 ADD SWAP1 DUP2 MSTORE PUSH1 0x20 ADD PUSH1 0x0 KECCAK256 PUSH1 0x5 ADD PUSH1 0x0 PUSH2 0x100 EXP DUP2 SLOAD DUP2 PUSH1 0xFF MUL NOT AND SWAP1 DUP4 ISZERO ISZERO MUL OR SWAP1 SSTORE POP DUP1 PUSH32 0x28EC9E38BA73636CEB2F6C1574136F83BD46284A3C74734B711BF45E12F8D929 PUSH1 0x40 MLOAD PUSH1 0x40 MLOAD DUP1 SWAP2 SUB SWAP1 LOG2 POP JUMP JUMPDEST PUSH1 0x1 PUSH1 0x0 DUP3 DUP2 MSTORE PUSH1 0x20 ADD SWAP1 DUP2 MSTORE PUSH1 0x20 ADD PUSH1 0x0 KECCAK256 PUSH1 0x5 ADD PUSH1 0x0 SWAP1 SLOAD SWAP1 PUSH2 0x100 EXP SWAP1 DIV PUSH1 0xFF AND PUSH2 0xA89 JUMPI PUSH1 0x40 MLOAD PUSH32 0x8C379A000000000000000000000000000000000000000000000000000000000 DUP2 MSTORE PUSH1 0x4 ADD PUSH2 0xA80 SWAP1 PUSH2 0x130F JUMP JUMPDEST PUSH1 0x40 MLOAD DUP1 SWAP2 SUB SWAP1 REVERT JUMPDEST PUSH1 0x1 PUSH1 0x0 DUP3 DUP2 MSTORE PUSH1 0x20 ADD SWAP1 DUP2 MSTORE PUSH1 0x20 ADD PUSH1 0x0 KECCAK256 PUSH1 0x4 ADD SLOAD TIMESTAMP LT PUSH2 0xAE1 JUMPI PUSH1 0x40 MLOAD PUSH32 0x8C379A000000000000000000000000000000000000000000000000000000000 DUP2 MSTORE PUSH1 0x4 ADD PUSH2 0xAD8 SWAP1 PUSH2 0x137B JUMP JUMPDEST PUSH1 0x40 MLOAD DUP1 SWAP2 SUB SWAP1 REVERT JUMPDEST PUSH1 0x1 PUSH1 0x0 DUP3 DUP2 MSTORE PUSH1 0x20 ADD SWAP1 DUP2 MSTORE PUSH1 0x20 ADD PUSH1 0x0 KECCAK256 PUSH1 0x2 ADD SLOAD PUSH1 0x1 PUSH1 0x0 DUP4 DUP2 MSTORE PUSH1 0x20 ADD SWAP1 DUP2 MSTORE PUSH1 0x20 ADD PUSH1 0x0 KECCAK256 PUSH1 0x3 ADD SLOAD LT PUSH2 0xB4F JUMPI PUSH1 0x40 MLOAD PUSH32 0x8C379A000000000000000000000000000000000000000000000000000000000 DUP2 MSTORE PUSH1 0x4 ADD PUSH2 0xB46 SWAP1 PUSH2 0x13E7 JUMP JUMPDEST PUSH1 0x40 MLOAD DUP1 SWAP2 SUB SWAP1 REVERT JUMPDEST CALLVALUE PUSH1 0x2 PUSH1 0x0 DUP4 DUP2 MSTORE PUSH1 0x20 ADD SWAP1 DUP2 MSTORE PUSH1 0x20 ADD PUSH1 0x0 KECCAK256 PUSH1 0x0 CALLER PUSH20 0xFFFFFFFFFFFFFFFFFFFFFFFFFFFFFFFFFFFFFFFF AND PUSH20 0xFFFFFFFFFFFFFFFFFFFFFFFFFFFFFFFFFFFFFFFF AND DUP2 MSTORE PUSH1 0x20 ADD SWAP1 DUP2 MSTORE PUSH1 0x20 ADD PUSH1 0x0 KECCAK256 PUSH1 0x0 DUP3 DUP3 SLOAD PUSH2 0xBAF SWAP2 SWAP1 PUSH2 0x11C6 JUMP JUMPDEST SWAP3 POP POP DUP2 SWAP1 SSTORE POP CALLVALUE PUSH1 0x1 PUSH1 0x0 DUP4 DUP2 MSTORE PUSH1 0x20 ADD SWAP1 DUP2 MSTORE PUSH1 0x20 ADD PUSH1 0x0 KECCAK256 PUSH1 0x3 ADD PUSH1 0x0 DUP3 DUP3 SLOAD PUSH2 0xBDC SWAP2 SWAP1 PUSH2 0x11C6 JUMP JUMPDEST SWAP3 POP POP DUP2 SWAP1 SSTORE POP DUP1 PUSH32 0xA4A91237423E0A1766A761C7CB029311D8B95D6B1B81DB1B949A70C98B4E08E CALLER CALLVALUE PUSH1 0x40 MLOAD PUSH2 0xC15 SWAP3 SWAP2 SWAP1 PUSH2 0x1407 JUMP JUMPDEST PUSH1 0x40 MLOAD DUP1 SWAP2 SUB SWAP1 LOG2 PUSH1 0x1 PUSH1 0x0 DUP3 DUP2 MSTORE PUSH1 0x20 ADD SWAP1 DUP2 MSTORE PUSH1 0x20 ADD PUSH1 0x0 KECCAK256 PUSH1 0x2 ADD SLOAD PUSH1 0x1 PUSH1 0x0 DUP4 DUP2 MSTORE PUSH1 0x20 ADD SWAP1 DUP2 MSTORE PUSH1 0x20 ADD PUSH1 0x0 KECCAK256 PUSH1 0x3 ADD SLOAD LT PUSH2 0xC7F JUMPI PUSH1 0x1 DUP1 PUSH1 0x0 DUP4 DUP2 MSTORE PUSH1 0x20 ADD SWAP1 DUP2 MSTORE PUSH1 0x20 ADD PUSH1 0x0 KECCAK256 PUSH1 0x5 ADD PUSH1 0x1 PUSH2 0x100 EXP DUP2 SLOAD DUP2 PUSH1 0xFF MUL NOT AND SWAP1 DUP4 ISZERO ISZERO MUL OR SWAP1 SSTORE POP JUMPDEST POP JUMP JUMPDEST PUSH1 0x3 PUSH1 0x0 SWAP1 SLOAD SWAP1 PUSH2 0x100 EXP SWAP1 DIV PUSH20 0xFFFFFFFFFFFFFFFFFFFFFFFFFFFFFFFFFFFFFFFF AND DUP2 JUMP JUMPDEST PUSH1 0x0 DUP1 REVERT JUMPDEST PUSH1 0x0 DUP2 SWAP1 POP SWAP2 SWAP1 POP JUMP JUMPDEST PUSH2 0xCC0 DUP2 PUSH2 0xCAD JUMP JUMPDEST DUP2 EQ PUSH2 0xCCB JUMPI PUSH1 0x0 DUP1 REVERT JUMPDEST POP JUMP JUMPDEST PUSH1 0x0 DUP2 CALLDATALOAD SWAP1 POP PUSH2 0xCDD DUP2 PUSH2 0xCB7 JUMP JUMPDEST SWAP3 SWAP2 POP POP JUMP JUMPDEST PUSH1 0x0 PUSH1 0x20 DUP3 DUP5 SUB SLT ISZERO PUSH2 0xCF9 JUMPI PUSH2 0xCF8 PUSH2 0xCA8 JUMP JUMPDEST JUMPDEST PUSH1 0x0 PUSH2 0xD07 DUP5 DUP3 DUP6 ADD PUSH2 0xCCE JUMP JUMPDEST SWAP2 POP POP SWAP3 SWAP2 POP POP JUMP JUMPDEST PUSH2 0xD19 DUP2 PUSH2 0xCAD JUMP JUMPDEST DUP3 MSTORE POP POP JUMP JUMPDEST PUSH1 0x0 PUSH20 0xFFFFFFFFFFFFFFFFFFFFFFFFFFFFFFFFFFFFFFFF DUP3 AND SWAP1 POP SWAP2 SWAP1 POP JUMP JUMPDEST PUSH1 0x0 PUSH2 0xD4A DUP3 PUSH2 0xD1F JUMP JUMPDEST SWAP1 POP SWAP2 SWAP1 POP JUMP JUMPDEST PUSH2 0xD5A DUP2 PUSH2 0xD3F JUMP JUMPDEST DUP3 MSTORE POP POP JUMP JUMPDEST PUSH1 0x0 DUP2 ISZERO ISZERO SWAP1 POP SWAP2 SWAP1 POP JUMP JUMPDEST PUSH2 0xD75 DUP2 PUSH2 0xD60 JUMP JUMPDEST DUP3 MSTORE POP POP JUMP JUMPDEST PUSH1 0x0 PUSH2 0x100 DUP3 ADD SWAP1 POP PUSH2 0xD91 PUSH1 0x0 DUP4 ADD DUP12 PUSH2 0xD10 JUMP JUMPDEST PUSH2 0xD9E PUSH1 0x20 DUP4 ADD DUP11 PUSH2 0xD51 JUMP JUMPDEST PUSH2 0xDAB PUSH1 0x40 DUP4 ADD DUP10 PUSH2 0xD10 JUMP JUMPDEST PUSH2 0xDB8 PUSH1 0x60 DUP4 ADD DUP9 PUSH2 0xD10 JUMP JUMPDEST PUSH2 0xDC5 PUSH1 0x80 DUP4 ADD DUP8 PUSH2 0xD10 JUMP JUMPDEST PUSH2 0xDD2 PUSH1 0xA0 DUP4 ADD DUP7 PUSH2 0xD6C JUMP JUMPDEST PUSH2 0xDDF PUSH1 0xC0 DUP4 ADD DUP6 PUSH2 0xD6C JUMP JUMPDEST PUSH2 0xDEC PUSH1 0xE0 DUP4 ADD DUP5 PUSH2 0xD6C JUMP JUMPDEST SWAP10 SWAP9 POP POP POP POP POP POP POP POP POP JUMP JUMPDEST PUSH1 0x0 PUSH1 0x20 DUP3 ADD SWAP1 POP PUSH2 0xE0E PUSH1 0x0 DUP4 ADD DUP5 PUSH2 0xD10 JUMP JUMPDEST SWAP3 SWAP2 POP POP JUMP JUMPDEST PUSH1 0x0 PUSH2 0xE1F DUP3 PUSH2 0xD1F JUMP JUMPDEST SWAP1 POP SWAP2 SWAP1 POP JUMP JUMPDEST PUSH2 0xE2F DUP2 PUSH2 0xE14 JUMP JUMPDEST DUP2 EQ PUSH2 0xE3A JUMPI PUSH1 0x0 DUP1 REVERT JUMPDEST POP JUMP JUMPDEST PUSH1 0x0 DUP2 CALLDATALOAD SWAP1 POP PUSH2 0xE4C DUP2 PUSH2 0xE26 JUMP JUMPDEST SWAP3 SWAP2 POP POP JUMP JUMPDEST PUSH1 0x0 DUP1 PUSH1 0x40 DUP4 DUP6 SUB SLT ISZERO PUSH2 0xE69 JUMPI PUSH2 0xE68 PUSH2 0xCA8 JUMP JUMPDEST JUMPDEST PUSH1 0x0 PUSH2 0xE77 DUP6 DUP3 DUP7 ADD PUSH2 0xCCE JUMP JUMPDEST SWAP3 POP POP PUSH1 0x20 PUSH2 0xE88 DUP6 DUP3 DUP7 ADD PUSH2 0xE3D JUMP JUMPDEST SWAP2 POP POP SWAP3 POP SWAP3 SWAP1 POP JUMP JUMPDEST PUSH1 0x0 DUP1 PUSH1 0x40 DUP4 DUP6 SUB SLT ISZERO PUSH2 0xEA9 JUMPI PUSH2 0xEA8 PUSH2 0xCA8 JUMP JUMPDEST JUMPDEST PUSH1 0x0 PUSH2 0xEB7 DUP6 DUP3 DUP7 ADD PUSH2 0xCCE JUMP JUMPDEST SWAP3 POP POP PUSH1 0x20 PUSH2 0xEC8 DUP6 DUP3 DUP7 ADD PUSH2 0xCCE JUMP JUMPDEST SWAP2 POP POP SWAP3 POP SWAP3 SWAP1 POP JUMP JUMPDEST PUSH2 0xEDB DUP2 PUSH2 0xE14 JUMP JUMPDEST DUP3 MSTORE POP POP JUMP JUMPDEST PUSH1 0x0 PUSH1 0x20 DUP3 ADD SWAP1 POP PUSH2 0xEF6 PUSH1 0x0 DUP4 ADD DUP5 PUSH2 0xED2 JUMP JUMPDEST SWAP3 SWAP2 POP POP JUMP JUMPDEST PUSH1 0x0 DUP3 DUP3 MSTORE PUSH1 0x20 DUP3 ADD SWAP1 POP SWAP3 SWAP2 POP POP JUMP JUMPDEST PUSH32 0x46756E64696E67206E6F74207375636365737366756C00000000000000000000 PUSH1 0x0 DUP3 ADD MSTORE POP JUMP JUMPDEST PUSH1 0x0 PUSH2 0xF43 PUSH1 0x16 DUP4 PUSH2 0xEFC JUMP JUMPDEST SWAP2 POP PUSH2 0xF4E DUP3 PUSH2 0xF0D JUMP JUMPDEST PUSH1 0x20 DUP3 ADD SWAP1 POP SWAP2 SWAP1 POP JUMP JUMPDEST PUSH1 0x0 PUSH1 0x20 DUP3 ADD SWAP1 POP DUP2 DUP2 SUB PUSH1 0x0 DUP4 ADD MSTORE PUSH2 0xF72 DUP2 PUSH2 0xF36 JUMP JUMPDEST SWAP1 POP SWAP2 SWAP1 POP JUMP JUMPDEST PUSH32 0x46756E647320616C72656164792077697468647261776E000000000000000000 PUSH1 0x0 DUP3 ADD MSTORE POP JUMP JUMPDEST PUSH1 0x0 PUSH2 0xFAF PUSH1 0x17 DUP4 PUSH2 0xEFC JUMP JUMPDEST SWAP2 POP PUSH2 0xFBA DUP3 PUSH2 0xF79 JUMP JUMPDEST PUSH1 0x20 DUP3 ADD SWAP1 POP SWAP2 SWAP1 POP JUMP JUMPDEST PUSH1 0x0 PUSH1 0x20 DUP3 ADD SWAP1 POP DUP2 DUP2 SUB PUSH1 0x0 DUP4 ADD MSTORE PUSH2 0xFDE DUP2 PUSH2 0xFA2 JUMP JUMPDEST SWAP1 POP SWAP2 SWAP1 POP JUMP JUMPDEST PUSH32 0x46756E64696E6720706572696F64206973206F76657200000000000000000000 PUSH1 0x0 DUP3 ADD MSTORE POP JUMP JUMPDEST PUSH1 0x0 PUSH2 0x101B PUSH1 0x16 DUP4 PUSH2 0xEFC JUMP JUMPDEST SWAP2 POP PUSH2 0x1026 DUP3 PUSH2 0xFE5 JUMP JUMPDEST PUSH1 0x20 DUP3 ADD SWAP1 POP SWAP2 SWAP1 POP JUMP JUMPDEST PUSH1 0x0 PUSH1 0x20 DUP3 ADD SWAP1 POP DUP2 DUP2 SUB PUSH1 0x0 DUP4 ADD MSTORE PUSH2 0x104A DUP2 PUSH2 0x100E JUMP JUMPDEST SWAP1 POP SWAP2 SWAP1 POP JUMP JUMPDEST PUSH32 0x46756E64696E6720776173207375636365737366756C6C000000000000000000 PUSH1 0x0 DUP3 ADD MSTORE POP JUMP JUMPDEST PUSH1 0x0 PUSH2 0x1087 PUSH1 0x17 DUP4 PUSH2 0xEFC JUMP JUMPDEST SWAP2 POP PUSH2 0x1092 DUP3 PUSH2 0x1051 JUMP JUMPDEST PUSH1 0x20 DUP3 ADD SWAP1 POP SWAP2 SWAP1 POP JUMP JUMPDEST PUSH1 0x0 PUSH1 0x20 DUP3 ADD SWAP1 POP DUP2 DUP2 SUB PUSH1 0x0 DUP4 ADD MSTORE PUSH2 0x10B6 DUP2 PUSH2 0x107A JUMP JUMPDEST SWAP1 POP SWAP2 SWAP1 POP JUMP JUMPDEST PUSH32 0x4E6F20636F6E747269627574696F6E206D616465206279202074686973206164 PUSH1 0x0 DUP3 ADD MSTORE PUSH32 0x6472657373000000000000000000000000000000000000000000000000000000 PUSH1 0x20 DUP3 ADD MSTORE POP JUMP JUMPDEST PUSH1 0x0 PUSH2 0x1119 PUSH1 0x25 DUP4 PUSH2 0xEFC JUMP JUMPDEST SWAP2 POP PUSH2 0x1124 DUP3 PUSH2 0x10BD JUMP JUMPDEST PUSH1 0x40 DUP3 ADD SWAP1 POP SWAP2 SWAP1 POP JUMP JUMPDEST PUSH1 0x0 PUSH1 0x20 DUP3 ADD SWAP1 POP DUP2 DUP2 SUB PUSH1 0x0 DUP4 ADD MSTORE PUSH2 0x1148 DUP2 PUSH2 0x110C JUMP JUMPDEST SWAP1 POP SWAP2 SWAP1 POP JUMP JUMPDEST PUSH32 0x4E487B7100000000000000000000000000000000000000000000000000000000 PUSH1 0x0 MSTORE PUSH1 0x11 PUSH1 0x4 MSTORE PUSH1 0x24 PUSH1 0x0 REVERT JUMPDEST PUSH1 0x0 PUSH2 0x1189 DUP3 PUSH2 0xCAD JUMP JUMPDEST SWAP2 POP PUSH32 0xFFFFFFFFFFFFFFFFFFFFFFFFFFFFFFFFFFFFFFFFFFFFFFFFFFFFFFFFFFFFFFFF DUP3 SUB PUSH2 0x11BB JUMPI PUSH2 0x11BA PUSH2 0x114F JUMP JUMPDEST JUMPDEST PUSH1 0x1 DUP3 ADD SWAP1 POP SWAP2 SWAP1 POP JUMP JUMPDEST PUSH1 0x0 PUSH2 0x11D1 DUP3 PUSH2 0xCAD JUMP JUMPDEST SWAP2 POP PUSH2 0x11DC DUP4 PUSH2 0xCAD JUMP JUMPDEST SWAP3 POP DUP3 DUP3 ADD SWAP1 POP DUP1 DUP3 GT ISZERO PUSH2 0x11F4 JUMPI PUSH2 0x11F3 PUSH2 0x114F JUMP JUMPDEST JUMPDEST SWAP3 SWAP2 POP POP JUMP JUMPDEST PUSH1 0x0 PUSH1 0x60 DUP3 ADD SWAP1 POP PUSH2 0x120F PUSH1 0x0 DUP4 ADD DUP7 PUSH2 0xED2 JUMP JUMPDEST PUSH2 0x121C PUSH1 0x20 DUP4 ADD DUP6 PUSH2 0xD10 JUMP JUMPDEST PUSH2 0x1229 PUSH1 0x40 DUP4 ADD DUP5 PUSH2 0xD10 JUMP JUMPDEST SWAP5 SWAP4 POP POP POP POP JUMP JUMPDEST PUSH32 0x4F6E6C792061646D696E2063616E20706572666F726D20746869732061637469 PUSH1 0x0 DUP3 ADD MSTORE PUSH32 0x6F6E000000000000000000000000000000000000000000000000000000000000 PUSH1 0x20 DUP3 ADD MSTORE POP JUMP JUMPDEST PUSH1 0x0 PUSH2 0x128D PUSH1 0x22 DUP4 PUSH2 0xEFC JUMP JUMPDEST SWAP2 POP PUSH2 0x1298 DUP3 PUSH2 0x1231 JUMP JUMPDEST PUSH1 0x40 DUP3 ADD SWAP1 POP SWAP2 SWAP1 POP JUMP JUMPDEST PUSH1 0x0 PUSH1 0x20 DUP3 ADD SWAP1 POP DUP2 DUP2 SUB PUSH1 0x0 DUP4 ADD MSTORE PUSH2 0x12BC DUP2 PUSH2 0x1280 JUMP JUMPDEST SWAP1 POP SWAP2 SWAP1 POP JUMP JUMPDEST PUSH32 0x50726F706F73616C206973206E6F7420617070726F7665640000000000000000 PUSH1 0x0 DUP3 ADD MSTORE POP JUMP JUMPDEST PUSH1 0x0 PUSH2 0x12F9 PUSH1 0x18 DUP4 PUSH2 0xEFC JUMP JUMPDEST SWAP2 POP PUSH2 0x1304 DUP3 PUSH2 0x12C3 JUMP JUMPDEST PUSH1 0x20 DUP3 ADD SWAP1 POP SWAP2 SWAP1 POP JUMP JUMPDEST PUSH1 0x0 PUSH1 0x20 DUP3 ADD SWAP1 POP DUP2 DUP2 SUB PUSH1 0x0 DUP4 ADD MSTORE PUSH2 0x1328 DUP2 PUSH2 0x12EC JUMP JUMPDEST SWAP1 POP SWAP2 SWAP1 POP JUMP JUMPDEST PUSH32 0x50726F706F73616C20646561646C696E65206861732070617373656400000000 PUSH1 0x0 DUP3 ADD MSTORE POP JUMP JUMPDEST PUSH1 0x0 PUSH2 0x1365 PUSH1 0x1C DUP4 PUSH2 0xEFC JUMP JUMPDEST SWAP2 POP PUSH2 0x1370 DUP3 PUSH2 0x132F JUMP JUMPDEST PUSH1 0x20 DUP3 ADD SWAP1 POP SWAP2 SWAP1 POP JUMP JUMPDEST PUSH1 0x0 PUSH1 0x20 DUP3 ADD SWAP1 POP DUP2 DUP2 SUB PUSH1 0x0 DUP4 ADD MSTORE PUSH2 0x1394 DUP2 PUSH2 0x1358 JUMP JUMPDEST SWAP1 POP SWAP2 SWAP1 POP JUMP JUMPDEST PUSH32 0x54617267657420616D6F756E7420726561636865640000000000000000000000 PUSH1 0x0 DUP3 ADD MSTORE POP JUMP JUMPDEST PUSH1 0x0 PUSH2 0x13D1 PUSH1 0x15 DUP4 PUSH2 0xEFC JUMP JUMPDEST SWAP2 POP PUSH2 0x13DC DUP3 PUSH2 0x139B JUMP JUMPDEST PUSH1 0x20 DUP3 ADD SWAP1 POP SWAP2 SWAP1 POP JUMP JUMPDEST PUSH1 0x0 PUSH1 0x20 DUP3 ADD SWAP1 POP DUP2 DUP2 SUB PUSH1 0x0 DUP4 ADD MSTORE PUSH2 0x1400 DUP2 PUSH2 0x13C4 JUMP JUMPDEST SWAP1 POP SWAP2 SWAP1 POP JUMP JUMPDEST PUSH1 0x0 PUSH1 0x40 DUP3 ADD SWAP1 POP PUSH2 0x141C PUSH1 0x0 DUP4 ADD DUP6 PUSH2 0xED2 JUMP JUMPDEST PUSH2 0x1429 PUSH1 0x20 DUP4 ADD DUP5 PUSH2 0xD10 JUMP JUMPDEST SWAP4 SWAP3 POP POP POP JUMP INVALID LOG2 PUSH5 0x6970667358 0x22 SLT KECCAK256 0xE8 CALLDATALOAD 0x22 REVERT REVERT PUSH15 0x7CA8E46B6FE693C3E6ABADEAC323E4 EQ 0xD4 0xE7 0xB6 EXTCODECOPY 0xEA 0xD1 0xD2 BYTE 0x2C JUMPI PUSH5 0x736F6C6343 STOP ADDMOD OR STOP CALLER "},"methodIdentifiers":{"admin()":"f851a440","approveProposal(uint256)":"98951b56","contribute(uint256)":"c1cbbca7","contributions(uint256,address)":"3d891f59","createProposal(uint256,uint256)":"6935bda6","proposalCounter()":"0c0512e9","proposals(uint256)":"013cf08b","refund(uint256)":"278ecde1","withdrawFunds(uint256)":"155dd5ee"}}}}}